{
  "_format": "hh-sol-artifact-1",
  "contractName": "IPFiPlatform",
  "sourceName": "src/IPFiPlatform.sol",
  "abi": [
    {
      "inputs": [
        {
          "internalType": "address",
          "name": "_assetContract",
          "type": "address"
        }
      ],
      "stateMutability": "nonpayable",
      "type": "constructor"
    },
    {
      "inputs": [
        {
          "internalType": "address",
          "name": "owner",
          "type": "address"
        }
      ],
      "name": "OwnableInvalidOwner",
      "type": "error"
    },
    {
      "inputs": [
        {
          "internalType": "address",
          "name": "account",
          "type": "address"
        }
      ],
      "name": "OwnableUnauthorizedAccount",
      "type": "error"
    },
    {
      "inputs": [],
      "name": "ReentrancyGuardReentrantCall",
      "type": "error"
    },
    {
      "anonymous": false,
      "inputs": [
        {
          "indexed": true,
          "internalType": "uint256",
          "name": "assetId",
          "type": "uint256"
        },
        {
          "indexed": true,
          "internalType": "address",
          "name": "creator",
          "type": "address"
        },
        {
          "indexed": false,
          "internalType": "string",
          "name": "assetType",
          "type": "string"
        }
      ],
      "name": "AssetCreated",
      "type": "event"
    },
    {
      "anonymous": false,
      "inputs": [
        {
          "indexed": true,
          "internalType": "uint256",
          "name": "assetId",
          "type": "uint256"
        },
        {
          "indexed": true,
          "internalType": "address",
          "name": "investor",
          "type": "address"
        },
        {
          "indexed": false,
          "internalType": "uint256",
          "name": "amount",
          "type": "uint256"
        },
        {
          "indexed": false,
          "internalType": "uint256",
          "name": "shares",
          "type": "uint256"
        }
      ],
      "name": "InvestmentMade",
      "type": "event"
    },
    {
      "anonymous": false,
      "inputs": [
        {
          "indexed": true,
          "internalType": "address",
          "name": "previousOwner",
          "type": "address"
        },
        {
          "indexed": true,
          "internalType": "address",
          "name": "newOwner",
          "type": "address"
        }
      ],
      "name": "OwnershipTransferred",
      "type": "event"
    },
    {
      "anonymous": false,
      "inputs": [
        {
          "indexed": true,
          "internalType": "uint256",
          "name": "poolId",
          "type": "uint256"
        },
        {
          "indexed": false,
          "internalType": "string",
          "name": "name",
          "type": "string"
        },
        {
          "indexed": true,
          "internalType": "address",
          "name": "manager",
          "type": "address"
        }
      ],
      "name": "PoolCreated",
      "type": "event"
    },
    {
      "anonymous": false,
      "inputs": [
        {
          "indexed": true,
          "internalType": "uint256",
          "name": "poolId",
          "type": "uint256"
        },
        {
          "indexed": true,
          "internalType": "address",
          "name": "investor",
          "type": "address"
        },
        {
          "indexed": false,
          "internalType": "uint256",
          "name": "amount",
          "type": "uint256"
        }
      ],
      "name": "PoolInvestment",
      "type": "event"
    },
    {
      "anonymous": false,
      "inputs": [
        {
          "indexed": true,
          "internalType": "uint256",
          "name": "assetId",
          "type": "uint256"
        },
        {
          "indexed": false,
          "internalType": "uint256",
          "name": "amount",
          "type": "uint256"
        },
        {
          "indexed": true,
          "internalType": "address",
          "name": "creator",
          "type": "address"
        }
      ],
      "name": "RoyaltyPaid",
      "type": "event"
    },
    {
      "anonymous": false,
      "inputs": [
        {
          "indexed": true,
          "internalType": "address",
          "name": "user",
          "type": "address"
        },
        {
          "indexed": false,
          "internalType": "string",
          "name": "userType",
          "type": "string"
        }
      ],
      "name": "UserRegistered",
      "type": "event"
    },
    {
      "inputs": [
        {
          "internalType": "string",
          "name": "assetType",
          "type": "string"
        }
      ],
      "name": "addAssetType",
      "outputs": [],
      "stateMutability": "nonpayable",
      "type": "function"
    },
    {
      "inputs": [],
      "name": "assetContract",
      "outputs": [
        {
          "internalType": "contract IPAssetNFT",
          "name": "",
          "type": "address"
        }
      ],
      "stateMutability": "view",
      "type": "function"
    },
    {
      "inputs": [
        {
          "internalType": "uint256",
          "name": "",
          "type": "uint256"
        }
      ],
      "name": "assetTypesList",
      "outputs": [
        {
          "internalType": "string",
          "name": "",
          "type": "string"
        }
      ],
      "stateMutability": "view",
      "type": "function"
    },
    {
      "inputs": [
        {
          "internalType": "string",
          "name": "ipfsHash",
          "type": "string"
        },
        {
          "internalType": "uint256",
          "name": "totalShares",
          "type": "uint256"
        },
        {
          "internalType": "uint256",
          "name": "pricePerShare",
          "type": "uint256"
        },
        {
          "internalType": "string",
          "name": "assetType",
          "type": "string"
        },
        {
          "internalType": "uint256",
          "name": "royaltyRate",
          "type": "uint256"
        }
      ],
      "name": "createAsset",
      "outputs": [
        {
          "internalType": "uint256",
          "name": "",
          "type": "uint256"
        }
      ],
      "stateMutability": "nonpayable",
      "type": "function"
    },
    {
      "inputs": [
        {
          "internalType": "string",
          "name": "name",
          "type": "string"
        },
        {
          "internalType": "string",
          "name": "description",
          "type": "string"
        },
        {
          "internalType": "uint256[]",
          "name": "assetIds",
          "type": "uint256[]"
        },
        {
          "internalType": "uint256",
          "name": "totalPoolShares",
          "type": "uint256"
        },
        {
          "internalType": "uint256",
          "name": "pricePerPoolShare",
          "type": "uint256"
        },
        {
          "internalType": "uint256",
          "name": "minimumInvestment",
          "type": "uint256"
        }
      ],
      "name": "createInvestmentPool",
      "outputs": [
        {
          "internalType": "uint256",
          "name": "",
          "type": "uint256"
        }
      ],
      "stateMutability": "nonpayable",
      "type": "function"
    },
    {
      "inputs": [],
      "name": "getCurrentPoolId",
      "outputs": [
        {
          "internalType": "uint256",
          "name": "",
          "type": "uint256"
        }
      ],
      "stateMutability": "view",
      "type": "function"
    },
    {
      "inputs": [
        {
          "internalType": "uint256",
          "name": "poolId",
          "type": "uint256"
        }
      ],
      "name": "getInvestmentPool",
      "outputs": [
        {
          "components": [
            {
              "internalType": "uint256",
              "name": "poolId",
              "type": "uint256"
            },
            {
              "internalType": "string",
              "name": "name",
              "type": "string"
            },
            {
              "internalType": "string",
              "name": "description",
              "type": "string"
            },
            {
              "internalType": "uint256[]",
              "name": "assetIds",
              "type": "uint256[]"
            },
            {
              "internalType": "uint256",
              "name": "totalPoolShares",
              "type": "uint256"
            },
            {
              "internalType": "uint256",
              "name": "availablePoolShares",
              "type": "uint256"
            },
            {
              "internalType": "uint256",
              "name": "pricePerPoolShare",
              "type": "uint256"
            },
            {
              "internalType": "uint256",
              "name": "minimumInvestment",
              "type": "uint256"
            },
            {
              "internalType": "bool",
              "name": "isActive",
              "type": "bool"
            },
            {
              "internalType": "address",
              "name": "manager",
              "type": "address"
            },
            {
              "internalType": "uint256",
              "name": "createdAt",
              "type": "uint256"
            }
          ],
          "internalType": "struct IPFiPlatform.InvestmentPool",
          "name": "",
          "type": "tuple"
        }
      ],
      "stateMutability": "view",
      "type": "function"
    },
    {
      "inputs": [],
      "name": "getPlatformStats",
      "outputs": [
        {
          "components": [
            {
              "internalType": "uint256",
              "name": "totalAssets",
              "type": "uint256"
            },
            {
              "internalType": "uint256",
              "name": "totalInvestments",
              "type": "uint256"
            },
            {
              "internalType": "uint256",
              "name": "totalValueLocked",
              "type": "uint256"
            },
            {
              "internalType": "uint256",
              "name": "totalRoyaltiesDistributed",
              "type": "uint256"
            },
            {
              "internalType": "uint256",
              "name": "totalUsers",
              "type": "uint256"
            }
          ],
          "internalType": "struct IPFiPlatform.PlatformStats",
          "name": "",
          "type": "tuple"
        }
      ],
      "stateMutability": "view",
      "type": "function"
    },
    {
      "inputs": [],
      "name": "getSupportedAssetTypes",
      "outputs": [
        {
          "internalType": "string[]",
          "name": "",
          "type": "string[]"
        }
      ],
      "stateMutability": "view",
      "type": "function"
    },
    {
      "inputs": [
        {
          "internalType": "address",
          "name": "user",
          "type": "address"
        }
      ],
      "name": "getUserPools",
      "outputs": [
        {
          "internalType": "uint256[]",
          "name": "",
          "type": "uint256[]"
        }
      ],
      "stateMutability": "view",
      "type": "function"
    },
    {
      "inputs": [
        {
          "internalType": "address",
          "name": "user",
          "type": "address"
        }
      ],
      "name": "getUserType",
      "outputs": [
        {
          "internalType": "string",
          "name": "",
          "type": "string"
        }
      ],
      "stateMutability": "view",
      "type": "function"
    },
    {
      "inputs": [
        {
          "internalType": "uint256",
          "name": "assetId",
          "type": "uint256"
        },
        {
          "internalType": "uint256",
          "name": "shareCount",
          "type": "uint256"
        }
      ],
      "name": "investInAsset",
      "outputs": [],
      "stateMutability": "payable",
      "type": "function"
    },
    {
      "inputs": [
        {
          "internalType": "uint256",
          "name": "poolId",
          "type": "uint256"
        },
        {
          "internalType": "uint256",
          "name": "shareCount",
          "type": "uint256"
        }
      ],
      "name": "investInPool",
      "outputs": [],
      "stateMutability": "payable",
      "type": "function"
    },
    {
      "inputs": [
        {
          "internalType": "uint256",
          "name": "",
          "type": "uint256"
        }
      ],
      "name": "investmentPools",
      "outputs": [
        {
          "internalType": "uint256",
          "name": "poolId",
          "type": "uint256"
        },
        {
          "internalType": "string",
          "name": "name",
          "type": "string"
        },
        {
          "internalType": "string",
          "name": "description",
          "type": "string"
        },
        {
          "internalType": "uint256",
          "name": "totalPoolShares",
          "type": "uint256"
        },
        {
          "internalType": "uint256",
          "name": "availablePoolShares",
          "type": "uint256"
        },
        {
          "internalType": "uint256",
          "name": "pricePerPoolShare",
          "type": "uint256"
        },
        {
          "internalType": "uint256",
          "name": "minimumInvestment",
          "type": "uint256"
        },
        {
          "internalType": "bool",
          "name": "isActive",
          "type": "bool"
        },
        {
          "internalType": "address",
          "name": "manager",
          "type": "address"
        },
        {
          "internalType": "uint256",
          "name": "createdAt",
          "type": "uint256"
        }
      ],
      "stateMutability": "view",
      "type": "function"
    },
    {
      "inputs": [
        {
          "internalType": "address",
          "name": "user",
          "type": "address"
        }
      ],
      "name": "isUserRegistered",
      "outputs": [
        {
          "internalType": "bool",
          "name": "",
          "type": "bool"
        }
      ],
      "stateMutability": "view",
      "type": "function"
    },
    {
      "inputs": [],
      "name": "maximumAssetValue",
      "outputs": [
        {
          "internalType": "uint256",
          "name": "",
          "type": "uint256"
        }
      ],
      "stateMutability": "view",
      "type": "function"
    },
    {
      "inputs": [],
      "name": "minimumAssetValue",
      "outputs": [
        {
          "internalType": "uint256",
          "name": "",
          "type": "uint256"
        }
      ],
      "stateMutability": "view",
      "type": "function"
    },
    {
      "inputs": [],
      "name": "minimumSharePrice",
      "outputs": [
        {
          "internalType": "uint256",
          "name": "",
          "type": "uint256"
        }
      ],
      "stateMutability": "view",
      "type": "function"
    },
    {
      "inputs": [],
      "name": "owner",
      "outputs": [
        {
          "internalType": "address",
          "name": "",
          "type": "address"
        }
      ],
      "stateMutability": "view",
      "type": "function"
    },
    {
      "inputs": [],
      "name": "pauseAssetContract",
      "outputs": [],
      "stateMutability": "nonpayable",
      "type": "function"
    },
    {
      "inputs": [
        {
          "internalType": "uint256",
          "name": "assetId",
          "type": "uint256"
        }
      ],
      "name": "payRoyalties",
      "outputs": [],
      "stateMutability": "payable",
      "type": "function"
    },
    {
      "inputs": [
        {
          "internalType": "string",
          "name": "userType",
          "type": "string"
        }
      ],
      "name": "registerUser",
      "outputs": [],
      "stateMutability": "nonpayable",
      "type": "function"
    },
    {
      "inputs": [
        {
          "internalType": "address",
          "name": "",
          "type": "address"
        }
      ],
      "name": "registeredUsers",
      "outputs": [
        {
          "internalType": "bool",
          "name": "",
          "type": "bool"
        }
      ],
      "stateMutability": "view",
      "type": "function"
    },
    {
      "inputs": [
        {
          "internalType": "string",
          "name": "assetType",
          "type": "string"
        }
      ],
      "name": "removeAssetType",
      "outputs": [],
      "stateMutability": "nonpayable",
      "type": "function"
    },
    {
      "inputs": [],
      "name": "renounceOwnership",
      "outputs": [],
      "stateMutability": "nonpayable",
      "type": "function"
    },
    {
      "inputs": [],
      "name": "stats",
      "outputs": [
        {
          "internalType": "uint256",
          "name": "totalAssets",
          "type": "uint256"
        },
        {
          "internalType": "uint256",
          "name": "totalInvestments",
          "type": "uint256"
        },
        {
          "internalType": "uint256",
          "name": "totalValueLocked",
          "type": "uint256"
        },
        {
          "internalType": "uint256",
          "name": "totalRoyaltiesDistributed",
          "type": "uint256"
        },
        {
          "internalType": "uint256",
          "name": "totalUsers",
          "type": "uint256"
        }
      ],
      "stateMutability": "view",
      "type": "function"
    },
    {
      "inputs": [
        {
          "internalType": "string",
          "name": "",
          "type": "string"
        }
      ],
      "name": "supportedAssetTypes",
      "outputs": [
        {
          "internalType": "bool",
          "name": "",
          "type": "bool"
        }
      ],
      "stateMutability": "view",
      "type": "function"
    },
    {
      "inputs": [
        {
          "internalType": "address",
          "name": "newOwner",
          "type": "address"
        }
      ],
      "name": "transferOwnership",
      "outputs": [],
      "stateMutability": "nonpayable",
      "type": "function"
    },
    {
      "inputs": [],
      "name": "unpauseAssetContract",
      "outputs": [],
      "stateMutability": "nonpayable",
      "type": "function"
    },
    {
      "inputs": [
        {
          "internalType": "uint256",
          "name": "newMaximum",
          "type": "uint256"
        }
      ],
      "name": "updateMaximumAssetValue",
      "outputs": [],
      "stateMutability": "nonpayable",
      "type": "function"
    },
    {
      "inputs": [
        {
          "internalType": "uint256",
          "name": "newMinimum",
          "type": "uint256"
        }
      ],
      "name": "updateMinimumAssetValue",
      "outputs": [],
      "stateMutability": "nonpayable",
      "type": "function"
    },
    {
      "inputs": [
        {
          "internalType": "uint256",
          "name": "newMinimum",
          "type": "uint256"
        }
      ],
      "name": "updateMinimumSharePrice",
      "outputs": [],
      "stateMutability": "nonpayable",
      "type": "function"
    },
    {
      "inputs": [
        {
          "internalType": "address",
          "name": "",
          "type": "address"
        },
        {
          "internalType": "uint256",
          "name": "",
          "type": "uint256"
        }
      ],
      "name": "userPools",
      "outputs": [
        {
          "internalType": "uint256",
          "name": "",
          "type": "uint256"
        }
      ],
      "stateMutability": "view",
      "type": "function"
    },
    {
      "inputs": [
        {
          "internalType": "address",
          "name": "",
          "type": "address"
        }
      ],
      "name": "userTypes",
      "outputs": [
        {
          "internalType": "string",
          "name": "",
          "type": "string"
        }
      ],
      "stateMutability": "view",
      "type": "function"
    },
    {
      "stateMutability": "payable",
      "type": "receive"
    }
  ],
  "bytecode": "0x60a034620002bd5762002c2738819003601f8101601f191683016001600160401b03811184821017620002c257839282916040528339602092839181010312620002bd57516001600160a01b03919082811690819003620002bd573315620002a45760008054336001600160a01b0319821681178355620002689590929116907f8be0079c531659141344cd1fd0a4f28419497f9722a3daafe3b4186f6b6457e09080a360018055662386f26fc10000600c55683635c9adc5dea00000600d5566038d7ea4c68000600e556080526001600755620000fd620000e0620002d8565b600b81526a191a59da5d185b0b585c9d60aa1b8382015262000333565b620001236200010b620002d8565b60068152651c185d195b9d60d21b8382015262000333565b6200014f62000131620002d8565b600c81526b6d757369632d72696768747360a01b8382015262000333565b620001786200015d620002d8565b600981526874726164656d61726b60b81b8382015262000333565b620001a162000186620002d8565b600981526818dbdc1e5c9a59da1d60ba1b8382015262000333565b620001cd620001af620002d8565b600c81526b1d1c9859194b5cd958dc995d60a21b8382015262000333565b620001f9620001db620002d8565b600c81526b06368617261637465722d69760a41b8382015262000333565b6200022162000207620002d8565b6008815267736f66747761726560c01b8382015262000333565b620002476200022f620002d8565b60068152653232b9b4b3b760d11b8382015262000333565b64189c985b9960da1b6200025a620002d8565b916005835282015262000333565b60405161270390816200052482396080518181816104330152818161078e01528181610a640152818161104b0152818161187801526118c30152f35b604051631e4fbdf760e01b815260006004820152602490fd5b600080fd5b634e487b7160e01b600052604160045260246000fd5b60408051919082016001600160401b03811183821017620002c257604052565b604051908181519160005b8381106200031d5750506020918101600f81520301902090565b6020828201810151868301528593500162000303565b60ff6200034082620002f8565b5416156200034b5750565b6200035681620002f8565b906001918260ff198254161790556010549068010000000000000000821015620002c257828201806010558210156200050d576010600090815281517f1b6847dc741a1b0cd08d278845f9d819d87b734759afb55fe2de5cb82a9ae67290930193602093929091906001600160401b038411620004f95785548381811c91168015620004ee575b86821014620004da57601f81116200048f575b508491601f85116001146200042c57939450849291908362000420575b50501b916000199060031b1c1916179055565b0151925038806200040d565b86815285812093958591601f198316915b888383106200047457505050106200045a575b505050811b019055565b015160001960f88460031b161c1916905538808062000450565b8587015188559096019594850194879350908101906200043d565b868352858320601f860160051c810191878710620004cf575b601f0160051c019084905b828110620004c3575050620003f0565b848155018490620004b3565b9091508190620004a8565b634e487b7160e01b83526022600452602483fd5b90607f1690620003dd565b634e487b7160e01b82526041600452602482fd5b634e487b7160e01b600052603260045260246000fdfe608080604052600436101561001d575b50361561001b57600080fd5b005b600090813560e01c9081630e50cee514611ff4575080631064aa5514611f9e578063136d888314611f0a578063163f752214611ecb5780632c26e42f14611ead5780632f8fa21d14611a7557806331cc615614611987578063396cd833146119695780633ced1b731461194657806340a93370146119235780634b98f225146118a75780634d16304f146118625780635c231aab146117735780636a61d0ea14611554578063704f1b94146113bc5780637077a4e41461135a578063715018a61461130057806387cd273c146112ba578063890d5b64146110165780638b3f863f14610fb95780638da5cb5b14610f925780639816af5814610f43578063a53caaa814610c77578063bceae59d14610b99578063c5f9143a14610b7b578063d80528ae14610b3b578063dcc5bfda14610acb578063ddddd47514610a48578063f2fde38b146109b8578063f44de78f14610639578063f6ac051a146103b4578063f858bbb514610391578063fa39a5ea146101bc5763feaec4c30361000f57346101b957806003193601126101b9576020600e54604051908152f35b80fd5b50346101b95760203660031901126101b9578060409161014083516101e0816120cb565b828152606060208201526060858201526060808201528260808201528260a08201528260c08201528260e0820152826101008201528261012082015201526004358152600860205220600960405191610238836120cb565b80548352604051610257816102508160018601612231565b0382612115565b6020840152604051610270816102508160028601612231565b6040840152610281600382016125a2565b606084015260048101546080840152600581015460a0840152600681015460c0840152600781015460e0840152600881015460ff8116151561010085015260018060a01b039060081c1661012084015201546101408201526040518091602082528051602083015261014061033b61030a602084015161016060408701526101808601906121d2565b610326604085015191601f1992838883030160608901526121d2565b906060850151908683030160808701526122c7565b91608081015160a085015260a081015160c085015260c081015160e085015260e0810151610100850152610100810151151561012085015260018060a01b03610120820151168285015201516101608301520390f35b50346101b95760203660031901126101b9576103ab612311565b600435600c5580f35b506103be366122fb565b90338352602091600983526103d960ff6040862054166124ee565b338452600a83526102506103f66040862060405192838092612231565b838151910120610404612360565b848151910120148015610601575b156105bc57604051636ce12c3560e01b8152600481018390523360248201527f00000000000000000000000000000000000000000000000000000000000000006001600160a01b0316908590608081604481865afa908115610524578291610533575b50511591803b1561052f578160449160405192838092630695e6e360e51b825289600483015288602483015234905af180156105245761050c575b50506104f9575b6104c334600454612543565b600455604051923484528301527ff31343540affa723d26848192c2f28ab76925951531440b6f2e082030394314f60403393a380f35b6105046003546124c9565b6003556104b7565b610515906120e7565b6105205784386104b0565b8480fd5b6040513d84823e3d90fd5b5080fd5b9150506080813d82116105b4575b8161054e60809383612115565b810103126105b057604051608081018181106001600160401b0382111761059a578792606091604052805183528781015188840152604081015160408401520151606082015238610475565b634e487b7160e01b600052604160045260246000fd5b8580fd5b3d9150610541565b60405162461bcd60e51b815260048101849052601960248201527f4f6e6c7920696e766573746f72732063616e20696e76657374000000000000006044820152606490fd5b50338452600a835261025061061f6040862060405192838092612231565b83815191012061062d612384565b84815191012014610412565b50346101b9576003199060a0368301126101b9576001600160401b036004358181116109b45761066d903690600401612151565b6024803594604490813560649586359081116109b057610691903690600401612151565b9533885260209860098a526106ac60ff60408b2054166124ee565b338952600a8a526102506106c960408b2060405192838092612231565b8a81519101206106d761233d565b8b8151910120148015610978575b156109375760ff6040518b81816107028d838151938492016121af565b8101600f8152030190205416156108fd5761071d8382612530565b600c5481106108c557600d541061088d57600e54831061085657926107819260c095928b979561076b6040519a8b998a99633bddf4f360e11b8b523360048c01528a015260c48901906121d2565b94870152850152838203016084840152866121d2565b60843560a48301520381867f00000000000000000000000000000000000000000000000000000000000000006001600160a01b03165af192831561084a578093610818575b50506107d36002546124c9565b600255817f49b4e4c6879cdc85b51d8c3b572252aaa7842edb863810854acb6d2ed420d9626040518581528061080d3395888301906121d2565b0390a3604051908152f35b909192508382813d8311610843575b6108318183612115565b810103126101b95750519038806107c6565b503d610827565b604051903d90823e3d90fd5b5060405162461bcd60e51b8152600481018a905260138187015272536861726520707269636520746f6f206c6f7760681b81860152fd5b5060405162461bcd60e51b8152600481018a905260148187015273082e6e6cae840ecc2d8eaca40e8dede40d0d2ced60631b81860152fd5b60405162461bcd60e51b8152600481018c90526013818901527241737365742076616c756520746f6f206c6f7760681b818801528390fd5b5060405162461bcd60e51b8152600481018a905260168187015275556e737570706f72746564206173736574207479706560501b81860152fd5b5060405162461bcd60e51b8152600481018a9052601f818701527f4f6e6c792063726561746f72732063616e20637265617465206173736574730081860152fd5b50338952600a8a5261025061099660408b2060405192838092612231565b8a81519101206109a4612384565b8b8151910120146106e5565b8780fd5b8280fd5b50346101b95760203660031901126101b9576109d2612030565b6109da612311565b6001600160a01b03908116908115610a2f57600054826bffffffffffffffffffffffff60a01b821617600055167f8be0079c531659141344cd1fd0a4f28419497f9722a3daafe3b4186f6b6457e0600080a380f35b604051631e4fbdf760e01b815260048101849052602490fd5b50346101b957806003193601126101b957610a61612311565b807f00000000000000000000000000000000000000000000000000000000000000006001600160a01b0316803b15610ac857818091600460405180948193631fa5d41d60e11b83525af1801561052457610ab85750f35b610ac1906120e7565b6101b95780f35b50fd5b50346101b95760203660031901126101b95760043560105481101561052f57610af39061204b565b610b2557610250610b0d610b219260405192838092612231565b6040519182916020835260208301906121d2565b0390f35b634e487b7160e01b600052600060045260246000fd5b50346101b957806003193601126101b95760a060025460035460045460055490600654926040519485526020850152604084015260608301526080820152f35b50346101b957806003193601126101b9576020600c54604051908152f35b50346101b95760203660031901126101b9576040906004358152600860205220805460405191610bd783610bd08160018501612231565b0384612115565b604051610beb816102508160028601612231565b60048201549160058101546006820154600783015491610c396009600886015495015495610c2b6040519a8b9a8b526101408060208d01528b01906121d2565b9089820360408b01526121d2565b6060880196909652608087015260a086015260c085015260ff8116151560e085015260081c6001600160a01b03166101008401526101208301520390f35b50610c81366122fb565b90338352602060098152610c9b60ff6040862054166124ee565b818452600881526040842060ff60088201541615610f09578315610eb95760058101805494858111610e7657610cd5600684015482612530565b95863410610e3a5760078401543410610df5576003939291610cf691612550565b905501548015610de1576000198101818504828211875b848110610d8f575050505050823411610d5e575b7fe65c87d24b55df0aa53a13d9f22bf2e232dbaf96a08cc11bea54425dd121cc7490610d4f84600454612543565b6004556040519384523393a380f35b83808080610d6c8734612550565b818115610d86575b3390f1610d21576040513d85823e3d90fd5b506108fc610d74565b81610dcd57838114610daa575b610da5906124c9565b610d0d565b919050610da5610dc5610dbf85600094612530565b89612550565b929050610d9c565b634e487b7160e01b89526011600452602489fd5b634e487b7160e01b85526012600452602485fd5b60405162461bcd60e51b815260048101869052601860248201527f496e766573746d656e742062656c6f77206d696e696d756d00000000000000006044820152606490fd5b60405162461bcd60e51b8152600481018690526014602482015273125b9cdd59999a58da595b9d081c185e5b595b9d60621b6044820152606490fd5b6064846040519062461bcd60e51b825280600483015260248201527f4e6f7420656e6f75676820706f6f6c2073686172657320617661696c61626c656044820152fd5b60405162461bcd60e51b815260048101839052602260248201527f536861726520636f756e74206d7573742062652067726561746572207468616e604482015261020360f41b6064820152608490fd5b60405162461bcd60e51b8152600481018390526012602482015271506f6f6c206973206e6f742061637469766560701b6044820152606490fd5b50346101b95760203660031901126101b957610b2190610f7e906040906001600160a01b03610f70612030565b168152600b602052206125a2565b6040519182916020835260208301906122c7565b50346101b957806003193601126101b957546040516001600160a01b039091168152602090f35b50346101b95760203660031901126101b957610b219061025090610b0d906040906001600160a01b03610fea612030565b16808252600960205261100260ff84842054166124ee565b8152600a6020522060405192838092612231565b5060208060031936011261052f57600435341561126757604051631d591eb760e31b8152600481018290526001600160a01b037f00000000000000000000000000000000000000000000000000000000000000008116918581602481865afa90811561125c578691611163575b5051163303611112578084913b1561052f57816024916040519283809263b07cb36560e01b825287600483015234905af18015610524576110fe575b50506110cd34600554612543565b6005557f2e80f0d7d411757d7a487139cd9acf9c64e948061a9e3d4d5bc76ab6a71848e9604051923484523393a380f35b611107906120e7565b6109b45782386110bf565b60405162461bcd60e51b8152600481018490526024808201527f4f6e6c792061737365742063726561746f722063616e2070617920726f79616c6044820152637469657360e01b6064820152608490fd5b90503d8087833e6111748183612115565b81019085818303126112585780516001600160401b0391828211611250570190610140928383820312611250576040519384018481108382111761059a57604052825185811681036112545784528783015182811161125457816111d991850161255d565b8885015260408301516040850152606083015160608501526080830151608085015260a083015160a085015260c083015180151581036112545760c085015260e08301519182116112505761122f91830161255d565b60e08301526101008082015190830152610120809101519082015238611083565b8880fd5b8980fd5b8680fd5b6040513d88823e3d90fd5b60405162461bcd60e51b815260048101839052602560248201527f526f79616c747920616d6f756e74206d75737420626520677265617465722074604482015264068616e20360dc1b6064820152608490fd5b50346101b95760203660031901126101b957610b219061025090610b0d906040906001600160a01b036112eb612030565b168152600a6020522060405192838092612231565b50346101b957806003193601126101b957611319612311565b600080546001600160a01b0319811682556001600160a01b03167f8be0079c531659141344cd1fd0a4f28419497f9722a3daafe3b4186f6b6457e08280a380f35b50346101b95760203660031901126101b957600435906001600160401b0382116101b957602060ff6113a6826113933660048801612151565b81604051938285809451938492016121af565b8101600f81520301902054166040519015158152f35b50346101b95760208060031936011261052f576004356001600160401b0381116109b4576113ee903690600401612151565b3383526009825260ff60408420541661150f57805182820190812061141161233d565b848151910120149081156114f4575b81156114d9575b50156114a05761149a7f48cac28ad4dc618e15f4c2dd5e97751182f166de97b25618318b2112aa951a2f913385526009845260408520600160ff19825416179055600a84526114798160408720612402565b6114846006546124c9565b60065560405191829185835233958301906121d2565b0390a280f35b60405162461bcd60e51b8152600481018390526011602482015270496e76616c69642075736572207479706560781b6044820152606490fd5b9050815190206114e7612384565b8381519101201438611427565b905081518120611502612360565b8481519101201490611420565b60405162461bcd60e51b815260048101839052601760248201527f5573657220616c726561647920726567697374657265640000000000000000006044820152606490fd5b50346101b95760208060031936011261052f576004356001600160401b0381116109b457611586903690600401612151565b9061158f612311565b6040519160ff8151938381818501966115a981838a6121af565b8101600f81520301902054161561172e57604051828183516115cc8183896121af565b8101600f81520301902060ff198154169055835b6010805480831015611725576102506116086115fb8561204b565b5060405192838092612231565b8581519101208451872014611627575050611622906124c9565b6115e0565b9394509260001992508281019081116117115761164661164d9161204b565b509161204b565b6116fd579061165b916125f1565b815480156116e957019161166e8361204b565b9190916116d55790849161168282546121f7565b9081611691575b505050505580f35b601f908183116001146116b05750505060009150555b82388080611689565b83916116ce916000949587528620940160051c8401600185016123a4565b55556116a7565b634e487b7160e01b85526004859052602485fd5b634e487b7160e01b85526031600452602485fd5b634e487b7160e01b86526004869052602486fd5b634e487b7160e01b86526011600452602486fd5b50505050505080f35b60405162461bcd60e51b815260048101839052601860248201527f41737365742074797065206e6f7420737570706f7274656400000000000000006044820152606490fd5b50346101b95760203660031901126101b9576004356001600160401b03811161052f576117a4903690600401612151565b6117ac612311565b60405160ff825191602081818601946117c68183886121af565b8101600f8152030190205416156117db578280f35b60206117f2916040518093819286519283916121af565b8101600f815203019020600160ff19825416179055601054600160401b81101561184e57806001611826920160105561204b565b61183a579061183491612402565b38808280f35b634e487b7160e01b83526004839052602483fd5b634e487b7160e01b83526041600452602483fd5b50346101b957806003193601126101b9576040517f00000000000000000000000000000000000000000000000000000000000000006001600160a01b03168152602090f35b50346101b957806003193601126101b9576118c0612311565b807f00000000000000000000000000000000000000000000000000000000000000006001600160a01b0316803b15610ac8578190600460405180948193638456cb5960e01b83525af1801561052457611917575080f35b611920906120e7565b80f35b50346101b95760203660031901126101b95761193d612311565b600435600d5580f35b50346101b95760203660031901126101b957611960612311565b600435600e5580f35b50346101b957806003193601126101b9576020600d54604051908152f35b50346101b957806003193601126101b9576010546119a481612198565b906119b26040519283612115565b8082526010835260209283830191817f1b6847dc741a1b0cd08d278845f9d819d87b734759afb55fe2de5cb82a9ae672845b838310611a495750505050604051928484019085855251809152604084019460408260051b8601019392955b828710611a1d5785850386f35b909192938280611a39600193603f198a820301865288516121d2565b9601920196019592919092611a10565b600188819260409a99979a51611a63816102508189612231565b815201920192019190969395966119e4565b50346101b95760c03660031901126101b9576001600160401b036004358181116109b457611aa7903690600401612151565b602435828111611ea957611abf903690600401612151565b91604435818111610520573660238201121561052057806004013590611ae482612198565b91611af26040519384612115565b8083526024602084019160051b830101913683116109b057602401905b828210611e995750505060643591608435913387526009602052611b3960ff6040892054166124ee565b845115611e5457805115611e03578315611db2578215611d5e57611be260075496611b63886124c9565b60075560405194611b73866120cb565b8886526020860196888852604087019283526060870194855280608088015260a087015260c086015260a43560e0860152600161010086015233610120860152426101408601528789526008602052611bd860408a2096865188555160018801612402565b5160028601612402565b518051918211611d4a57600160401b8211611d4a57602060038501918254848455808510611d30575b500190875260208720875b838110611d1c57505050506101408160806009930151600485015560a0810151600585015560c0810151600685015560e08101516007850155600884016101008201511515815460ff610100600160a81b0361012086015160081b169216906affffffffffffffffffffff60a81b16171790550151910155338352600b60205260408320805493600160401b851015611d08575083611cbc916001602096018155612098565b81549060031b9084821b91600019901b1916179055817f7eb8d63c0f8c2fb1b61dd0947e2f9eb707c7d44ec5d65a0761976cbc070197a56040518581528061080d3395888301906121d2565b634e487b7160e01b81526041600452602490fd5b600190602084519401938184015501611c16565b838a52828a20611d449181019086016123a4565b38611c0b565b634e487b7160e01b87526041600452602487fd5b60405162461bcd60e51b815260206004820152602660248201527f507269636520706572207368617265206d75737420626520677265617465722060448201526507468616e20360d41b6064820152608490fd5b60405162461bcd60e51b815260206004820152602360248201527f546f74616c20736861726573206d75737420626520677265617465722074686160448201526206e20360ec1b6064820152608490fd5b60405162461bcd60e51b8152602060048201526024808201527f506f6f6c206d75737420636f6e7461696e206174206c65617374206f6e6520616044820152631cdcd95d60e21b6064820152608490fd5b60405162461bcd60e51b815260206004820152601960248201527f506f6f6c206e616d652063616e6e6f7420626520656d707479000000000000006044820152606490fd5b8135815260209182019101611b0f565b8380fd5b50346101b957806003193601126101b9576020600754604051908152f35b50346101b95760203660031901126101b95760209060ff906040906001600160a01b03611ef6612030565b168152600984522054166040519015158152f35b50346101b957806003193601126101b9576080604051611f29816120b0565b828152826020820152826040820152826060820152015260a0604051611f4e816120b0565b600254908181526003546020820190815260045460408301908152600554916060840192835260806006549401938452604051948552516020850152516040840152516060830152516080820152f35b50346101b95760403660031901126101b957611fb8612030565b6001600160a01b03168152600b60205260408120805460243592908310156101b9576020611fe68484612098565b90546040519160031b1c8152f35b90503461052f57602036600319011261052f5760209160ff906040906001600160a01b03612020612030565b1681526009855220541615158152f35b600435906001600160a01b038216820361204657565b600080fd5b6010548110156120825760106000527f1b6847dc741a1b0cd08d278845f9d819d87b734759afb55fe2de5cb82a9ae6720190600090565b634e487b7160e01b600052603260045260246000fd5b80548210156120825760005260206000200190600090565b60a081019081106001600160401b0382111761059a57604052565b61016081019081106001600160401b0382111761059a57604052565b6001600160401b03811161059a57604052565b604081019081106001600160401b0382111761059a57604052565b90601f801991011681019081106001600160401b0382111761059a57604052565b6001600160401b03811161059a57601f01601f191660200190565b81601f820112156120465780359061216882612136565b926121766040519485612115565b8284526020838301011161204657816000926020809301838601378301015290565b6001600160401b03811161059a5760051b60200190565b60005b8381106121c25750506000910152565b81810151838201526020016121b2565b906020916121eb815180928185528580860191016121af565b601f01601f1916010190565b90600182811c92168015612227575b602083101461221157565b634e487b7160e01b600052602260045260246000fd5b91607f1691612206565b9060009291805491612242836121f7565b9182825260019384811690816000146122a45750600114612264575b50505050565b90919394506000526020928360002092846000945b83861061229057505050500101903880808061225e565b805485870183015294019385908201612279565b9294505050602093945060ff191683830152151560051b0101903880808061225e565b90815180825260208080930193019160005b8281106122e7575050505090565b8351855293810193928101926001016122d9565b6040906003190112612046576004359060243590565b6000546001600160a01b0316330361232557565b60405163118cdaa760e01b8152336004820152602490fd5b6040519061234a826120fa565b600782526631b932b0ba37b960c91b6020830152565b6040519061236d826120fa565b600882526734b73b32b9ba37b960c11b6020830152565b60405190612391826120fa565b60048252630c4dee8d60e31b6020830152565b8181106123af575050565b600081556001016123a4565b9190601f81116123ca57505050565b6123f6926000526020600020906020601f840160051c830193106123f8575b601f0160051c01906123a4565b565b90915081906123e9565b91909182516001600160401b03811161059a576124298161242384546121f7565b846123bb565b602080601f831160011461246557508192939460009261245a575b50508160011b916000199060031b1c1916179055565b015190503880612444565b90601f198316958460005282600020926000905b8882106124b157505083600195969710612498575b505050811b019055565b015160001960f88460031b161c1916905538808061248e565b80600185968294968601518155019501930190612479565b60001981146124d85760010190565b634e487b7160e01b600052601160045260246000fd5b156124f557565b60405162461bcd60e51b8152602060048201526013602482015272155cd95c881b9bdd081c9959da5cdd195c9959606a1b6044820152606490fd5b818102929181159184041417156124d857565b919082018092116124d857565b919082039182116124d857565b81601f8201121561204657805161257381612136565b926125816040519485612115565b818452602082840101116120465761259f91602080850191016121af565b90565b9060405191828154918282526020928383019160005283600020936000905b8282106125d7575050506123f692500383612115565b8554845260019586019588955093810193909101906125c1565b908082146126c95761260381546121f7565b906001600160401b03821161059a5781906126288261262286546121f7565b866123bb565b600090601f831160011461265e576000926126535750508160011b916000199060031b1c1916179055565b015490503880612444565b81526020808220858352818320935090601f1985169083905b8282106126b057505090846001959493921061269757505050811b019055565b015460001960f88460031b161c1916905538808061248e565b8495819295850154815560018091019601940190612677565b505056fea26469706673582212209708cf1b3eed27af90628a0ceb8e0f10de73c7d34410d332f0ba468b0cfe4e3664736f6c63430008140033",
  "linkReferences": {},
  "deployedLinkReferences": {}
}