{"src/IPFiToken.sol":{"IPFiToken":{"abi":[{"inputs":[],"stateMutability":"nonpayable","type":"constructor"},{"inputs":[{"internalType":"address","name":"spender","type":"address"},{"internalType":"uint256","name":"allowance","type":"uint256"},{"internalType":"uint256","name":"needed","type":"uint256"}],"name":"ERC20InsufficientAllowance","type":"error"},{"inputs":[{"internalType":"address","name":"sender","type":"address"},{"internalType":"uint256","name":"balance","type":"uint256"},{"internalType":"uint256","name":"needed","type":"uint256"}],"name":"ERC20InsufficientBalance","type":"error"},{"inputs":[{"internalType":"address","name":"approver","type":"address"}],"name":"ERC20InvalidApprover","type":"error"},{"inputs":[{"internalType":"address","name":"receiver","type":"address"}],"name":"ERC20InvalidReceiver","type":"error"},{"inputs":[{"internalType":"address","name":"sender","type":"address"}],"name":"ERC20InvalidSender","type":"error"},{"inputs":[{"internalType":"address","name":"spender","type":"address"}],"name":"ERC20InvalidSpender","type":"error"},{"inputs":[{"internalType":"address","name":"owner","type":"address"}],"name":"OwnableInvalidOwner","type":"error"},{"inputs":[{"internalType":"address","name":"account","type":"address"}],"name":"OwnableUnauthorizedAccount","type":"error"},{"inputs":[],"name":"ReentrancyGuardReentrantCall","type":"error"},{"anonymous":false,"inputs":[{"indexed":true,"internalType":"address","name":"owner","type":"address"},{"indexed":true,"internalType":"address","name":"spender","type":"address"},{"indexed":false,"internalType":"uint256","name":"value","type":"uint256"}],"name":"Approval","type":"event"},{"anonymous":false,"inputs":[{"indexed":true,"internalType":"address","name":"previousOwner","type":"address"},{"indexed":true,"internalType":"address","name":"newOwner","type":"address"}],"name":"OwnershipTransferred","type":"event"},{"anonymous":false,"inputs":[{"indexed":true,"internalType":"address","name":"user","type":"address"},{"indexed":false,"internalType":"uint256","name":"amount","type":"uint256"}],"name":"RewardsClaimed","type":"event"},{"anonymous":false,"inputs":[{"indexed":false,"internalType":"uint256","name":"amount","type":"uint256"}],"name":"RewardsDeposited","type":"event"},{"anonymous":false,"inputs":[{"indexed":true,"internalType":"address","name":"user","type":"address"},{"indexed":false,"internalType":"uint256","name":"amount","type":"uint256"}],"name":"TokensStaked","type":"event"},{"anonymous":false,"inputs":[{"indexed":true,"internalType":"address","name":"user","type":"address"},{"indexed":false,"internalType":"uint256","name":"amount","type":"uint256"}],"name":"TokensUnstaked","type":"event"},{"anonymous":false,"inputs":[{"indexed":true,"internalType":"address","name":"from","type":"address"},{"indexed":true,"internalType":"address","name":"to","type":"address"},{"indexed":false,"internalType":"uint256","name":"value","type":"uint256"}],"name":"Transfer","type":"event"},{"inputs":[],"name":"MINIMUM_STAKE_DURATION","outputs":[{"internalType":"uint256","name":"","type":"uint256"}],"stateMutability":"view","type":"function"},{"inputs":[],"name":"SECONDS_IN_YEAR","outputs":[{"internalType":"uint256","name":"","type":"uint256"}],"stateMutability":"view","type":"function"},{"inputs":[],"name":"STAKING_REWARD_RATE","outputs":[{"internalType":"uint256","name":"","type":"uint256"}],"stateMutability":"view","type":"function"},{"inputs":[],"name":"TOTAL_SUPPLY","outputs":[{"internalType":"uint256","name":"","type":"uint256"}],"stateMutability":"view","type":"function"},{"inputs":[],"name":"VESTING_CLIFF","outputs":[{"internalType":"uint256","name":"","type":"uint256"}],"stateMutability":"view","type":"function"},{"inputs":[],"name":"VESTING_DURATION","outputs":[{"internalType":"uint256","name":"","type":"uint256"}],"stateMutability":"view","type":"function"},{"inputs":[],"name":"allocation","outputs":[{"internalType":"uint256","name":"platformReserve","type":"uint256"},{"internalType":"uint256","name":"communityRewards","type":"uint256"},{"internalType":"uint256","name":"stakingRewards","type":"uint256"},{"internalType":"uint256","name":"teamAndAdvisors","type":"uint256"},{"internalType":"uint256","name":"publicSale","type":"uint256"}],"stateMutability":"view","type":"function"},{"inputs":[{"internalType":"address","name":"owner","type":"address"},{"internalType":"address","name":"spender","type":"address"}],"name":"allowance","outputs":[{"internalType":"uint256","name":"","type":"uint256"}],"stateMutability":"view","type":"function"},{"inputs":[{"internalType":"address","name":"spender","type":"address"},{"internalType":"uint256","name":"value","type":"uint256"}],"name":"approve","outputs":[{"internalType":"bool","name":"","type":"bool"}],"stateMutability":"nonpayable","type":"function"},{"inputs":[{"internalType":"address","name":"minter","type":"address"}],"name":"authorizeMinter","outputs":[],"stateMutability":"nonpayable","type":"function"},{"inputs":[{"internalType":"address","name":"","type":"address"}],"name":"authorizedMinters","outputs":[{"internalType":"bool","name":"","type":"bool"}],"stateMutability":"view","type":"function"},{"inputs":[{"internalType":"address","name":"account","type":"address"}],"name":"balanceOf","outputs":[{"internalType":"uint256","name":"","type":"uint256"}],"stateMutability":"view","type":"function"},{"inputs":[{"internalType":"uint256","name":"amount","type":"uint256"}],"name":"burn","outputs":[],"stateMutability":"nonpayable","type":"function"},{"inputs":[],"name":"claimRewards","outputs":[],"stateMutability":"nonpayable","type":"function"},{"inputs":[],"name":"claimVestedTokens","outputs":[],"stateMutability":"nonpayable","type":"function"},{"inputs":[],"name":"decimals","outputs":[{"internalType":"uint8","name":"","type":"uint8"}],"stateMutability":"view","type":"function"},{"inputs":[{"internalType":"uint256","name":"amount","type":"uint256"}],"name":"depositRewards","outputs":[],"stateMutability":"nonpayable","type":"function"},{"inputs":[{"internalType":"address","name":"recipient","type":"address"},{"internalType":"uint256","name":"amount","type":"uint256"}],"name":"distributePublicSale","outputs":[],"stateMutability":"nonpayable","type":"function"},{"inputs":[{"internalType":"address","name":"token","type":"address"},{"internalType":"uint256","name":"amount","type":"uint256"}],"name":"emergencyWithdraw","outputs":[],"stateMutability":"nonpayable","type":"function"},{"inputs":[{"internalType":"address","name":"user","type":"address"}],"name":"getStakingInfo","outputs":[{"components":[{"internalType":"uint256","name":"stakedAmount","type":"uint256"},{"internalType":"uint256","name":"stakingStartTime","type":"uint256"},{"internalType":"uint256","name":"lastRewardClaim","type":"uint256"},{"internalType":"uint256","name":"totalRewardsEarned","type":"uint256"}],"internalType":"struct IPFiToken.StakingInfo","name":"","type":"tuple"}],"stateMutability":"view","type":"function"},{"inputs":[],"name":"getTokenAllocation","outputs":[{"components":[{"internalType":"uint256","name":"platformReserve","type":"uint256"},{"internalType":"uint256","name":"communityRewards","type":"uint256"},{"internalType":"uint256","name":"stakingRewards","type":"uint256"},{"internalType":"uint256","name":"teamAndAdvisors","type":"uint256"},{"internalType":"uint256","name":"publicSale","type":"uint256"}],"internalType":"struct IPFiToken.TokenAllocation","name":"","type":"tuple"}],"stateMutability":"view","type":"function"},{"inputs":[{"internalType":"address","name":"beneficiary","type":"address"}],"name":"getVestedAmount","outputs":[{"internalType":"uint256","name":"","type":"uint256"}],"stateMutability":"view","type":"function"},{"inputs":[{"internalType":"address","name":"recipient","type":"address"},{"internalType":"uint256","name":"amount","type":"uint256"}],"name":"mintCommunityRewards","outputs":[],"stateMutability":"nonpayable","type":"function"},{"inputs":[],"name":"name","outputs":[{"internalType":"string","name":"","type":"string"}],"stateMutability":"view","type":"function"},{"inputs":[],"name":"owner","outputs":[{"internalType":"address","name":"","type":"address"}],"stateMutability":"view","type":"function"},{"inputs":[{"internalType":"address","name":"user","type":"address"}],"name":"pendingRewards","outputs":[{"internalType":"uint256","name":"","type":"uint256"}],"stateMutability":"view","type":"function"},{"inputs":[],"name":"renounceOwnership","outputs":[],"stateMutability":"nonpayable","type":"function"},{"inputs":[{"internalType":"address","name":"minter","type":"address"}],"name":"revokeMinter","outputs":[],"stateMutability":"nonpayable","type":"function"},{"inputs":[],"name":"rewardPool","outputs":[{"internalType":"uint256","name":"","type":"uint256"}],"stateMutability":"view","type":"function"},{"inputs":[{"internalType":"bool","name":"enabled","type":"bool"}],"name":"setStakingEnabled","outputs":[],"stateMutability":"nonpayable","type":"function"},{"inputs":[{"internalType":"bool","name":"enabled","type":"bool"}],"name":"setTransfersEnabled","outputs":[],"stateMutability":"nonpayable","type":"function"},{"inputs":[{"internalType":"address","name":"beneficiary","type":"address"},{"internalType":"uint256","name":"amount","type":"uint256"}],"name":"setupVesting","outputs":[],"stateMutability":"nonpayable","type":"function"},{"inputs":[{"internalType":"uint256","name":"amount","type":"uint256"}],"name":"stakeTokens","outputs":[],"stateMutability":"nonpayable","type":"function"},{"inputs":[],"name":"stakingEnabled","outputs":[{"internalType":"bool","name":"","type":"bool"}],"stateMutability":"view","type":"function"},{"inputs":[{"internalType":"address","name":"","type":"address"}],"name":"stakingInfo","outputs":[{"internalType":"uint256","name":"stakedAmount","type":"uint256"},{"internalType":"uint256","name":"stakingStartTime","type":"uint256"},{"internalType":"uint256","name":"lastRewardClaim","type":"uint256"},{"internalType":"uint256","name":"totalRewardsEarned","type":"uint256"}],"stateMutability":"view","type":"function"},{"inputs":[],"name":"symbol","outputs":[{"internalType":"string","name":"","type":"string"}],"stateMutability":"view","type":"function"},{"inputs":[],"name":"totalStaked","outputs":[{"internalType":"uint256","name":"","type":"uint256"}],"stateMutability":"view","type":"function"},{"inputs":[],"name":"totalSupply","outputs":[{"internalType":"uint256","name":"","type":"uint256"}],"stateMutability":"view","type":"function"},{"inputs":[{"internalType":"address","name":"to","type":"address"},{"internalType":"uint256","name":"value","type":"uint256"}],"name":"transfer","outputs":[{"internalType":"bool","name":"","type":"bool"}],"stateMutability":"nonpayable","type":"function"},{"inputs":[{"internalType":"address","name":"from","type":"address"},{"internalType":"address","name":"to","type":"address"},{"internalType":"uint256","name":"value","type":"uint256"}],"name":"transferFrom","outputs":[{"internalType":"bool","name":"","type":"bool"}],"stateMutability":"nonpayable","type":"function"},{"inputs":[{"internalType":"address","name":"newOwner","type":"address"}],"name":"transferOwnership","outputs":[],"stateMutability":"nonpayable","type":"function"},{"inputs":[],"name":"transfersEnabled","outputs":[{"internalType":"bool","name":"","type":"bool"}],"stateMutability":"view","type":"function"},{"inputs":[{"internalType":"uint256","name":"amount","type":"uint256"}],"name":"unstakeTokens","outputs":[],"stateMutability":"nonpayable","type":"function"},{"inputs":[{"internalType":"address","name":"","type":"address"}],"name":"vestedClaimed","outputs":[{"internalType":"uint256","name":"","type":"uint256"}],"stateMutability":"view","type":"function"},{"inputs":[{"internalType":"address","name":"","type":"address"}],"name":"vestingAmount","outputs":[{"internalType":"uint256","name":"","type":"uint256"}],"stateMutability":"view","type":"function"},{"inputs":[{"internalType":"address","name":"","type":"address"}],"name":"vestingStart","outputs":[{"internalType":"uint256","name":"","type":"uint256"}],"stateMutability":"view","type":"function"}],"evm":{"bytecode":{"linkReferences":{},"object":"60406080815234620004a05762000015620004a5565b600a815260206924a82334902a37b5b2b760b11b8183015262000037620004a5565b6004808252634950464960e01b83830152835190936001600160401b03939290918481116200048b576003908154906001948583811c9316801562000480575b8784101462000382578190601f938481116200042a575b508790848311600114620003c357600092620003b7575b505060001982851b1c191690851b1782555b825192868411620003a25787548581811c9116801562000397575b878210146200038257908183869594931162000328575b5086918411600114620002bd57600093620002b1575b505082841b92600019911b1c19161784555b33156200029a5760058054336001600160a01b0319821681179092556001600160a01b03167f8be0079c531659141344cd1fd0a4f28419497f9722a3daafe3b4186f6b6457e0600080a36006556010805461ffff191661010117905583519160a08301908111838210176200028557845260806af8277896582678ac000000928381526acecb8f27f4200f3a00000080848301526aa56fa5b99019a5c80000009081888401526a7c13bc4b2c133c56000000928360608201526a52b7d2dcc80cd2e4000000948591015285600755600855600955600a55600b5560025482810180911162000270576000917fddf252ad1be2c89b69c2b068fc378daa952ba7f163c4a11628f55a4df523b3ef9160025533835282815285832084815401905585519384523393a36009549060085482018092116200025b5750600f5551611ae79081620004dc8239f35b601190634e487b7160e01b6000525260246000fd5b601184634e487b7160e01b6000525260246000fd5b604184634e487b7160e01b6000525260246000fd5b8451631e4fbdf760e01b8152600081860152602490fd5b015191503880620000ff565b9190859450601f1984169289600052876000209360005b89828210620003115750508511620002f6575b50505050811b01845562000111565b01519060f884600019921b161c1916905538808080620002e7565b8385015187558998909601959384019301620002d4565b909192935088600052866000208380870160051c82019289881062000378575b9188918897969594930160051c01915b82811062000368575050620000e9565b6000815587965088910162000358565b9250819262000348565b602289634e487b7160e01b6000525260246000fd5b90607f1690620000d2565b604188634e487b7160e01b6000525260246000fd5b015190503880620000a5565b90879350601f1983169186600052896000209260005b8b828210620004135750508411620003fa575b505050811b018255620000b7565b015160001983871b60f8161c19169055388080620003ec565b8385015186558b97909501949384019301620003d9565b90915084600052876000208480850160051c8201928a861062000476575b918991869594930160051c01915b828110620004665750506200008e565b6000815585945089910162000456565b9250819262000448565b92607f169262000077565b604186634e487b7160e01b6000525260246000fd5b600080fd5b60408051919082016001600160401b03811183821017620004c557604052565b634e487b7160e01b600052604160045260246000fdfe6080604081815260048036101561001557600080fd5b600092833560e01c908163032bbf4f146115ae5750806306fdde03146114ba578063095ea7b3146114115780630c984832146113ce5780630f1a2905146113b257806318160ddd146113935780631cfff51b1461136f57806323b872dd1461127c57806326b9ce131461123e578063313ce5671461122257806331d7a262146111fc578063372500ab1461119157806342966c68146110db5780634b19eff5146110065780634cfc4d3014610fe75780635dcc939114610fc85780635e6329d214610f38578063608e4dd014610df257806363f3dbe514610dd457806366666aa914610db557806370a0823114610d7e578063715018a614610d215780637547c7a314610b8b578063788e9fc914610b53578063817b1cd214610b3457806381a428a014610a2c57806388a17bde146109eb5780638bdf67f21461093b5780638da5cb5b14610912578063902d55a5146108eb57806394eecb501461089157806395ccea67146107b157806395d89b41146106ad5780639763722914610675578063a9059cbb14610644578063aa2fe91b14610606578063aa4704f31461056b578063bce8567e14610534578063bef97c871461050d578063cfbd4885146104cd578063d5a73fdd146104a0578063dd62ed3e14610457578063e0bcbcbc146103c6578063e74f3fbb146102d1578063e9f0e9bb146102af5763f2fde38b1461021d57600080fd5b346102ab5760203660031901126102ab576102366115e2565b9061023f61165c565b6001600160a01b03918216928315610295575050600554826bffffffffffffffffffffffff60a01b821617600555167f8be0079c531659141344cd1fd0a4f28419497f9722a3daafe3b4186f6b6457e08380a380f35b51631e4fbdf760e01b8152908101849052602490fd5b8280fd5b5050346102cd57816003193601126102cd576020905162093a808152f35b5080fd5b508290346102cd57816003193601126102cd576102ec611845565b338252601160205282822054156103905761031b61030933611a3f565b33845260136020528484205490611868565b90811561034d575061034591923384526013602052832061033d828254611822565b905533611965565b600160065580f35b606490602085519162461bcd60e51b8352820152601c60248201527f4e6f20746f6b656e7320617661696c61626c6520746f20636c61696d000000006044820152fd5b606490602084519162461bcd60e51b8352820152601060248201526f04e6f2076657374696e672073657475760841b6044820152fd5b5050346102cd57816003193601126102cd5760a091608082516103e8816116ba565b828152826020820152828482015282606082015201528051610409816116ba565b600754918282526008549060208301918252600954818401908152600a5492606085019384526080600b54950194855282519586525160208601525190840152516060830152516080820152f35b5050346102cd57806003193601126102cd57806020926104756115e2565b61047d6115fd565b6001600160a01b0391821683526001865283832091168252845220549051908152f35b5050346102cd5760203660031901126102cd576020906104c66104c16115e2565b611a3f565b9051908152f35b5050346102cd5760203660031901126102cd576104e86115e2565b6104f061165c565b6001600160a01b03168252600d6020528120805460ff1916905580f35b5050346102cd57816003193601126102cd5760209060ff60105460081c1690519015158152f35b8382346102cd5760203660031901126102cd57358015158091036102cd5761055a61165c565b60ff80196010541691161760105580f35b5050346102cd5760203660031901126102cd578060809261058a6115e2565b816060845161059881611688565b8281528260208201528286820152015260018060a01b03168152600c60205220908051906105c582611688565b825492838352600181015460208401908152606060036002840154938587019485520154940193845282519485525160208501525190830152516060820152f35b5050346102cd5760203660031901126102cd5760209160ff9082906001600160a01b036106316115e2565b168152600d855220541690519015158152f35b5050346102cd57806003193601126102cd5760209061066e6106646115e2565b60243590336116f8565b5160018152f35b5050346102cd5760203660031901126102cd5760209181906001600160a01b0361069d6115e2565b1681526012845220549051908152f35b509190346102cd57816003193601126102cd57805191809380549160019083821c928285169485156107a7575b6020958686108114610794578589529081156107705750600114610718575b610714878761070a828c03836116d6565b5191829182611613565b0390f35b81529295507f8a35acfbc15ff81a39ae7d344fd709f28e8600b4aa8c65c6b64bfe7fe36bd19b5b82841061075d57505050826107149461070a928201019438806106f9565b805486850188015292860192810161073f565b60ff19168887015250505050151560051b830101925061070a8261071438806106f9565b634e487b7160e01b845260228352602484fd5b93607f16936106da565b5090346102ab57806003193601126102ab57826107cc6115e2565b602435936107d861165c565b6001600160a01b03918216908161081a57505081809394819260055416828215610811575bf115610807575080f35b51903d90823e3d90fd5b506108fc6107fd565b6020936044929360055416938651978895869463a9059cbb60e01b865285015260248401525af19081156108885750610851575080f35b6020813d8211610880575b81610869602093836116d6565b810103126102cd57518015150361087d5780f35b80fd5b3d915061085c565b513d84823e3d90fd5b5050346102cd5760203660031901126102cd5760809181906001600160a01b036108b96115e2565b168152600c60205220908154916001810154916003600283015492015492815194855260208501528301526060820152f35b5050346102cd57816003193601126102cd57602090516b033b2e3c9fd0803ce80000008152f35b5050346102cd57816003193601126102cd5760055490516001600160a01b039091168152602090f35b5090346102ab5760203660031901126102ab5781359161095961165c565b338452836020528282852054106109b257508160209161099b7f4e9221f2cca6ca0397acc6004ea0b716798254f5abcf53924fab34f0373e5d4e9430336116f8565b6109a782600f54611822565b600f5551908152a180f35b6020606492519162461bcd60e51b83528201526014602482015273496e73756666696369656e742062616c616e636560601b6044820152fd5b5050346102cd57816003193601126102cd5760a0906007549060085490600954600a5491600b54938151958652602086015284015260608301526080820152f35b5090346102ab57806003193601126102ab57610a466115e2565b9160243592610a5361165c565b600a5490818511610af1576001600160a01b0316808652601160205283862054909290610a9f575083610a8591611868565b600a55835260116020524281842055601260205282205580f35b608490602085519162461bcd60e51b8352820152602660248201527f56657374696e6720616c726561647920736574757020666f722074686973206160448201526564647265737360d01b6064820152fd5b835162461bcd60e51b8152602081850152601760248201527f45786365656473207465616d20616c6c6f636174696f6e0000000000000000006044820152606490fd5b5050346102cd57816003193601126102cd57602090600e549051908152f35b5050346102cd5760203660031901126102cd5760209181906001600160a01b03610b7b6115e2565b1681526013845220549051908152f35b5090346102ab5760209081600319360112610d1d57823592610bab611845565b60ff6010541615610ce6578315610ca557338552848352838286205410610c645750907fb539ca1e5c8d398ddf1c41c30166f33404941683be4683319b57669a93dad4ef91338552600c825280852054610c56575b610c0b8430336116f8565b338552600c8252808520610c20858254611822565b9055338552600c8252808520426001820155600242910155610c4484600e54611822565b600e55519283523392a2600160065580f35b610c5f33611888565b610c00565b82606492519162461bcd60e51b8352820152601a60248201527f496e73756666696369656e7420746f6b656e2062616c616e63650000000000006044820152fd5b82606492519162461bcd60e51b8352820152601d60248201527f416d6f756e74206d7573742062652067726561746572207468616e20300000006044820152fd5b82606492519162461bcd60e51b8352820152601360248201527214dd185ada5b99c81a5cc8191a5cd8589b1959606a1b6044820152fd5b8380fd5b833461087d578060031936011261087d57610d3a61165c565b600580546001600160a01b0319811690915581906001600160a01b03167f8be0079c531659141344cd1fd0a4f28419497f9722a3daafe3b4186f6b6457e08280a380f35b5050346102cd5760203660031901126102cd5760209181906001600160a01b03610da66115e2565b16815280845220549051908152f35b5050346102cd57816003193601126102cd57602090600f549051908152f35b5050346102cd57816003193601126102cd576020905162ed4e008152f35b5090346102ab5760209081600319360112610d1d57823592610e12611845565b338552600c83528185209084825410610ef557600182015462093a808101809111610ee2574210610ea15750907f9845e367b683334e5c0b12d7b81721ac518e649376fa65e3d68324e8f34f26799291610e6b33611888565b610e76858254611868565b9055610e8484600e54611868565b600e55610e928433306116f8565b519283523392a2600160065580f35b606490848085519262461bcd60e51b845283015260248201527f4d696e696d756d207374616b696e67206475726174696f6e206e6f74206d65746044820152fd5b634e487b7160e01b875260118252602487fd5b825162461bcd60e51b8152908101849052601a60248201527f496e73756666696369656e74207374616b656420616d6f756e740000000000006044820152606490fd5b508290346102cd57826003193601126102cd57610f536115e2565b60243591610f5f61165c565b600b5490818411610f85575090610f7a83610f829493611868565b600b55611965565b80f35b606490602087519162461bcd60e51b8352820152601e60248201527f45786365656473207075626c69632073616c6520616c6c6f636174696f6e00006044820152fd5b5050346102cd57816003193601126102cd57602090516301e133808152f35b5050346102cd57816003193601126102cd57602090516303c267008152f35b508290346102cd57826003193601126102cd576110216115e2565b60243591338452600d60205260ff85852054161561109f57600f549081841161105c57509061105483610f829493611868565b600f55611965565b606490602087519162461bcd60e51b8352820152601d60248201527f4578636565647320617661696c61626c652072657761726420706f6f6c0000006044820152fd5b606490602086519162461bcd60e51b83528201526016602482015275139bdd08185d5d1a1bdc9a5e9959081d1bc81b5a5b9d60521b6044820152fd5b509190346102cd5760203660031901126102cd57823590331561117b5733835282602052808320549382851061115057508183943385528460205203818420558160025403600255519081527fddf252ad1be2c89b69c2b068fc378daa952ba7f163c4a11628f55a4df523b3ef60203392a380f35b905163391434e360e21b81523391810191825260208201859052604082018390529081906060010390fd5b51634b637e8f60e11b8152808401839052602490fd5b5090346102ab57826003193601126102ab576111ab611845565b338352600c60205280832054156111c6578261034533611888565b906020606492519162461bcd60e51b8352820152601060248201526f139bc81d1bdad95b9cc81cdd185ad95960821b6044820152fd5b5050346102cd5760203660031901126102cd576020906104c661121d6115e2565b6119c3565b5050346102cd57816003193601126102cd576020905160128152f35b8382346102cd5760203660031901126102cd57358015158091036102cd5761126461165c565b61ff006010549160081b169061ff0019161760105580f35b50823461087d57606036600319011261087d576112976115e2565b61129f6115fd565b916044359360018060a01b0383168083526001602052868320338452602052868320549160001983106112db575b60208861066e8989896116f8565b86831061134357811561132c5733156113155750825260016020908152868320338452815291869020908590039055829061066e876112cd565b8751634a1406b160e11b8152908101849052602490fd5b875163e602df0560e01b8152908101849052602490fd5b8751637dc7a0d960e11b8152339181019182526020820193909352604081018790528291506060010390fd5b5050346102cd57816003193601126102cd5760209060ff6010541690519015158152f35b5050346102cd57816003193601126102cd576020906002549051908152f35b5050346102cd57816003193601126102cd5760209051600c8152f35b5050346102cd5760203660031901126102cd576113e96115e2565b6113f161165c565b6001600160a01b03168252600d6020528120805460ff1916600117905580f35b50346102ab57816003193601126102ab5761142a6115e2565b6024359033156114a3576001600160a01b031691821561148c57508083602095338152600187528181208582528752205582519081527f8c5be1e5ebec7d5bd14f71427d1e84f3dd0314c0f7b2291e5b200ac8c7c3b925843392a35160018152f35b8351634a1406b160e11b8152908101859052602490fd5b835163e602df0560e01b8152808401869052602490fd5b5090346102ab57826003193601126102ab57805191836003549060019082821c9282811680156115a4575b6020958686108214611591575084885290811561156f5750600114611516575b610714868661070a828b03836116d6565b929550600383527fc2575a0e9e593c00f959f8c92f12db2869c3395a3b0502d05e2516446f71f85b5b82841061155c57505050826107149461070a928201019438611505565b805486850188015292860192810161153f565b60ff191687860152505050151560051b830101925061070a8261071438611505565b634e487b7160e01b845260229052602483fd5b93607f16936114e5565b849084346102ab5760203660031901126102ab576020926001600160a01b036115d56115e2565b1681526011845220548152f35b600435906001600160a01b03821682036115f857565b600080fd5b602435906001600160a01b03821682036115f857565b6020808252825181830181905290939260005b82811061164857505060409293506000838284010152601f8019910116010190565b818101860151848201604001528501611626565b6005546001600160a01b0316330361167057565b60405163118cdaa760e01b8152336004820152602490fd5b6080810190811067ffffffffffffffff8211176116a457604052565b634e487b7160e01b600052604160045260246000fd5b60a0810190811067ffffffffffffffff8211176116a457604052565b90601f8019910116810190811067ffffffffffffffff8211176116a457604052565b916001600160a01b0380841692831561180957169283156117f05760ff60105460081c16156117b25760009083825281602052604082205490838210611780575091604082827fddf252ad1be2c89b69c2b068fc378daa952ba7f163c4a11628f55a4df523b3ef958760209652828652038282205586815220818154019055604051908152a3565b60405163391434e360e21b81526001600160a01b03919091166004820152602481019190915260448101839052606490fd5b60405162461bcd60e51b8152602060048201526016602482015275151c985b9cd9995c9cc8185c9948191a5cd8589b195960521b6044820152606490fd5b60405163ec442f0560e01b815260006004820152602490fd5b604051634b637e8f60e11b815260006004820152602490fd5b9190820180921161182f57565b634e487b7160e01b600052601160045260246000fd5b600260065414611856576002600655565b604051633ee5aeb560e01b8152600490fd5b9190820391821161182f57565b8181029291811591840414171561182f57565b6001600160a01b0381166000818152600c60205260409020805491929091801561195f5760028301906118bc825442611868565b90600c8102908104600c0361182f5763bbf81e00916118da91611875565b049081151580611953575b6118f1575b5050505050565b816020936119429260037ffc30cddea38e2bf4d6ea7d3f9ed3b6ad7f176419f4963bd81318067a4aee73fe9761192985600f54611868565b600f5501611938848254611822565b9055429055611965565b604051908152a238808080806118ea565b50600f548211156118e5565b50505050565b6001600160a01b03169081156117f0577fddf252ad1be2c89b69c2b068fc378daa952ba7f163c4a11628f55a4df523b3ef6020826119a7600094600254611822565b60025584845283825260408420818154019055604051908152a3565b6001600160a01b03166000908152600c602052604081208054908115611a3a5760026119f191015442611868565b90600c8102908104600c03611a265763bbf81e0091611a0f91611875565b600f5492500481811115611a21575090565b905090565b634e487b7160e01b83526011600452602483fd5b505090565b6001600160a01b03166000818152601160205260408120548015611aab57611a679042611868565b62ed4e008110611aab576303c267009182821015611a995780611a9593946040925260126020522054611875565b0490565b92835250506012602052604090205490565b5090509056fea264697066735822122040730d2b29ee73fe466e2b26790dbcd1785bf8088bb4778a56dc90ad8af9215464736f6c63430008140033","opcodes":"PUSH1 0x40 PUSH1 0x80 DUP2 MSTORE CALLVALUE PUSH3 0x4A0 JUMPI PUSH3 0x15 PUSH3 0x4A5 JUMP JUMPDEST PUSH1 0xA DUP2 MSTORE PUSH1 0x20 PUSH10 0x24A82334902A37B5B2B7 PUSH1 0xB1 SHL DUP2 DUP4 ADD MSTORE PUSH3 0x37 PUSH3 0x4A5 JUMP JUMPDEST PUSH1 0x4 DUP1 DUP3 MSTORE PUSH4 0x49504649 PUSH1 0xE0 SHL DUP4 DUP4 ADD MSTORE DUP4 MLOAD SWAP1 SWAP4 PUSH1 0x1 PUSH1 0x1 PUSH1 0x40 SHL SUB SWAP4 SWAP3 SWAP1 SWAP2 DUP5 DUP2 GT PUSH3 0x48B JUMPI PUSH1 0x3 SWAP1 DUP2 SLOAD SWAP1 PUSH1 0x1 SWAP5 DUP6 DUP4 DUP2 SHR SWAP4 AND DUP1 ISZERO PUSH3 0x480 JUMPI JUMPDEST DUP8 DUP5 LT EQ PUSH3 0x382 JUMPI DUP2 SWAP1 PUSH1 0x1F SWAP4 DUP5 DUP2 GT PUSH3 0x42A JUMPI JUMPDEST POP DUP8 SWAP1 DUP5 DUP4 GT PUSH1 0x1 EQ PUSH3 0x3C3 JUMPI PUSH1 0x0 SWAP3 PUSH3 0x3B7 JUMPI JUMPDEST POP POP PUSH1 0x0 NOT DUP3 DUP6 SHL SHR NOT AND SWAP1 DUP6 SHL OR DUP3 SSTORE JUMPDEST DUP3 MLOAD SWAP3 DUP7 DUP5 GT PUSH3 0x3A2 JUMPI DUP8 SLOAD DUP6 DUP2 DUP2 SHR SWAP2 AND DUP1 ISZERO PUSH3 0x397 JUMPI JUMPDEST DUP8 DUP3 LT EQ PUSH3 0x382 JUMPI SWAP1 DUP2 DUP4 DUP7 SWAP6 SWAP5 SWAP4 GT PUSH3 0x328 JUMPI JUMPDEST POP DUP7 SWAP2 DUP5 GT PUSH1 0x1 EQ PUSH3 0x2BD JUMPI PUSH1 0x0 SWAP4 PUSH3 0x2B1 JUMPI JUMPDEST POP POP DUP3 DUP5 SHL SWAP3 PUSH1 0x0 NOT SWAP2 SHL SHR NOT AND OR DUP5 SSTORE JUMPDEST CALLER ISZERO PUSH3 0x29A JUMPI PUSH1 0x5 DUP1 SLOAD CALLER PUSH1 0x1 PUSH1 0x1 PUSH1 0xA0 SHL SUB NOT DUP3 AND DUP2 OR SWAP1 SWAP3 SSTORE PUSH1 0x1 PUSH1 0x1 PUSH1 0xA0 SHL SUB AND PUSH32 0x8BE0079C531659141344CD1FD0A4F28419497F9722A3DAAFE3B4186F6B6457E0 PUSH1 0x0 DUP1 LOG3 PUSH1 0x6 SSTORE PUSH1 0x10 DUP1 SLOAD PUSH2 0xFFFF NOT AND PUSH2 0x101 OR SWAP1 SSTORE DUP4 MLOAD SWAP2 PUSH1 0xA0 DUP4 ADD SWAP1 DUP2 GT DUP4 DUP3 LT OR PUSH3 0x285 JUMPI DUP5 MSTORE PUSH1 0x80 PUSH11 0xF8277896582678AC000000 SWAP3 DUP4 DUP2 MSTORE PUSH11 0xCECB8F27F4200F3A000000 DUP1 DUP5 DUP4 ADD MSTORE PUSH11 0xA56FA5B99019A5C8000000 SWAP1 DUP2 DUP9 DUP5 ADD MSTORE PUSH11 0x7C13BC4B2C133C56000000 SWAP3 DUP4 PUSH1 0x60 DUP3 ADD MSTORE PUSH11 0x52B7D2DCC80CD2E4000000 SWAP5 DUP6 SWAP2 ADD MSTORE DUP6 PUSH1 0x7 SSTORE PUSH1 0x8 SSTORE PUSH1 0x9 SSTORE PUSH1 0xA SSTORE PUSH1 0xB SSTORE PUSH1 0x2 SLOAD DUP3 DUP2 ADD DUP1 SWAP2 GT PUSH3 0x270 JUMPI PUSH1 0x0 SWAP2 PUSH32 0xDDF252AD1BE2C89B69C2B068FC378DAA952BA7F163C4A11628F55A4DF523B3EF SWAP2 PUSH1 0x2 SSTORE CALLER DUP4 MSTORE DUP3 DUP2 MSTORE DUP6 DUP4 KECCAK256 DUP5 DUP2 SLOAD ADD SWAP1 SSTORE DUP6 MLOAD SWAP4 DUP5 MSTORE CALLER SWAP4 LOG3 PUSH1 0x9 SLOAD SWAP1 PUSH1 0x8 SLOAD DUP3 ADD DUP1 SWAP3 GT PUSH3 0x25B JUMPI POP PUSH1 0xF SSTORE MLOAD PUSH2 0x1AE7 SWAP1 DUP2 PUSH3 0x4DC DUP3 CODECOPY RETURN JUMPDEST PUSH1 0x11 SWAP1 PUSH4 0x4E487B71 PUSH1 0xE0 SHL PUSH1 0x0 MSTORE MSTORE PUSH1 0x24 PUSH1 0x0 REVERT JUMPDEST PUSH1 0x11 DUP5 PUSH4 0x4E487B71 PUSH1 0xE0 SHL PUSH1 0x0 MSTORE MSTORE PUSH1 0x24 PUSH1 0x0 REVERT JUMPDEST PUSH1 0x41 DUP5 PUSH4 0x4E487B71 PUSH1 0xE0 SHL PUSH1 0x0 MSTORE MSTORE PUSH1 0x24 PUSH1 0x0 REVERT JUMPDEST DUP5 MLOAD PUSH4 0x1E4FBDF7 PUSH1 0xE0 SHL DUP2 MSTORE PUSH1 0x0 DUP2 DUP7 ADD MSTORE PUSH1 0x24 SWAP1 REVERT JUMPDEST ADD MLOAD SWAP2 POP CODESIZE DUP1 PUSH3 0xFF JUMP JUMPDEST SWAP2 SWAP1 DUP6 SWAP5 POP PUSH1 0x1F NOT DUP5 AND SWAP3 DUP10 PUSH1 0x0 MSTORE DUP8 PUSH1 0x0 KECCAK256 SWAP4 PUSH1 0x0 JUMPDEST DUP10 DUP3 DUP3 LT PUSH3 0x311 JUMPI POP POP DUP6 GT PUSH3 0x2F6 JUMPI JUMPDEST POP POP POP POP DUP2 SHL ADD DUP5 SSTORE PUSH3 0x111 JUMP JUMPDEST ADD MLOAD SWAP1 PUSH1 0xF8 DUP5 PUSH1 0x0 NOT SWAP3 SHL AND SHR NOT AND SWAP1 SSTORE CODESIZE DUP1 DUP1 DUP1 PUSH3 0x2E7 JUMP JUMPDEST DUP4 DUP6 ADD MLOAD DUP8 SSTORE DUP10 SWAP9 SWAP1 SWAP7 ADD SWAP6 SWAP4 DUP5 ADD SWAP4 ADD PUSH3 0x2D4 JUMP JUMPDEST SWAP1 SWAP2 SWAP3 SWAP4 POP DUP9 PUSH1 0x0 MSTORE DUP7 PUSH1 0x0 KECCAK256 DUP4 DUP1 DUP8 ADD PUSH1 0x5 SHR DUP3 ADD SWAP3 DUP10 DUP9 LT PUSH3 0x378 JUMPI JUMPDEST SWAP2 DUP9 SWAP2 DUP9 SWAP8 SWAP7 SWAP6 SWAP5 SWAP4 ADD PUSH1 0x5 SHR ADD SWAP2 JUMPDEST DUP3 DUP2 LT PUSH3 0x368 JUMPI POP POP PUSH3 0xE9 JUMP JUMPDEST PUSH1 0x0 DUP2 SSTORE DUP8 SWAP7 POP DUP9 SWAP2 ADD PUSH3 0x358 JUMP JUMPDEST SWAP3 POP DUP2 SWAP3 PUSH3 0x348 JUMP JUMPDEST PUSH1 0x22 DUP10 PUSH4 0x4E487B71 PUSH1 0xE0 SHL PUSH1 0x0 MSTORE MSTORE PUSH1 0x24 PUSH1 0x0 REVERT JUMPDEST SWAP1 PUSH1 0x7F AND SWAP1 PUSH3 0xD2 JUMP JUMPDEST PUSH1 0x41 DUP9 PUSH4 0x4E487B71 PUSH1 0xE0 SHL PUSH1 0x0 MSTORE MSTORE PUSH1 0x24 PUSH1 0x0 REVERT JUMPDEST ADD MLOAD SWAP1 POP CODESIZE DUP1 PUSH3 0xA5 JUMP JUMPDEST SWAP1 DUP8 SWAP4 POP PUSH1 0x1F NOT DUP4 AND SWAP2 DUP7 PUSH1 0x0 MSTORE DUP10 PUSH1 0x0 KECCAK256 SWAP3 PUSH1 0x0 JUMPDEST DUP12 DUP3 DUP3 LT PUSH3 0x413 JUMPI POP POP DUP5 GT PUSH3 0x3FA JUMPI JUMPDEST POP POP POP DUP2 SHL ADD DUP3 SSTORE PUSH3 0xB7 JUMP JUMPDEST ADD MLOAD PUSH1 0x0 NOT DUP4 DUP8 SHL PUSH1 0xF8 AND SHR NOT AND SWAP1 SSTORE CODESIZE DUP1 DUP1 PUSH3 0x3EC JUMP JUMPDEST DUP4 DUP6 ADD MLOAD DUP7 SSTORE DUP12 SWAP8 SWAP1 SWAP6 ADD SWAP5 SWAP4 DUP5 ADD SWAP4 ADD PUSH3 0x3D9 JUMP JUMPDEST SWAP1 SWAP2 POP DUP5 PUSH1 0x0 MSTORE DUP8 PUSH1 0x0 KECCAK256 DUP5 DUP1 DUP6 ADD PUSH1 0x5 SHR DUP3 ADD SWAP3 DUP11 DUP7 LT PUSH3 0x476 JUMPI JUMPDEST SWAP2 DUP10 SWAP2 DUP7 SWAP6 SWAP5 SWAP4 ADD PUSH1 0x5 SHR ADD SWAP2 JUMPDEST DUP3 DUP2 LT PUSH3 0x466 JUMPI POP POP PUSH3 0x8E JUMP JUMPDEST PUSH1 0x0 DUP2 SSTORE DUP6 SWAP5 POP DUP10 SWAP2 ADD PUSH3 0x456 JUMP JUMPDEST SWAP3 POP DUP2 SWAP3 PUSH3 0x448 JUMP JUMPDEST SWAP3 PUSH1 0x7F AND SWAP3 PUSH3 0x77 JUMP JUMPDEST PUSH1 0x41 DUP7 PUSH4 0x4E487B71 PUSH1 0xE0 SHL PUSH1 0x0 MSTORE MSTORE PUSH1 0x24 PUSH1 0x0 REVERT JUMPDEST PUSH1 0x0 DUP1 REVERT JUMPDEST PUSH1 0x40 DUP1 MLOAD SWAP2 SWAP1 DUP3 ADD PUSH1 0x1 PUSH1 0x1 PUSH1 0x40 SHL SUB DUP2 GT DUP4 DUP3 LT OR PUSH3 0x4C5 JUMPI PUSH1 0x40 MSTORE JUMP JUMPDEST PUSH4 0x4E487B71 PUSH1 0xE0 SHL PUSH1 0x0 MSTORE PUSH1 0x41 PUSH1 0x4 MSTORE PUSH1 0x24 PUSH1 0x0 REVERT INVALID PUSH1 0x80 PUSH1 0x40 DUP2 DUP2 MSTORE PUSH1 0x4 DUP1 CALLDATASIZE LT ISZERO PUSH2 0x15 JUMPI PUSH1 0x0 DUP1 REVERT JUMPDEST PUSH1 0x0 SWAP3 DUP4 CALLDATALOAD PUSH1 0xE0 SHR SWAP1 DUP2 PUSH4 0x32BBF4F EQ PUSH2 0x15AE JUMPI POP DUP1 PUSH4 0x6FDDE03 EQ PUSH2 0x14BA JUMPI DUP1 PUSH4 0x95EA7B3 EQ PUSH2 0x1411 JUMPI DUP1 PUSH4 0xC984832 EQ PUSH2 0x13CE JUMPI DUP1 PUSH4 0xF1A2905 EQ PUSH2 0x13B2 JUMPI DUP1 PUSH4 0x18160DDD EQ PUSH2 0x1393 JUMPI DUP1 PUSH4 0x1CFFF51B EQ PUSH2 0x136F JUMPI DUP1 PUSH4 0x23B872DD EQ PUSH2 0x127C JUMPI DUP1 PUSH4 0x26B9CE13 EQ PUSH2 0x123E JUMPI DUP1 PUSH4 0x313CE567 EQ PUSH2 0x1222 JUMPI DUP1 PUSH4 0x31D7A262 EQ PUSH2 0x11FC JUMPI DUP1 PUSH4 0x372500AB EQ PUSH2 0x1191 JUMPI DUP1 PUSH4 0x42966C68 EQ PUSH2 0x10DB JUMPI DUP1 PUSH4 0x4B19EFF5 EQ PUSH2 0x1006 JUMPI DUP1 PUSH4 0x4CFC4D30 EQ PUSH2 0xFE7 JUMPI DUP1 PUSH4 0x5DCC9391 EQ PUSH2 0xFC8 JUMPI DUP1 PUSH4 0x5E6329D2 EQ PUSH2 0xF38 JUMPI DUP1 PUSH4 0x608E4DD0 EQ PUSH2 0xDF2 JUMPI DUP1 PUSH4 0x63F3DBE5 EQ PUSH2 0xDD4 JUMPI DUP1 PUSH4 0x66666AA9 EQ PUSH2 0xDB5 JUMPI DUP1 PUSH4 0x70A08231 EQ PUSH2 0xD7E JUMPI DUP1 PUSH4 0x715018A6 EQ PUSH2 0xD21 JUMPI DUP1 PUSH4 0x7547C7A3 EQ PUSH2 0xB8B JUMPI DUP1 PUSH4 0x788E9FC9 EQ PUSH2 0xB53 JUMPI DUP1 PUSH4 0x817B1CD2 EQ PUSH2 0xB34 JUMPI DUP1 PUSH4 0x81A428A0 EQ PUSH2 0xA2C JUMPI DUP1 PUSH4 0x88A17BDE EQ PUSH2 0x9EB JUMPI DUP1 PUSH4 0x8BDF67F2 EQ PUSH2 0x93B JUMPI DUP1 PUSH4 0x8DA5CB5B EQ PUSH2 0x912 JUMPI DUP1 PUSH4 0x902D55A5 EQ PUSH2 0x8EB JUMPI DUP1 PUSH4 0x94EECB50 EQ PUSH2 0x891 JUMPI DUP1 PUSH4 0x95CCEA67 EQ PUSH2 0x7B1 JUMPI DUP1 PUSH4 0x95D89B41 EQ PUSH2 0x6AD JUMPI DUP1 PUSH4 0x97637229 EQ PUSH2 0x675 JUMPI DUP1 PUSH4 0xA9059CBB EQ PUSH2 0x644 JUMPI DUP1 PUSH4 0xAA2FE91B EQ PUSH2 0x606 JUMPI DUP1 PUSH4 0xAA4704F3 EQ PUSH2 0x56B JUMPI DUP1 PUSH4 0xBCE8567E EQ PUSH2 0x534 JUMPI DUP1 PUSH4 0xBEF97C87 EQ PUSH2 0x50D JUMPI DUP1 PUSH4 0xCFBD4885 EQ PUSH2 0x4CD JUMPI DUP1 PUSH4 0xD5A73FDD EQ PUSH2 0x4A0 JUMPI DUP1 PUSH4 0xDD62ED3E EQ PUSH2 0x457 JUMPI DUP1 PUSH4 0xE0BCBCBC EQ PUSH2 0x3C6 JUMPI DUP1 PUSH4 0xE74F3FBB EQ PUSH2 0x2D1 JUMPI DUP1 PUSH4 0xE9F0E9BB EQ PUSH2 0x2AF JUMPI PUSH4 0xF2FDE38B EQ PUSH2 0x21D JUMPI PUSH1 0x0 DUP1 REVERT JUMPDEST CALLVALUE PUSH2 0x2AB JUMPI PUSH1 0x20 CALLDATASIZE PUSH1 0x3 NOT ADD SLT PUSH2 0x2AB JUMPI PUSH2 0x236 PUSH2 0x15E2 JUMP JUMPDEST SWAP1 PUSH2 0x23F PUSH2 0x165C JUMP JUMPDEST PUSH1 0x1 PUSH1 0x1 PUSH1 0xA0 SHL SUB SWAP2 DUP3 AND SWAP3 DUP4 ISZERO PUSH2 0x295 JUMPI POP POP PUSH1 0x5 SLOAD DUP3 PUSH12 0xFFFFFFFFFFFFFFFFFFFFFFFF PUSH1 0xA0 SHL DUP3 AND OR PUSH1 0x5 SSTORE AND PUSH32 0x8BE0079C531659141344CD1FD0A4F28419497F9722A3DAAFE3B4186F6B6457E0 DUP4 DUP1 LOG3 DUP1 RETURN JUMPDEST MLOAD PUSH4 0x1E4FBDF7 PUSH1 0xE0 SHL DUP2 MSTORE SWAP1 DUP2 ADD DUP5 SWAP1 MSTORE PUSH1 0x24 SWAP1 REVERT JUMPDEST DUP3 DUP1 REVERT JUMPDEST POP POP CALLVALUE PUSH2 0x2CD JUMPI DUP2 PUSH1 0x3 NOT CALLDATASIZE ADD SLT PUSH2 0x2CD JUMPI PUSH1 0x20 SWAP1 MLOAD PUSH3 0x93A80 DUP2 MSTORE RETURN JUMPDEST POP DUP1 REVERT JUMPDEST POP DUP3 SWAP1 CALLVALUE PUSH2 0x2CD JUMPI DUP2 PUSH1 0x3 NOT CALLDATASIZE ADD SLT PUSH2 0x2CD JUMPI PUSH2 0x2EC PUSH2 0x1845 JUMP JUMPDEST CALLER DUP3 MSTORE PUSH1 0x11 PUSH1 0x20 MSTORE DUP3 DUP3 KECCAK256 SLOAD ISZERO PUSH2 0x390 JUMPI PUSH2 0x31B PUSH2 0x309 CALLER PUSH2 0x1A3F JUMP JUMPDEST CALLER DUP5 MSTORE PUSH1 0x13 PUSH1 0x20 MSTORE DUP5 DUP5 KECCAK256 SLOAD SWAP1 PUSH2 0x1868 JUMP JUMPDEST SWAP1 DUP2 ISZERO PUSH2 0x34D JUMPI POP PUSH2 0x345 SWAP2 SWAP3 CALLER DUP5 MSTORE PUSH1 0x13 PUSH1 0x20 MSTORE DUP4 KECCAK256 PUSH2 0x33D DUP3 DUP3 SLOAD PUSH2 0x1822 JUMP JUMPDEST SWAP1 SSTORE CALLER PUSH2 0x1965 JUMP JUMPDEST PUSH1 0x1 PUSH1 0x6 SSTORE DUP1 RETURN JUMPDEST PUSH1 0x64 SWAP1 PUSH1 0x20 DUP6 MLOAD SWAP2 PUSH3 0x461BCD PUSH1 0xE5 SHL DUP4 MSTORE DUP3 ADD MSTORE PUSH1 0x1C PUSH1 0x24 DUP3 ADD MSTORE PUSH32 0x4E6F20746F6B656E7320617661696C61626C6520746F20636C61696D00000000 PUSH1 0x44 DUP3 ADD MSTORE REVERT JUMPDEST PUSH1 0x64 SWAP1 PUSH1 0x20 DUP5 MLOAD SWAP2 PUSH3 0x461BCD PUSH1 0xE5 SHL DUP4 MSTORE DUP3 ADD MSTORE PUSH1 0x10 PUSH1 0x24 DUP3 ADD MSTORE PUSH16 0x4E6F2076657374696E6720736574757 PUSH1 0x84 SHL PUSH1 0x44 DUP3 ADD MSTORE REVERT JUMPDEST POP POP CALLVALUE PUSH2 0x2CD JUMPI DUP2 PUSH1 0x3 NOT CALLDATASIZE ADD SLT PUSH2 0x2CD JUMPI PUSH1 0xA0 SWAP2 PUSH1 0x80 DUP3 MLOAD PUSH2 0x3E8 DUP2 PUSH2 0x16BA JUMP JUMPDEST DUP3 DUP2 MSTORE DUP3 PUSH1 0x20 DUP3 ADD MSTORE DUP3 DUP5 DUP3 ADD MSTORE DUP3 PUSH1 0x60 DUP3 ADD MSTORE ADD MSTORE DUP1 MLOAD PUSH2 0x409 DUP2 PUSH2 0x16BA JUMP JUMPDEST PUSH1 0x7 SLOAD SWAP2 DUP3 DUP3 MSTORE PUSH1 0x8 SLOAD SWAP1 PUSH1 0x20 DUP4 ADD SWAP2 DUP3 MSTORE PUSH1 0x9 SLOAD DUP2 DUP5 ADD SWAP1 DUP2 MSTORE PUSH1 0xA SLOAD SWAP3 PUSH1 0x60 DUP6 ADD SWAP4 DUP5 MSTORE PUSH1 0x80 PUSH1 0xB SLOAD SWAP6 ADD SWAP5 DUP6 MSTORE DUP3 MLOAD SWAP6 DUP7 MSTORE MLOAD PUSH1 0x20 DUP7 ADD MSTORE MLOAD SWAP1 DUP5 ADD MSTORE MLOAD PUSH1 0x60 DUP4 ADD MSTORE MLOAD PUSH1 0x80 DUP3 ADD MSTORE RETURN JUMPDEST POP POP CALLVALUE PUSH2 0x2CD JUMPI DUP1 PUSH1 0x3 NOT CALLDATASIZE ADD SLT PUSH2 0x2CD JUMPI DUP1 PUSH1 0x20 SWAP3 PUSH2 0x475 PUSH2 0x15E2 JUMP JUMPDEST PUSH2 0x47D PUSH2 0x15FD JUMP JUMPDEST PUSH1 0x1 PUSH1 0x1 PUSH1 0xA0 SHL SUB SWAP2 DUP3 AND DUP4 MSTORE PUSH1 0x1 DUP7 MSTORE DUP4 DUP4 KECCAK256 SWAP2 AND DUP3 MSTORE DUP5 MSTORE KECCAK256 SLOAD SWAP1 MLOAD SWAP1 DUP2 MSTORE RETURN JUMPDEST POP POP CALLVALUE PUSH2 0x2CD JUMPI PUSH1 0x20 CALLDATASIZE PUSH1 0x3 NOT ADD SLT PUSH2 0x2CD JUMPI PUSH1 0x20 SWAP1 PUSH2 0x4C6 PUSH2 0x4C1 PUSH2 0x15E2 JUMP JUMPDEST PUSH2 0x1A3F JUMP JUMPDEST SWAP1 MLOAD SWAP1 DUP2 MSTORE RETURN JUMPDEST POP POP CALLVALUE PUSH2 0x2CD JUMPI PUSH1 0x20 CALLDATASIZE PUSH1 0x3 NOT ADD SLT PUSH2 0x2CD JUMPI PUSH2 0x4E8 PUSH2 0x15E2 JUMP JUMPDEST PUSH2 0x4F0 PUSH2 0x165C JUMP JUMPDEST PUSH1 0x1 PUSH1 0x1 PUSH1 0xA0 SHL SUB AND DUP3 MSTORE PUSH1 0xD PUSH1 0x20 MSTORE DUP2 KECCAK256 DUP1 SLOAD PUSH1 0xFF NOT AND SWAP1 SSTORE DUP1 RETURN JUMPDEST POP POP CALLVALUE PUSH2 0x2CD JUMPI DUP2 PUSH1 0x3 NOT CALLDATASIZE ADD SLT PUSH2 0x2CD JUMPI PUSH1 0x20 SWAP1 PUSH1 0xFF PUSH1 0x10 SLOAD PUSH1 0x8 SHR AND SWAP1 MLOAD SWAP1 ISZERO ISZERO DUP2 MSTORE RETURN JUMPDEST DUP4 DUP3 CALLVALUE PUSH2 0x2CD JUMPI PUSH1 0x20 CALLDATASIZE PUSH1 0x3 NOT ADD SLT PUSH2 0x2CD JUMPI CALLDATALOAD DUP1 ISZERO ISZERO DUP1 SWAP2 SUB PUSH2 0x2CD JUMPI PUSH2 0x55A PUSH2 0x165C JUMP JUMPDEST PUSH1 0xFF DUP1 NOT PUSH1 0x10 SLOAD AND SWAP2 AND OR PUSH1 0x10 SSTORE DUP1 RETURN JUMPDEST POP POP CALLVALUE PUSH2 0x2CD JUMPI PUSH1 0x20 CALLDATASIZE PUSH1 0x3 NOT ADD SLT PUSH2 0x2CD JUMPI DUP1 PUSH1 0x80 SWAP3 PUSH2 0x58A PUSH2 0x15E2 JUMP JUMPDEST DUP2 PUSH1 0x60 DUP5 MLOAD PUSH2 0x598 DUP2 PUSH2 0x1688 JUMP JUMPDEST DUP3 DUP2 MSTORE DUP3 PUSH1 0x20 DUP3 ADD MSTORE DUP3 DUP7 DUP3 ADD MSTORE ADD MSTORE PUSH1 0x1 DUP1 PUSH1 0xA0 SHL SUB AND DUP2 MSTORE PUSH1 0xC PUSH1 0x20 MSTORE KECCAK256 SWAP1 DUP1 MLOAD SWAP1 PUSH2 0x5C5 DUP3 PUSH2 0x1688 JUMP JUMPDEST DUP3 SLOAD SWAP3 DUP4 DUP4 MSTORE PUSH1 0x1 DUP2 ADD SLOAD PUSH1 0x20 DUP5 ADD SWAP1 DUP2 MSTORE PUSH1 0x60 PUSH1 0x3 PUSH1 0x2 DUP5 ADD SLOAD SWAP4 DUP6 DUP8 ADD SWAP5 DUP6 MSTORE ADD SLOAD SWAP5 ADD SWAP4 DUP5 MSTORE DUP3 MLOAD SWAP5 DUP6 MSTORE MLOAD PUSH1 0x20 DUP6 ADD MSTORE MLOAD SWAP1 DUP4 ADD MSTORE MLOAD PUSH1 0x60 DUP3 ADD MSTORE RETURN JUMPDEST POP POP CALLVALUE PUSH2 0x2CD JUMPI PUSH1 0x20 CALLDATASIZE PUSH1 0x3 NOT ADD SLT PUSH2 0x2CD JUMPI PUSH1 0x20 SWAP2 PUSH1 0xFF SWAP1 DUP3 SWAP1 PUSH1 0x1 PUSH1 0x1 PUSH1 0xA0 SHL SUB PUSH2 0x631 PUSH2 0x15E2 JUMP JUMPDEST AND DUP2 MSTORE PUSH1 0xD DUP6 MSTORE KECCAK256 SLOAD AND SWAP1 MLOAD SWAP1 ISZERO ISZERO DUP2 MSTORE RETURN JUMPDEST POP POP CALLVALUE PUSH2 0x2CD JUMPI DUP1 PUSH1 0x3 NOT CALLDATASIZE ADD SLT PUSH2 0x2CD JUMPI PUSH1 0x20 SWAP1 PUSH2 0x66E PUSH2 0x664 PUSH2 0x15E2 JUMP JUMPDEST PUSH1 0x24 CALLDATALOAD SWAP1 CALLER PUSH2 0x16F8 JUMP JUMPDEST MLOAD PUSH1 0x1 DUP2 MSTORE RETURN JUMPDEST POP POP CALLVALUE PUSH2 0x2CD JUMPI PUSH1 0x20 CALLDATASIZE PUSH1 0x3 NOT ADD SLT PUSH2 0x2CD JUMPI PUSH1 0x20 SWAP2 DUP2 SWAP1 PUSH1 0x1 PUSH1 0x1 PUSH1 0xA0 SHL SUB PUSH2 0x69D PUSH2 0x15E2 JUMP JUMPDEST AND DUP2 MSTORE PUSH1 0x12 DUP5 MSTORE KECCAK256 SLOAD SWAP1 MLOAD SWAP1 DUP2 MSTORE RETURN JUMPDEST POP SWAP2 SWAP1 CALLVALUE PUSH2 0x2CD JUMPI DUP2 PUSH1 0x3 NOT CALLDATASIZE ADD SLT PUSH2 0x2CD JUMPI DUP1 MLOAD SWAP2 DUP1 SWAP4 DUP1 SLOAD SWAP2 PUSH1 0x1 SWAP1 DUP4 DUP3 SHR SWAP3 DUP3 DUP6 AND SWAP5 DUP6 ISZERO PUSH2 0x7A7 JUMPI JUMPDEST PUSH1 0x20 SWAP6 DUP7 DUP7 LT DUP2 EQ PUSH2 0x794 JUMPI DUP6 DUP10 MSTORE SWAP1 DUP2 ISZERO PUSH2 0x770 JUMPI POP PUSH1 0x1 EQ PUSH2 0x718 JUMPI JUMPDEST PUSH2 0x714 DUP8 DUP8 PUSH2 0x70A DUP3 DUP13 SUB DUP4 PUSH2 0x16D6 JUMP JUMPDEST MLOAD SWAP2 DUP3 SWAP2 DUP3 PUSH2 0x1613 JUMP JUMPDEST SUB SWAP1 RETURN JUMPDEST DUP2 MSTORE SWAP3 SWAP6 POP PUSH32 0x8A35ACFBC15FF81A39AE7D344FD709F28E8600B4AA8C65C6B64BFE7FE36BD19B JUMPDEST DUP3 DUP5 LT PUSH2 0x75D JUMPI POP POP POP DUP3 PUSH2 0x714 SWAP5 PUSH2 0x70A SWAP3 DUP3 ADD ADD SWAP5 CODESIZE DUP1 PUSH2 0x6F9 JUMP JUMPDEST DUP1 SLOAD DUP7 DUP6 ADD DUP9 ADD MSTORE SWAP3 DUP7 ADD SWAP3 DUP2 ADD PUSH2 0x73F JUMP JUMPDEST PUSH1 0xFF NOT AND DUP9 DUP8 ADD MSTORE POP POP POP POP ISZERO ISZERO PUSH1 0x5 SHL DUP4 ADD ADD SWAP3 POP PUSH2 0x70A DUP3 PUSH2 0x714 CODESIZE DUP1 PUSH2 0x6F9 JUMP JUMPDEST PUSH4 0x4E487B71 PUSH1 0xE0 SHL DUP5 MSTORE PUSH1 0x22 DUP4 MSTORE PUSH1 0x24 DUP5 REVERT JUMPDEST SWAP4 PUSH1 0x7F AND SWAP4 PUSH2 0x6DA JUMP JUMPDEST POP SWAP1 CALLVALUE PUSH2 0x2AB JUMPI DUP1 PUSH1 0x3 NOT CALLDATASIZE ADD SLT PUSH2 0x2AB JUMPI DUP3 PUSH2 0x7CC PUSH2 0x15E2 JUMP JUMPDEST PUSH1 0x24 CALLDATALOAD SWAP4 PUSH2 0x7D8 PUSH2 0x165C JUMP JUMPDEST PUSH1 0x1 PUSH1 0x1 PUSH1 0xA0 SHL SUB SWAP2 DUP3 AND SWAP1 DUP2 PUSH2 0x81A JUMPI POP POP DUP2 DUP1 SWAP4 SWAP5 DUP2 SWAP3 PUSH1 0x5 SLOAD AND DUP3 DUP3 ISZERO PUSH2 0x811 JUMPI JUMPDEST CALL ISZERO PUSH2 0x807 JUMPI POP DUP1 RETURN JUMPDEST MLOAD SWAP1 RETURNDATASIZE SWAP1 DUP3 RETURNDATACOPY RETURNDATASIZE SWAP1 REVERT JUMPDEST POP PUSH2 0x8FC PUSH2 0x7FD JUMP JUMPDEST PUSH1 0x20 SWAP4 PUSH1 0x44 SWAP3 SWAP4 PUSH1 0x5 SLOAD AND SWAP4 DUP7 MLOAD SWAP8 DUP9 SWAP6 DUP7 SWAP5 PUSH4 0xA9059CBB PUSH1 0xE0 SHL DUP7 MSTORE DUP6 ADD MSTORE PUSH1 0x24 DUP5 ADD MSTORE GAS CALL SWAP1 DUP2 ISZERO PUSH2 0x888 JUMPI POP PUSH2 0x851 JUMPI POP DUP1 RETURN JUMPDEST PUSH1 0x20 DUP2 RETURNDATASIZE DUP3 GT PUSH2 0x880 JUMPI JUMPDEST DUP2 PUSH2 0x869 PUSH1 0x20 SWAP4 DUP4 PUSH2 0x16D6 JUMP JUMPDEST DUP2 ADD SUB SLT PUSH2 0x2CD JUMPI MLOAD DUP1 ISZERO ISZERO SUB PUSH2 0x87D JUMPI DUP1 RETURN JUMPDEST DUP1 REVERT JUMPDEST RETURNDATASIZE SWAP2 POP PUSH2 0x85C JUMP JUMPDEST MLOAD RETURNDATASIZE DUP5 DUP3 RETURNDATACOPY RETURNDATASIZE SWAP1 REVERT JUMPDEST POP POP CALLVALUE PUSH2 0x2CD JUMPI PUSH1 0x20 CALLDATASIZE PUSH1 0x3 NOT ADD SLT PUSH2 0x2CD JUMPI PUSH1 0x80 SWAP2 DUP2 SWAP1 PUSH1 0x1 PUSH1 0x1 PUSH1 0xA0 SHL SUB PUSH2 0x8B9 PUSH2 0x15E2 JUMP JUMPDEST AND DUP2 MSTORE PUSH1 0xC PUSH1 0x20 MSTORE KECCAK256 SWAP1 DUP2 SLOAD SWAP2 PUSH1 0x1 DUP2 ADD SLOAD SWAP2 PUSH1 0x3 PUSH1 0x2 DUP4 ADD SLOAD SWAP3 ADD SLOAD SWAP3 DUP2 MLOAD SWAP5 DUP6 MSTORE PUSH1 0x20 DUP6 ADD MSTORE DUP4 ADD MSTORE PUSH1 0x60 DUP3 ADD MSTORE RETURN JUMPDEST POP POP CALLVALUE PUSH2 0x2CD JUMPI DUP2 PUSH1 0x3 NOT CALLDATASIZE ADD SLT PUSH2 0x2CD JUMPI PUSH1 0x20 SWAP1 MLOAD PUSH12 0x33B2E3C9FD0803CE8000000 DUP2 MSTORE RETURN JUMPDEST POP POP CALLVALUE PUSH2 0x2CD JUMPI DUP2 PUSH1 0x3 NOT CALLDATASIZE ADD SLT PUSH2 0x2CD JUMPI PUSH1 0x5 SLOAD SWAP1 MLOAD PUSH1 0x1 PUSH1 0x1 PUSH1 0xA0 SHL SUB SWAP1 SWAP2 AND DUP2 MSTORE PUSH1 0x20 SWAP1 RETURN JUMPDEST POP SWAP1 CALLVALUE PUSH2 0x2AB JUMPI PUSH1 0x20 CALLDATASIZE PUSH1 0x3 NOT ADD SLT PUSH2 0x2AB JUMPI DUP2 CALLDATALOAD SWAP2 PUSH2 0x959 PUSH2 0x165C JUMP JUMPDEST CALLER DUP5 MSTORE DUP4 PUSH1 0x20 MSTORE DUP3 DUP3 DUP6 KECCAK256 SLOAD LT PUSH2 0x9B2 JUMPI POP DUP2 PUSH1 0x20 SWAP2 PUSH2 0x99B PUSH32 0x4E9221F2CCA6CA0397ACC6004EA0B716798254F5ABCF53924FAB34F0373E5D4E SWAP5 ADDRESS CALLER PUSH2 0x16F8 JUMP JUMPDEST PUSH2 0x9A7 DUP3 PUSH1 0xF SLOAD PUSH2 0x1822 JUMP JUMPDEST PUSH1 0xF SSTORE MLOAD SWAP1 DUP2 MSTORE LOG1 DUP1 RETURN JUMPDEST PUSH1 0x20 PUSH1 0x64 SWAP3 MLOAD SWAP2 PUSH3 0x461BCD PUSH1 0xE5 SHL DUP4 MSTORE DUP3 ADD MSTORE PUSH1 0x14 PUSH1 0x24 DUP3 ADD MSTORE PUSH20 0x496E73756666696369656E742062616C616E6365 PUSH1 0x60 SHL PUSH1 0x44 DUP3 ADD MSTORE REVERT JUMPDEST POP POP CALLVALUE PUSH2 0x2CD JUMPI DUP2 PUSH1 0x3 NOT CALLDATASIZE ADD SLT PUSH2 0x2CD JUMPI PUSH1 0xA0 SWAP1 PUSH1 0x7 SLOAD SWAP1 PUSH1 0x8 SLOAD SWAP1 PUSH1 0x9 SLOAD PUSH1 0xA SLOAD SWAP2 PUSH1 0xB SLOAD SWAP4 DUP2 MLOAD SWAP6 DUP7 MSTORE PUSH1 0x20 DUP7 ADD MSTORE DUP5 ADD MSTORE PUSH1 0x60 DUP4 ADD MSTORE PUSH1 0x80 DUP3 ADD MSTORE RETURN JUMPDEST POP SWAP1 CALLVALUE PUSH2 0x2AB JUMPI DUP1 PUSH1 0x3 NOT CALLDATASIZE ADD SLT PUSH2 0x2AB JUMPI PUSH2 0xA46 PUSH2 0x15E2 JUMP JUMPDEST SWAP2 PUSH1 0x24 CALLDATALOAD SWAP3 PUSH2 0xA53 PUSH2 0x165C JUMP JUMPDEST PUSH1 0xA SLOAD SWAP1 DUP2 DUP6 GT PUSH2 0xAF1 JUMPI PUSH1 0x1 PUSH1 0x1 PUSH1 0xA0 SHL SUB AND DUP1 DUP7 MSTORE PUSH1 0x11 PUSH1 0x20 MSTORE DUP4 DUP7 KECCAK256 SLOAD SWAP1 SWAP3 SWAP1 PUSH2 0xA9F JUMPI POP DUP4 PUSH2 0xA85 SWAP2 PUSH2 0x1868 JUMP JUMPDEST PUSH1 0xA SSTORE DUP4 MSTORE PUSH1 0x11 PUSH1 0x20 MSTORE TIMESTAMP DUP2 DUP5 KECCAK256 SSTORE PUSH1 0x12 PUSH1 0x20 MSTORE DUP3 KECCAK256 SSTORE DUP1 RETURN JUMPDEST PUSH1 0x84 SWAP1 PUSH1 0x20 DUP6 MLOAD SWAP2 PUSH3 0x461BCD PUSH1 0xE5 SHL DUP4 MSTORE DUP3 ADD MSTORE PUSH1 0x26 PUSH1 0x24 DUP3 ADD MSTORE PUSH32 0x56657374696E6720616C726561647920736574757020666F7220746869732061 PUSH1 0x44 DUP3 ADD MSTORE PUSH6 0x646472657373 PUSH1 0xD0 SHL PUSH1 0x64 DUP3 ADD MSTORE REVERT JUMPDEST DUP4 MLOAD PUSH3 0x461BCD PUSH1 0xE5 SHL DUP2 MSTORE PUSH1 0x20 DUP2 DUP6 ADD MSTORE PUSH1 0x17 PUSH1 0x24 DUP3 ADD MSTORE PUSH32 0x45786365656473207465616D20616C6C6F636174696F6E000000000000000000 PUSH1 0x44 DUP3 ADD MSTORE PUSH1 0x64 SWAP1 REVERT JUMPDEST POP POP CALLVALUE PUSH2 0x2CD JUMPI DUP2 PUSH1 0x3 NOT CALLDATASIZE ADD SLT PUSH2 0x2CD JUMPI PUSH1 0x20 SWAP1 PUSH1 0xE SLOAD SWAP1 MLOAD SWAP1 DUP2 MSTORE RETURN JUMPDEST POP POP CALLVALUE PUSH2 0x2CD JUMPI PUSH1 0x20 CALLDATASIZE PUSH1 0x3 NOT ADD SLT PUSH2 0x2CD JUMPI PUSH1 0x20 SWAP2 DUP2 SWAP1 PUSH1 0x1 PUSH1 0x1 PUSH1 0xA0 SHL SUB PUSH2 0xB7B PUSH2 0x15E2 JUMP JUMPDEST AND DUP2 MSTORE PUSH1 0x13 DUP5 MSTORE KECCAK256 SLOAD SWAP1 MLOAD SWAP1 DUP2 MSTORE RETURN JUMPDEST POP SWAP1 CALLVALUE PUSH2 0x2AB JUMPI PUSH1 0x20 SWAP1 DUP2 PUSH1 0x3 NOT CALLDATASIZE ADD SLT PUSH2 0xD1D JUMPI DUP3 CALLDATALOAD SWAP3 PUSH2 0xBAB PUSH2 0x1845 JUMP JUMPDEST PUSH1 0xFF PUSH1 0x10 SLOAD AND ISZERO PUSH2 0xCE6 JUMPI DUP4 ISZERO PUSH2 0xCA5 JUMPI CALLER DUP6 MSTORE DUP5 DUP4 MSTORE DUP4 DUP3 DUP7 KECCAK256 SLOAD LT PUSH2 0xC64 JUMPI POP SWAP1 PUSH32 0xB539CA1E5C8D398DDF1C41C30166F33404941683BE4683319B57669A93DAD4EF SWAP2 CALLER DUP6 MSTORE PUSH1 0xC DUP3 MSTORE DUP1 DUP6 KECCAK256 SLOAD PUSH2 0xC56 JUMPI JUMPDEST PUSH2 0xC0B DUP5 ADDRESS CALLER PUSH2 0x16F8 JUMP JUMPDEST CALLER DUP6 MSTORE PUSH1 0xC DUP3 MSTORE DUP1 DUP6 KECCAK256 PUSH2 0xC20 DUP6 DUP3 SLOAD PUSH2 0x1822 JUMP JUMPDEST SWAP1 SSTORE CALLER DUP6 MSTORE PUSH1 0xC DUP3 MSTORE DUP1 DUP6 KECCAK256 TIMESTAMP PUSH1 0x1 DUP3 ADD SSTORE PUSH1 0x2 TIMESTAMP SWAP2 ADD SSTORE PUSH2 0xC44 DUP5 PUSH1 0xE SLOAD PUSH2 0x1822 JUMP JUMPDEST PUSH1 0xE SSTORE MLOAD SWAP3 DUP4 MSTORE CALLER SWAP3 LOG2 PUSH1 0x1 PUSH1 0x6 SSTORE DUP1 RETURN JUMPDEST PUSH2 0xC5F CALLER PUSH2 0x1888 JUMP JUMPDEST PUSH2 0xC00 JUMP JUMPDEST DUP3 PUSH1 0x64 SWAP3 MLOAD SWAP2 PUSH3 0x461BCD PUSH1 0xE5 SHL DUP4 MSTORE DUP3 ADD MSTORE PUSH1 0x1A PUSH1 0x24 DUP3 ADD MSTORE PUSH32 0x496E73756666696369656E7420746F6B656E2062616C616E6365000000000000 PUSH1 0x44 DUP3 ADD MSTORE REVERT JUMPDEST DUP3 PUSH1 0x64 SWAP3 MLOAD SWAP2 PUSH3 0x461BCD PUSH1 0xE5 SHL DUP4 MSTORE DUP3 ADD MSTORE PUSH1 0x1D PUSH1 0x24 DUP3 ADD MSTORE PUSH32 0x416D6F756E74206D7573742062652067726561746572207468616E2030000000 PUSH1 0x44 DUP3 ADD MSTORE REVERT JUMPDEST DUP3 PUSH1 0x64 SWAP3 MLOAD SWAP2 PUSH3 0x461BCD PUSH1 0xE5 SHL DUP4 MSTORE DUP3 ADD MSTORE PUSH1 0x13 PUSH1 0x24 DUP3 ADD MSTORE PUSH19 0x14DD185ADA5B99C81A5CC8191A5CD8589B1959 PUSH1 0x6A SHL PUSH1 0x44 DUP3 ADD MSTORE REVERT JUMPDEST DUP4 DUP1 REVERT JUMPDEST DUP4 CALLVALUE PUSH2 0x87D JUMPI DUP1 PUSH1 0x3 NOT CALLDATASIZE ADD SLT PUSH2 0x87D JUMPI PUSH2 0xD3A PUSH2 0x165C JUMP JUMPDEST PUSH1 0x5 DUP1 SLOAD PUSH1 0x1 PUSH1 0x1 PUSH1 0xA0 SHL SUB NOT DUP2 AND SWAP1 SWAP2 SSTORE DUP2 SWAP1 PUSH1 0x1 PUSH1 0x1 PUSH1 0xA0 SHL SUB AND PUSH32 0x8BE0079C531659141344CD1FD0A4F28419497F9722A3DAAFE3B4186F6B6457E0 DUP3 DUP1 LOG3 DUP1 RETURN JUMPDEST POP POP CALLVALUE PUSH2 0x2CD JUMPI PUSH1 0x20 CALLDATASIZE PUSH1 0x3 NOT ADD SLT PUSH2 0x2CD JUMPI PUSH1 0x20 SWAP2 DUP2 SWAP1 PUSH1 0x1 PUSH1 0x1 PUSH1 0xA0 SHL SUB PUSH2 0xDA6 PUSH2 0x15E2 JUMP JUMPDEST AND DUP2 MSTORE DUP1 DUP5 MSTORE KECCAK256 SLOAD SWAP1 MLOAD SWAP1 DUP2 MSTORE RETURN JUMPDEST POP POP CALLVALUE PUSH2 0x2CD JUMPI DUP2 PUSH1 0x3 NOT CALLDATASIZE ADD SLT PUSH2 0x2CD JUMPI PUSH1 0x20 SWAP1 PUSH1 0xF SLOAD SWAP1 MLOAD SWAP1 DUP2 MSTORE RETURN JUMPDEST POP POP CALLVALUE PUSH2 0x2CD JUMPI DUP2 PUSH1 0x3 NOT CALLDATASIZE ADD SLT PUSH2 0x2CD JUMPI PUSH1 0x20 SWAP1 MLOAD PUSH3 0xED4E00 DUP2 MSTORE RETURN JUMPDEST POP SWAP1 CALLVALUE PUSH2 0x2AB JUMPI PUSH1 0x20 SWAP1 DUP2 PUSH1 0x3 NOT CALLDATASIZE ADD SLT PUSH2 0xD1D JUMPI DUP3 CALLDATALOAD SWAP3 PUSH2 0xE12 PUSH2 0x1845 JUMP JUMPDEST CALLER DUP6 MSTORE PUSH1 0xC DUP4 MSTORE DUP2 DUP6 KECCAK256 SWAP1 DUP5 DUP3 SLOAD LT PUSH2 0xEF5 JUMPI PUSH1 0x1 DUP3 ADD SLOAD PUSH3 0x93A80 DUP2 ADD DUP1 SWAP2 GT PUSH2 0xEE2 JUMPI TIMESTAMP LT PUSH2 0xEA1 JUMPI POP SWAP1 PUSH32 0x9845E367B683334E5C0B12D7B81721AC518E649376FA65E3D68324E8F34F2679 SWAP3 SWAP2 PUSH2 0xE6B CALLER PUSH2 0x1888 JUMP JUMPDEST PUSH2 0xE76 DUP6 DUP3 SLOAD PUSH2 0x1868 JUMP JUMPDEST SWAP1 SSTORE PUSH2 0xE84 DUP5 PUSH1 0xE SLOAD PUSH2 0x1868 JUMP JUMPDEST PUSH1 0xE SSTORE PUSH2 0xE92 DUP5 CALLER ADDRESS PUSH2 0x16F8 JUMP JUMPDEST MLOAD SWAP3 DUP4 MSTORE CALLER SWAP3 LOG2 PUSH1 0x1 PUSH1 0x6 SSTORE DUP1 RETURN JUMPDEST PUSH1 0x64 SWAP1 DUP5 DUP1 DUP6 MLOAD SWAP3 PUSH3 0x461BCD PUSH1 0xE5 SHL DUP5 MSTORE DUP4 ADD MSTORE PUSH1 0x24 DUP3 ADD MSTORE PUSH32 0x4D696E696D756D207374616B696E67206475726174696F6E206E6F74206D6574 PUSH1 0x44 DUP3 ADD MSTORE REVERT JUMPDEST PUSH4 0x4E487B71 PUSH1 0xE0 SHL DUP8 MSTORE PUSH1 0x11 DUP3 MSTORE PUSH1 0x24 DUP8 REVERT JUMPDEST DUP3 MLOAD PUSH3 0x461BCD PUSH1 0xE5 SHL DUP2 MSTORE SWAP1 DUP2 ADD DUP5 SWAP1 MSTORE PUSH1 0x1A PUSH1 0x24 DUP3 ADD MSTORE PUSH32 0x496E73756666696369656E74207374616B656420616D6F756E74000000000000 PUSH1 0x44 DUP3 ADD MSTORE PUSH1 0x64 SWAP1 REVERT JUMPDEST POP DUP3 SWAP1 CALLVALUE PUSH2 0x2CD JUMPI DUP3 PUSH1 0x3 NOT CALLDATASIZE ADD SLT PUSH2 0x2CD JUMPI PUSH2 0xF53 PUSH2 0x15E2 JUMP JUMPDEST PUSH1 0x24 CALLDATALOAD SWAP2 PUSH2 0xF5F PUSH2 0x165C JUMP JUMPDEST PUSH1 0xB SLOAD SWAP1 DUP2 DUP5 GT PUSH2 0xF85 JUMPI POP SWAP1 PUSH2 0xF7A DUP4 PUSH2 0xF82 SWAP5 SWAP4 PUSH2 0x1868 JUMP JUMPDEST PUSH1 0xB SSTORE PUSH2 0x1965 JUMP JUMPDEST DUP1 RETURN JUMPDEST PUSH1 0x64 SWAP1 PUSH1 0x20 DUP8 MLOAD SWAP2 PUSH3 0x461BCD PUSH1 0xE5 SHL DUP4 MSTORE DUP3 ADD MSTORE PUSH1 0x1E PUSH1 0x24 DUP3 ADD MSTORE PUSH32 0x45786365656473207075626C69632073616C6520616C6C6F636174696F6E0000 PUSH1 0x44 DUP3 ADD MSTORE REVERT JUMPDEST POP POP CALLVALUE PUSH2 0x2CD JUMPI DUP2 PUSH1 0x3 NOT CALLDATASIZE ADD SLT PUSH2 0x2CD JUMPI PUSH1 0x20 SWAP1 MLOAD PUSH4 0x1E13380 DUP2 MSTORE RETURN JUMPDEST POP POP CALLVALUE PUSH2 0x2CD JUMPI DUP2 PUSH1 0x3 NOT CALLDATASIZE ADD SLT PUSH2 0x2CD JUMPI PUSH1 0x20 SWAP1 MLOAD PUSH4 0x3C26700 DUP2 MSTORE RETURN JUMPDEST POP DUP3 SWAP1 CALLVALUE PUSH2 0x2CD JUMPI DUP3 PUSH1 0x3 NOT CALLDATASIZE ADD SLT PUSH2 0x2CD JUMPI PUSH2 0x1021 PUSH2 0x15E2 JUMP JUMPDEST PUSH1 0x24 CALLDATALOAD SWAP2 CALLER DUP5 MSTORE PUSH1 0xD PUSH1 0x20 MSTORE PUSH1 0xFF DUP6 DUP6 KECCAK256 SLOAD AND ISZERO PUSH2 0x109F JUMPI PUSH1 0xF SLOAD SWAP1 DUP2 DUP5 GT PUSH2 0x105C JUMPI POP SWAP1 PUSH2 0x1054 DUP4 PUSH2 0xF82 SWAP5 SWAP4 PUSH2 0x1868 JUMP JUMPDEST PUSH1 0xF SSTORE PUSH2 0x1965 JUMP JUMPDEST PUSH1 0x64 SWAP1 PUSH1 0x20 DUP8 MLOAD SWAP2 PUSH3 0x461BCD PUSH1 0xE5 SHL DUP4 MSTORE DUP3 ADD MSTORE PUSH1 0x1D PUSH1 0x24 DUP3 ADD MSTORE PUSH32 0x4578636565647320617661696C61626C652072657761726420706F6F6C000000 PUSH1 0x44 DUP3 ADD MSTORE REVERT JUMPDEST PUSH1 0x64 SWAP1 PUSH1 0x20 DUP7 MLOAD SWAP2 PUSH3 0x461BCD PUSH1 0xE5 SHL DUP4 MSTORE DUP3 ADD MSTORE PUSH1 0x16 PUSH1 0x24 DUP3 ADD MSTORE PUSH22 0x139BDD08185D5D1A1BDC9A5E9959081D1BC81B5A5B9D PUSH1 0x52 SHL PUSH1 0x44 DUP3 ADD MSTORE REVERT JUMPDEST POP SWAP2 SWAP1 CALLVALUE PUSH2 0x2CD JUMPI PUSH1 0x20 CALLDATASIZE PUSH1 0x3 NOT ADD SLT PUSH2 0x2CD JUMPI DUP3 CALLDATALOAD SWAP1 CALLER ISZERO PUSH2 0x117B JUMPI CALLER DUP4 MSTORE DUP3 PUSH1 0x20 MSTORE DUP1 DUP4 KECCAK256 SLOAD SWAP4 DUP3 DUP6 LT PUSH2 0x1150 JUMPI POP DUP2 DUP4 SWAP5 CALLER DUP6 MSTORE DUP5 PUSH1 0x20 MSTORE SUB DUP2 DUP5 KECCAK256 SSTORE DUP2 PUSH1 0x2 SLOAD SUB PUSH1 0x2 SSTORE MLOAD SWAP1 DUP2 MSTORE PUSH32 0xDDF252AD1BE2C89B69C2B068FC378DAA952BA7F163C4A11628F55A4DF523B3EF PUSH1 0x20 CALLER SWAP3 LOG3 DUP1 RETURN JUMPDEST SWAP1 MLOAD PUSH4 0x391434E3 PUSH1 0xE2 SHL DUP2 MSTORE CALLER SWAP2 DUP2 ADD SWAP2 DUP3 MSTORE PUSH1 0x20 DUP3 ADD DUP6 SWAP1 MSTORE PUSH1 0x40 DUP3 ADD DUP4 SWAP1 MSTORE SWAP1 DUP2 SWAP1 PUSH1 0x60 ADD SUB SWAP1 REVERT JUMPDEST MLOAD PUSH4 0x4B637E8F PUSH1 0xE1 SHL DUP2 MSTORE DUP1 DUP5 ADD DUP4 SWAP1 MSTORE PUSH1 0x24 SWAP1 REVERT JUMPDEST POP SWAP1 CALLVALUE PUSH2 0x2AB JUMPI DUP3 PUSH1 0x3 NOT CALLDATASIZE ADD SLT PUSH2 0x2AB JUMPI PUSH2 0x11AB PUSH2 0x1845 JUMP JUMPDEST CALLER DUP4 MSTORE PUSH1 0xC PUSH1 0x20 MSTORE DUP1 DUP4 KECCAK256 SLOAD ISZERO PUSH2 0x11C6 JUMPI DUP3 PUSH2 0x345 CALLER PUSH2 0x1888 JUMP JUMPDEST SWAP1 PUSH1 0x20 PUSH1 0x64 SWAP3 MLOAD SWAP2 PUSH3 0x461BCD PUSH1 0xE5 SHL DUP4 MSTORE DUP3 ADD MSTORE PUSH1 0x10 PUSH1 0x24 DUP3 ADD MSTORE PUSH16 0x139BC81D1BDAD95B9CC81CDD185AD959 PUSH1 0x82 SHL PUSH1 0x44 DUP3 ADD MSTORE REVERT JUMPDEST POP POP CALLVALUE PUSH2 0x2CD JUMPI PUSH1 0x20 CALLDATASIZE PUSH1 0x3 NOT ADD SLT PUSH2 0x2CD JUMPI PUSH1 0x20 SWAP1 PUSH2 0x4C6 PUSH2 0x121D PUSH2 0x15E2 JUMP JUMPDEST PUSH2 0x19C3 JUMP JUMPDEST POP POP CALLVALUE PUSH2 0x2CD JUMPI DUP2 PUSH1 0x3 NOT CALLDATASIZE ADD SLT PUSH2 0x2CD JUMPI PUSH1 0x20 SWAP1 MLOAD PUSH1 0x12 DUP2 MSTORE RETURN JUMPDEST DUP4 DUP3 CALLVALUE PUSH2 0x2CD JUMPI PUSH1 0x20 CALLDATASIZE PUSH1 0x3 NOT ADD SLT PUSH2 0x2CD JUMPI CALLDATALOAD DUP1 ISZERO ISZERO DUP1 SWAP2 SUB PUSH2 0x2CD JUMPI PUSH2 0x1264 PUSH2 0x165C JUMP JUMPDEST PUSH2 0xFF00 PUSH1 0x10 SLOAD SWAP2 PUSH1 0x8 SHL AND SWAP1 PUSH2 0xFF00 NOT AND OR PUSH1 0x10 SSTORE DUP1 RETURN JUMPDEST POP DUP3 CALLVALUE PUSH2 0x87D JUMPI PUSH1 0x60 CALLDATASIZE PUSH1 0x3 NOT ADD SLT PUSH2 0x87D JUMPI PUSH2 0x1297 PUSH2 0x15E2 JUMP JUMPDEST PUSH2 0x129F PUSH2 0x15FD JUMP JUMPDEST SWAP2 PUSH1 0x44 CALLDATALOAD SWAP4 PUSH1 0x1 DUP1 PUSH1 0xA0 SHL SUB DUP4 AND DUP1 DUP4 MSTORE PUSH1 0x1 PUSH1 0x20 MSTORE DUP7 DUP4 KECCAK256 CALLER DUP5 MSTORE PUSH1 0x20 MSTORE DUP7 DUP4 KECCAK256 SLOAD SWAP2 PUSH1 0x0 NOT DUP4 LT PUSH2 0x12DB JUMPI JUMPDEST PUSH1 0x20 DUP9 PUSH2 0x66E DUP10 DUP10 DUP10 PUSH2 0x16F8 JUMP JUMPDEST DUP7 DUP4 LT PUSH2 0x1343 JUMPI DUP2 ISZERO PUSH2 0x132C JUMPI CALLER ISZERO PUSH2 0x1315 JUMPI POP DUP3 MSTORE PUSH1 0x1 PUSH1 0x20 SWAP1 DUP2 MSTORE DUP7 DUP4 KECCAK256 CALLER DUP5 MSTORE DUP2 MSTORE SWAP2 DUP7 SWAP1 KECCAK256 SWAP1 DUP6 SWAP1 SUB SWAP1 SSTORE DUP3 SWAP1 PUSH2 0x66E DUP8 PUSH2 0x12CD JUMP JUMPDEST DUP8 MLOAD PUSH4 0x4A1406B1 PUSH1 0xE1 SHL DUP2 MSTORE SWAP1 DUP2 ADD DUP5 SWAP1 MSTORE PUSH1 0x24 SWAP1 REVERT JUMPDEST DUP8 MLOAD PUSH4 0xE602DF05 PUSH1 0xE0 SHL DUP2 MSTORE SWAP1 DUP2 ADD DUP5 SWAP1 MSTORE PUSH1 0x24 SWAP1 REVERT JUMPDEST DUP8 MLOAD PUSH4 0x7DC7A0D9 PUSH1 0xE1 SHL DUP2 MSTORE CALLER SWAP2 DUP2 ADD SWAP2 DUP3 MSTORE PUSH1 0x20 DUP3 ADD SWAP4 SWAP1 SWAP4 MSTORE PUSH1 0x40 DUP2 ADD DUP8 SWAP1 MSTORE DUP3 SWAP2 POP PUSH1 0x60 ADD SUB SWAP1 REVERT JUMPDEST POP POP CALLVALUE PUSH2 0x2CD JUMPI DUP2 PUSH1 0x3 NOT CALLDATASIZE ADD SLT PUSH2 0x2CD JUMPI PUSH1 0x20 SWAP1 PUSH1 0xFF PUSH1 0x10 SLOAD AND SWAP1 MLOAD SWAP1 ISZERO ISZERO DUP2 MSTORE RETURN JUMPDEST POP POP CALLVALUE PUSH2 0x2CD JUMPI DUP2 PUSH1 0x3 NOT CALLDATASIZE ADD SLT PUSH2 0x2CD JUMPI PUSH1 0x20 SWAP1 PUSH1 0x2 SLOAD SWAP1 MLOAD SWAP1 DUP2 MSTORE RETURN JUMPDEST POP POP CALLVALUE PUSH2 0x2CD JUMPI DUP2 PUSH1 0x3 NOT CALLDATASIZE ADD SLT PUSH2 0x2CD JUMPI PUSH1 0x20 SWAP1 MLOAD PUSH1 0xC DUP2 MSTORE RETURN JUMPDEST POP POP CALLVALUE PUSH2 0x2CD JUMPI PUSH1 0x20 CALLDATASIZE PUSH1 0x3 NOT ADD SLT PUSH2 0x2CD JUMPI PUSH2 0x13E9 PUSH2 0x15E2 JUMP JUMPDEST PUSH2 0x13F1 PUSH2 0x165C JUMP JUMPDEST PUSH1 0x1 PUSH1 0x1 PUSH1 0xA0 SHL SUB AND DUP3 MSTORE PUSH1 0xD PUSH1 0x20 MSTORE DUP2 KECCAK256 DUP1 SLOAD PUSH1 0xFF NOT AND PUSH1 0x1 OR SWAP1 SSTORE DUP1 RETURN JUMPDEST POP CALLVALUE PUSH2 0x2AB JUMPI DUP2 PUSH1 0x3 NOT CALLDATASIZE ADD SLT PUSH2 0x2AB JUMPI PUSH2 0x142A PUSH2 0x15E2 JUMP JUMPDEST PUSH1 0x24 CALLDATALOAD SWAP1 CALLER ISZERO PUSH2 0x14A3 JUMPI PUSH1 0x1 PUSH1 0x1 PUSH1 0xA0 SHL SUB AND SWAP2 DUP3 ISZERO PUSH2 0x148C JUMPI POP DUP1 DUP4 PUSH1 0x20 SWAP6 CALLER DUP2 MSTORE PUSH1 0x1 DUP8 MSTORE DUP2 DUP2 KECCAK256 DUP6 DUP3 MSTORE DUP8 MSTORE KECCAK256 SSTORE DUP3 MLOAD SWAP1 DUP2 MSTORE PUSH32 0x8C5BE1E5EBEC7D5BD14F71427D1E84F3DD0314C0F7B2291E5B200AC8C7C3B925 DUP5 CALLER SWAP3 LOG3 MLOAD PUSH1 0x1 DUP2 MSTORE RETURN JUMPDEST DUP4 MLOAD PUSH4 0x4A1406B1 PUSH1 0xE1 SHL DUP2 MSTORE SWAP1 DUP2 ADD DUP6 SWAP1 MSTORE PUSH1 0x24 SWAP1 REVERT JUMPDEST DUP4 MLOAD PUSH4 0xE602DF05 PUSH1 0xE0 SHL DUP2 MSTORE DUP1 DUP5 ADD DUP7 SWAP1 MSTORE PUSH1 0x24 SWAP1 REVERT JUMPDEST POP SWAP1 CALLVALUE PUSH2 0x2AB JUMPI DUP3 PUSH1 0x3 NOT CALLDATASIZE ADD SLT PUSH2 0x2AB JUMPI DUP1 MLOAD SWAP2 DUP4 PUSH1 0x3 SLOAD SWAP1 PUSH1 0x1 SWAP1 DUP3 DUP3 SHR SWAP3 DUP3 DUP2 AND DUP1 ISZERO PUSH2 0x15A4 JUMPI JUMPDEST PUSH1 0x20 SWAP6 DUP7 DUP7 LT DUP3 EQ PUSH2 0x1591 JUMPI POP DUP5 DUP9 MSTORE SWAP1 DUP2 ISZERO PUSH2 0x156F JUMPI POP PUSH1 0x1 EQ PUSH2 0x1516 JUMPI JUMPDEST PUSH2 0x714 DUP7 DUP7 PUSH2 0x70A DUP3 DUP12 SUB DUP4 PUSH2 0x16D6 JUMP JUMPDEST SWAP3 SWAP6 POP PUSH1 0x3 DUP4 MSTORE PUSH32 0xC2575A0E9E593C00F959F8C92F12DB2869C3395A3B0502D05E2516446F71F85B JUMPDEST DUP3 DUP5 LT PUSH2 0x155C JUMPI POP POP POP DUP3 PUSH2 0x714 SWAP5 PUSH2 0x70A SWAP3 DUP3 ADD ADD SWAP5 CODESIZE PUSH2 0x1505 JUMP JUMPDEST DUP1 SLOAD DUP7 DUP6 ADD DUP9 ADD MSTORE SWAP3 DUP7 ADD SWAP3 DUP2 ADD PUSH2 0x153F JUMP JUMPDEST PUSH1 0xFF NOT AND DUP8 DUP7 ADD MSTORE POP POP POP ISZERO ISZERO PUSH1 0x5 SHL DUP4 ADD ADD SWAP3 POP PUSH2 0x70A DUP3 PUSH2 0x714 CODESIZE PUSH2 0x1505 JUMP JUMPDEST PUSH4 0x4E487B71 PUSH1 0xE0 SHL DUP5 MSTORE PUSH1 0x22 SWAP1 MSTORE PUSH1 0x24 DUP4 REVERT JUMPDEST SWAP4 PUSH1 0x7F AND SWAP4 PUSH2 0x14E5 JUMP JUMPDEST DUP5 SWAP1 DUP5 CALLVALUE PUSH2 0x2AB JUMPI PUSH1 0x20 CALLDATASIZE PUSH1 0x3 NOT ADD SLT PUSH2 0x2AB JUMPI PUSH1 0x20 SWAP3 PUSH1 0x1 PUSH1 0x1 PUSH1 0xA0 SHL SUB PUSH2 0x15D5 PUSH2 0x15E2 JUMP JUMPDEST AND DUP2 MSTORE PUSH1 0x11 DUP5 MSTORE KECCAK256 SLOAD DUP2 MSTORE RETURN JUMPDEST PUSH1 0x4 CALLDATALOAD SWAP1 PUSH1 0x1 PUSH1 0x1 PUSH1 0xA0 SHL SUB DUP3 AND DUP3 SUB PUSH2 0x15F8 JUMPI JUMP JUMPDEST PUSH1 0x0 DUP1 REVERT JUMPDEST PUSH1 0x24 CALLDATALOAD SWAP1 PUSH1 0x1 PUSH1 0x1 PUSH1 0xA0 SHL SUB DUP3 AND DUP3 SUB PUSH2 0x15F8 JUMPI JUMP JUMPDEST PUSH1 0x20 DUP1 DUP3 MSTORE DUP3 MLOAD DUP2 DUP4 ADD DUP2 SWAP1 MSTORE SWAP1 SWAP4 SWAP3 PUSH1 0x0 JUMPDEST DUP3 DUP2 LT PUSH2 0x1648 JUMPI POP POP PUSH1 0x40 SWAP3 SWAP4 POP PUSH1 0x0 DUP4 DUP3 DUP5 ADD ADD MSTORE PUSH1 0x1F DUP1 NOT SWAP2 ADD AND ADD ADD SWAP1 JUMP JUMPDEST DUP2 DUP2 ADD DUP7 ADD MLOAD DUP5 DUP3 ADD PUSH1 0x40 ADD MSTORE DUP6 ADD PUSH2 0x1626 JUMP JUMPDEST PUSH1 0x5 SLOAD PUSH1 0x1 PUSH1 0x1 PUSH1 0xA0 SHL SUB AND CALLER SUB PUSH2 0x1670 JUMPI JUMP JUMPDEST PUSH1 0x40 MLOAD PUSH4 0x118CDAA7 PUSH1 0xE0 SHL DUP2 MSTORE CALLER PUSH1 0x4 DUP3 ADD MSTORE PUSH1 0x24 SWAP1 REVERT JUMPDEST PUSH1 0x80 DUP2 ADD SWAP1 DUP2 LT PUSH8 0xFFFFFFFFFFFFFFFF DUP3 GT OR PUSH2 0x16A4 JUMPI PUSH1 0x40 MSTORE JUMP JUMPDEST PUSH4 0x4E487B71 PUSH1 0xE0 SHL PUSH1 0x0 MSTORE PUSH1 0x41 PUSH1 0x4 MSTORE PUSH1 0x24 PUSH1 0x0 REVERT JUMPDEST PUSH1 0xA0 DUP2 ADD SWAP1 DUP2 LT PUSH8 0xFFFFFFFFFFFFFFFF DUP3 GT OR PUSH2 0x16A4 JUMPI PUSH1 0x40 MSTORE JUMP JUMPDEST SWAP1 PUSH1 0x1F DUP1 NOT SWAP2 ADD AND DUP2 ADD SWAP1 DUP2 LT PUSH8 0xFFFFFFFFFFFFFFFF DUP3 GT OR PUSH2 0x16A4 JUMPI PUSH1 0x40 MSTORE JUMP JUMPDEST SWAP2 PUSH1 0x1 PUSH1 0x1 PUSH1 0xA0 SHL SUB DUP1 DUP5 AND SWAP3 DUP4 ISZERO PUSH2 0x1809 JUMPI AND SWAP3 DUP4 ISZERO PUSH2 0x17F0 JUMPI PUSH1 0xFF PUSH1 0x10 SLOAD PUSH1 0x8 SHR AND ISZERO PUSH2 0x17B2 JUMPI PUSH1 0x0 SWAP1 DUP4 DUP3 MSTORE DUP2 PUSH1 0x20 MSTORE PUSH1 0x40 DUP3 KECCAK256 SLOAD SWAP1 DUP4 DUP3 LT PUSH2 0x1780 JUMPI POP SWAP2 PUSH1 0x40 DUP3 DUP3 PUSH32 0xDDF252AD1BE2C89B69C2B068FC378DAA952BA7F163C4A11628F55A4DF523B3EF SWAP6 DUP8 PUSH1 0x20 SWAP7 MSTORE DUP3 DUP7 MSTORE SUB DUP3 DUP3 KECCAK256 SSTORE DUP7 DUP2 MSTORE KECCAK256 DUP2 DUP2 SLOAD ADD SWAP1 SSTORE PUSH1 0x40 MLOAD SWAP1 DUP2 MSTORE LOG3 JUMP JUMPDEST PUSH1 0x40 MLOAD PUSH4 0x391434E3 PUSH1 0xE2 SHL DUP2 MSTORE PUSH1 0x1 PUSH1 0x1 PUSH1 0xA0 SHL SUB SWAP2 SWAP1 SWAP2 AND PUSH1 0x4 DUP3 ADD MSTORE PUSH1 0x24 DUP2 ADD SWAP2 SWAP1 SWAP2 MSTORE PUSH1 0x44 DUP2 ADD DUP4 SWAP1 MSTORE PUSH1 0x64 SWAP1 REVERT JUMPDEST PUSH1 0x40 MLOAD PUSH3 0x461BCD PUSH1 0xE5 SHL DUP2 MSTORE PUSH1 0x20 PUSH1 0x4 DUP3 ADD MSTORE PUSH1 0x16 PUSH1 0x24 DUP3 ADD MSTORE PUSH22 0x151C985B9CD9995C9CC8185C9948191A5CD8589B1959 PUSH1 0x52 SHL PUSH1 0x44 DUP3 ADD MSTORE PUSH1 0x64 SWAP1 REVERT JUMPDEST PUSH1 0x40 MLOAD PUSH4 0xEC442F05 PUSH1 0xE0 SHL DUP2 MSTORE PUSH1 0x0 PUSH1 0x4 DUP3 ADD MSTORE PUSH1 0x24 SWAP1 REVERT JUMPDEST PUSH1 0x40 MLOAD PUSH4 0x4B637E8F PUSH1 0xE1 SHL DUP2 MSTORE PUSH1 0x0 PUSH1 0x4 DUP3 ADD MSTORE PUSH1 0x24 SWAP1 REVERT JUMPDEST SWAP2 SWAP1 DUP3 ADD DUP1 SWAP3 GT PUSH2 0x182F JUMPI JUMP JUMPDEST PUSH4 0x4E487B71 PUSH1 0xE0 SHL PUSH1 0x0 MSTORE PUSH1 0x11 PUSH1 0x4 MSTORE PUSH1 0x24 PUSH1 0x0 REVERT JUMPDEST PUSH1 0x2 PUSH1 0x6 SLOAD EQ PUSH2 0x1856 JUMPI PUSH1 0x2 PUSH1 0x6 SSTORE JUMP JUMPDEST PUSH1 0x40 MLOAD PUSH4 0x3EE5AEB5 PUSH1 0xE0 SHL DUP2 MSTORE PUSH1 0x4 SWAP1 REVERT JUMPDEST SWAP2 SWAP1 DUP3 SUB SWAP2 DUP3 GT PUSH2 0x182F JUMPI JUMP JUMPDEST DUP2 DUP2 MUL SWAP3 SWAP2 DUP2 ISZERO SWAP2 DUP5 DIV EQ OR ISZERO PUSH2 0x182F JUMPI JUMP JUMPDEST PUSH1 0x1 PUSH1 0x1 PUSH1 0xA0 SHL SUB DUP2 AND PUSH1 0x0 DUP2 DUP2 MSTORE PUSH1 0xC PUSH1 0x20 MSTORE PUSH1 0x40 SWAP1 KECCAK256 DUP1 SLOAD SWAP2 SWAP3 SWAP1 SWAP2 DUP1 ISZERO PUSH2 0x195F JUMPI PUSH1 0x2 DUP4 ADD SWAP1 PUSH2 0x18BC DUP3 SLOAD TIMESTAMP PUSH2 0x1868 JUMP JUMPDEST SWAP1 PUSH1 0xC DUP2 MUL SWAP1 DUP2 DIV PUSH1 0xC SUB PUSH2 0x182F JUMPI PUSH4 0xBBF81E00 SWAP2 PUSH2 0x18DA SWAP2 PUSH2 0x1875 JUMP JUMPDEST DIV SWAP1 DUP2 ISZERO ISZERO DUP1 PUSH2 0x1953 JUMPI JUMPDEST PUSH2 0x18F1 JUMPI JUMPDEST POP POP POP POP POP JUMP JUMPDEST DUP2 PUSH1 0x20 SWAP4 PUSH2 0x1942 SWAP3 PUSH1 0x3 PUSH32 0xFC30CDDEA38E2BF4D6EA7D3F9ED3B6AD7F176419F4963BD81318067A4AEE73FE SWAP8 PUSH2 0x1929 DUP6 PUSH1 0xF SLOAD PUSH2 0x1868 JUMP JUMPDEST PUSH1 0xF SSTORE ADD PUSH2 0x1938 DUP5 DUP3 SLOAD PUSH2 0x1822 JUMP JUMPDEST SWAP1 SSTORE TIMESTAMP SWAP1 SSTORE PUSH2 0x1965 JUMP JUMPDEST PUSH1 0x40 MLOAD SWAP1 DUP2 MSTORE LOG2 CODESIZE DUP1 DUP1 DUP1 DUP1 PUSH2 0x18EA JUMP JUMPDEST POP PUSH1 0xF SLOAD DUP3 GT ISZERO PUSH2 0x18E5 JUMP JUMPDEST POP POP POP POP JUMP JUMPDEST PUSH1 0x1 PUSH1 0x1 PUSH1 0xA0 SHL SUB AND SWAP1 DUP2 ISZERO PUSH2 0x17F0 JUMPI PUSH32 0xDDF252AD1BE2C89B69C2B068FC378DAA952BA7F163C4A11628F55A4DF523B3EF PUSH1 0x20 DUP3 PUSH2 0x19A7 PUSH1 0x0 SWAP5 PUSH1 0x2 SLOAD PUSH2 0x1822 JUMP JUMPDEST PUSH1 0x2 SSTORE DUP5 DUP5 MSTORE DUP4 DUP3 MSTORE PUSH1 0x40 DUP5 KECCAK256 DUP2 DUP2 SLOAD ADD SWAP1 SSTORE PUSH1 0x40 MLOAD SWAP1 DUP2 MSTORE LOG3 JUMP JUMPDEST PUSH1 0x1 PUSH1 0x1 PUSH1 0xA0 SHL SUB AND PUSH1 0x0 SWAP1 DUP2 MSTORE PUSH1 0xC PUSH1 0x20 MSTORE PUSH1 0x40 DUP2 KECCAK256 DUP1 SLOAD SWAP1 DUP2 ISZERO PUSH2 0x1A3A JUMPI PUSH1 0x2 PUSH2 0x19F1 SWAP2 ADD SLOAD TIMESTAMP PUSH2 0x1868 JUMP JUMPDEST SWAP1 PUSH1 0xC DUP2 MUL SWAP1 DUP2 DIV PUSH1 0xC SUB PUSH2 0x1A26 JUMPI PUSH4 0xBBF81E00 SWAP2 PUSH2 0x1A0F SWAP2 PUSH2 0x1875 JUMP JUMPDEST PUSH1 0xF SLOAD SWAP3 POP DIV DUP2 DUP2 GT ISZERO PUSH2 0x1A21 JUMPI POP SWAP1 JUMP JUMPDEST SWAP1 POP SWAP1 JUMP JUMPDEST PUSH4 0x4E487B71 PUSH1 0xE0 SHL DUP4 MSTORE PUSH1 0x11 PUSH1 0x4 MSTORE PUSH1 0x24 DUP4 REVERT JUMPDEST POP POP SWAP1 JUMP JUMPDEST PUSH1 0x1 PUSH1 0x1 PUSH1 0xA0 SHL SUB AND PUSH1 0x0 DUP2 DUP2 MSTORE PUSH1 0x11 PUSH1 0x20 MSTORE PUSH1 0x40 DUP2 KECCAK256 SLOAD DUP1 ISZERO PUSH2 0x1AAB JUMPI PUSH2 0x1A67 SWAP1 TIMESTAMP PUSH2 0x1868 JUMP JUMPDEST PUSH3 0xED4E00 DUP2 LT PUSH2 0x1AAB JUMPI PUSH4 0x3C26700 SWAP2 DUP3 DUP3 LT ISZERO PUSH2 0x1A99 JUMPI DUP1 PUSH2 0x1A95 SWAP4 SWAP5 PUSH1 0x40 SWAP3 MSTORE PUSH1 0x12 PUSH1 0x20 MSTORE KECCAK256 SLOAD PUSH2 0x1875 JUMP JUMPDEST DIV SWAP1 JUMP JUMPDEST SWAP3 DUP4 MSTORE POP POP PUSH1 0x12 PUSH1 0x20 MSTORE PUSH1 0x40 SWAP1 KECCAK256 SLOAD SWAP1 JUMP JUMPDEST POP SWAP1 POP SWAP1 JUMP INVALID LOG2 PUSH5 0x6970667358 0x22 SLT KECCAK256 BLOCKHASH PUSH20 0xD2B29EE73FE466E2B26790DBCD1785BF8088BB4 PUSH24 0x8A56DC90AD8AF9215464736F6C6343000814003300000000 "},"methodIdentifiers":{"MINIMUM_STAKE_DURATION()":"e9f0e9bb","SECONDS_IN_YEAR()":"5dcc9391","STAKING_REWARD_RATE()":"0f1a2905","TOTAL_SUPPLY()":"902d55a5","VESTING_CLIFF()":"63f3dbe5","VESTING_DURATION()":"4cfc4d30","allocation()":"88a17bde","allowance(address,address)":"dd62ed3e","approve(address,uint256)":"095ea7b3","authorizeMinter(address)":"0c984832","authorizedMinters(address)":"aa2fe91b","balanceOf(address)":"70a08231","burn(uint256)":"42966c68","claimRewards()":"372500ab","claimVestedTokens()":"e74f3fbb","decimals()":"313ce567","depositRewards(uint256)":"8bdf67f2","distributePublicSale(address,uint256)":"5e6329d2","emergencyWithdraw(address,uint256)":"95ccea67","getStakingInfo(address)":"aa4704f3","getTokenAllocation()":"e0bcbcbc","getVestedAmount(address)":"d5a73fdd","mintCommunityRewards(address,uint256)":"4b19eff5","name()":"06fdde03","owner()":"8da5cb5b","pendingRewards(address)":"31d7a262","renounceOwnership()":"715018a6","revokeMinter(address)":"cfbd4885","rewardPool()":"66666aa9","setStakingEnabled(bool)":"bce8567e","setTransfersEnabled(bool)":"26b9ce13","setupVesting(address,uint256)":"81a428a0","stakeTokens(uint256)":"7547c7a3","stakingEnabled()":"1cfff51b","stakingInfo(address)":"94eecb50","symbol()":"95d89b41","totalStaked()":"817b1cd2","totalSupply()":"18160ddd","transfer(address,uint256)":"a9059cbb","transferFrom(address,address,uint256)":"23b872dd","transferOwnership(address)":"f2fde38b","transfersEnabled()":"bef97c87","unstakeTokens(uint256)":"608e4dd0","vestedClaimed(address)":"788e9fc9","vestingAmount(address)":"97637229","vestingStart(address)":"032bbf4f"}}}}}