{"src/IPFiPlatform.sol":{"IPFiPlatform":{"abi":[{"inputs":[{"internalType":"address","name":"_assetContract","type":"address"}],"stateMutability":"nonpayable","type":"constructor"},{"inputs":[{"internalType":"address","name":"owner","type":"address"}],"name":"OwnableInvalidOwner","type":"error"},{"inputs":[{"internalType":"address","name":"account","type":"address"}],"name":"OwnableUnauthorizedAccount","type":"error"},{"inputs":[],"name":"ReentrancyGuardReentrantCall","type":"error"},{"anonymous":false,"inputs":[{"indexed":true,"internalType":"uint256","name":"assetId","type":"uint256"},{"indexed":true,"internalType":"address","name":"creator","type":"address"},{"indexed":false,"internalType":"string","name":"assetType","type":"string"}],"name":"AssetCreated","type":"event"},{"anonymous":false,"inputs":[{"indexed":true,"internalType":"uint256","name":"assetId","type":"uint256"},{"indexed":true,"internalType":"address","name":"investor","type":"address"},{"indexed":false,"internalType":"uint256","name":"amount","type":"uint256"},{"indexed":false,"internalType":"uint256","name":"shares","type":"uint256"}],"name":"InvestmentMade","type":"event"},{"anonymous":false,"inputs":[{"indexed":true,"internalType":"address","name":"previousOwner","type":"address"},{"indexed":true,"internalType":"address","name":"newOwner","type":"address"}],"name":"OwnershipTransferred","type":"event"},{"anonymous":false,"inputs":[{"indexed":true,"internalType":"uint256","name":"poolId","type":"uint256"},{"indexed":false,"internalType":"string","name":"name","type":"string"},{"indexed":true,"internalType":"address","name":"manager","type":"address"}],"name":"PoolCreated","type":"event"},{"anonymous":false,"inputs":[{"indexed":true,"internalType":"uint256","name":"poolId","type":"uint256"},{"indexed":true,"internalType":"address","name":"investor","type":"address"},{"indexed":false,"internalType":"uint256","name":"amount","type":"uint256"}],"name":"PoolInvestment","type":"event"},{"anonymous":false,"inputs":[{"indexed":true,"internalType":"uint256","name":"assetId","type":"uint256"},{"indexed":false,"internalType":"uint256","name":"amount","type":"uint256"},{"indexed":true,"internalType":"address","name":"creator","type":"address"}],"name":"RoyaltyPaid","type":"event"},{"anonymous":false,"inputs":[{"indexed":true,"internalType":"address","name":"user","type":"address"},{"indexed":false,"internalType":"string","name":"userType","type":"string"}],"name":"UserRegistered","type":"event"},{"inputs":[{"internalType":"string","name":"assetType","type":"string"}],"name":"addAssetType","outputs":[],"stateMutability":"nonpayable","type":"function"},{"inputs":[],"name":"assetContract","outputs":[{"internalType":"contract IPAssetNFT","name":"","type":"address"}],"stateMutability":"view","type":"function"},{"inputs":[{"internalType":"uint256","name":"","type":"uint256"}],"name":"assetTypesList","outputs":[{"internalType":"string","name":"","type":"string"}],"stateMutability":"view","type":"function"},{"inputs":[{"internalType":"string","name":"ipfsHash","type":"string"},{"internalType":"uint256","name":"totalShares","type":"uint256"},{"internalType":"uint256","name":"pricePerShare","type":"uint256"},{"internalType":"string","name":"assetType","type":"string"},{"internalType":"uint256","name":"royaltyRate","type":"uint256"}],"name":"createAsset","outputs":[{"internalType":"uint256","name":"","type":"uint256"}],"stateMutability":"nonpayable","type":"function"},{"inputs":[{"internalType":"string","name":"name","type":"string"},{"internalType":"string","name":"description","type":"string"},{"internalType":"uint256[]","name":"assetIds","type":"uint256[]"},{"internalType":"uint256","name":"totalPoolShares","type":"uint256"},{"internalType":"uint256","name":"pricePerPoolShare","type":"uint256"},{"internalType":"uint256","name":"minimumInvestment","type":"uint256"}],"name":"createInvestmentPool","outputs":[{"internalType":"uint256","name":"","type":"uint256"}],"stateMutability":"nonpayable","type":"function"},{"inputs":[],"name":"getCurrentPoolId","outputs":[{"internalType":"uint256","name":"","type":"uint256"}],"stateMutability":"view","type":"function"},{"inputs":[{"internalType":"uint256","name":"poolId","type":"uint256"}],"name":"getInvestmentPool","outputs":[{"components":[{"internalType":"uint256","name":"poolId","type":"uint256"},{"internalType":"string","name":"name","type":"string"},{"internalType":"string","name":"description","type":"string"},{"internalType":"uint256[]","name":"assetIds","type":"uint256[]"},{"internalType":"uint256","name":"totalPoolShares","type":"uint256"},{"internalType":"uint256","name":"availablePoolShares","type":"uint256"},{"internalType":"uint256","name":"pricePerPoolShare","type":"uint256"},{"internalType":"uint256","name":"minimumInvestment","type":"uint256"},{"internalType":"bool","name":"isActive","type":"bool"},{"internalType":"address","name":"manager","type":"address"},{"internalType":"uint256","name":"createdAt","type":"uint256"}],"internalType":"struct IPFiPlatform.InvestmentPool","name":"","type":"tuple"}],"stateMutability":"view","type":"function"},{"inputs":[],"name":"getPlatformStats","outputs":[{"components":[{"internalType":"uint256","name":"totalAssets","type":"uint256"},{"internalType":"uint256","name":"totalInvestments","type":"uint256"},{"internalType":"uint256","name":"totalValueLocked","type":"uint256"},{"internalType":"uint256","name":"totalRoyaltiesDistributed","type":"uint256"},{"internalType":"uint256","name":"totalUsers","type":"uint256"}],"internalType":"struct IPFiPlatform.PlatformStats","name":"","type":"tuple"}],"stateMutability":"view","type":"function"},{"inputs":[],"name":"getSupportedAssetTypes","outputs":[{"internalType":"string[]","name":"","type":"string[]"}],"stateMutability":"view","type":"function"},{"inputs":[{"internalType":"address","name":"user","type":"address"}],"name":"getUserPools","outputs":[{"internalType":"uint256[]","name":"","type":"uint256[]"}],"stateMutability":"view","type":"function"},{"inputs":[{"internalType":"address","name":"user","type":"address"}],"name":"getUserType","outputs":[{"internalType":"string","name":"","type":"string"}],"stateMutability":"view","type":"function"},{"inputs":[{"internalType":"uint256","name":"assetId","type":"uint256"},{"internalType":"uint256","name":"shareCount","type":"uint256"}],"name":"investInAsset","outputs":[],"stateMutability":"payable","type":"function"},{"inputs":[{"internalType":"uint256","name":"poolId","type":"uint256"},{"internalType":"uint256","name":"shareCount","type":"uint256"}],"name":"investInPool","outputs":[],"stateMutability":"payable","type":"function"},{"inputs":[{"internalType":"uint256","name":"","type":"uint256"}],"name":"investmentPools","outputs":[{"internalType":"uint256","name":"poolId","type":"uint256"},{"internalType":"string","name":"name","type":"string"},{"internalType":"string","name":"description","type":"string"},{"internalType":"uint256","name":"totalPoolShares","type":"uint256"},{"internalType":"uint256","name":"availablePoolShares","type":"uint256"},{"internalType":"uint256","name":"pricePerPoolShare","type":"uint256"},{"internalType":"uint256","name":"minimumInvestment","type":"uint256"},{"internalType":"bool","name":"isActive","type":"bool"},{"internalType":"address","name":"manager","type":"address"},{"internalType":"uint256","name":"createdAt","type":"uint256"}],"stateMutability":"view","type":"function"},{"inputs":[{"internalType":"address","name":"user","type":"address"}],"name":"isUserRegistered","outputs":[{"internalType":"bool","name":"","type":"bool"}],"stateMutability":"view","type":"function"},{"inputs":[],"name":"maximumAssetValue","outputs":[{"internalType":"uint256","name":"","type":"uint256"}],"stateMutability":"view","type":"function"},{"inputs":[],"name":"minimumAssetValue","outputs":[{"internalType":"uint256","name":"","type":"uint256"}],"stateMutability":"view","type":"function"},{"inputs":[],"name":"minimumSharePrice","outputs":[{"internalType":"uint256","name":"","type":"uint256"}],"stateMutability":"view","type":"function"},{"inputs":[],"name":"owner","outputs":[{"internalType":"address","name":"","type":"address"}],"stateMutability":"view","type":"function"},{"inputs":[],"name":"pauseAssetContract","outputs":[],"stateMutability":"nonpayable","type":"function"},{"inputs":[{"internalType":"uint256","name":"assetId","type":"uint256"}],"name":"payRoyalties","outputs":[],"stateMutability":"payable","type":"function"},{"inputs":[{"internalType":"string","name":"userType","type":"string"}],"name":"registerUser","outputs":[],"stateMutability":"nonpayable","type":"function"},{"inputs":[{"internalType":"address","name":"","type":"address"}],"name":"registeredUsers","outputs":[{"internalType":"bool","name":"","type":"bool"}],"stateMutability":"view","type":"function"},{"inputs":[{"internalType":"string","name":"assetType","type":"string"}],"name":"removeAssetType","outputs":[],"stateMutability":"nonpayable","type":"function"},{"inputs":[],"name":"renounceOwnership","outputs":[],"stateMutability":"nonpayable","type":"function"},{"inputs":[],"name":"stats","outputs":[{"internalType":"uint256","name":"totalAssets","type":"uint256"},{"internalType":"uint256","name":"totalInvestments","type":"uint256"},{"internalType":"uint256","name":"totalValueLocked","type":"uint256"},{"internalType":"uint256","name":"totalRoyaltiesDistributed","type":"uint256"},{"internalType":"uint256","name":"totalUsers","type":"uint256"}],"stateMutability":"view","type":"function"},{"inputs":[{"internalType":"string","name":"","type":"string"}],"name":"supportedAssetTypes","outputs":[{"internalType":"bool","name":"","type":"bool"}],"stateMutability":"view","type":"function"},{"inputs":[{"internalType":"address","name":"newOwner","type":"address"}],"name":"transferOwnership","outputs":[],"stateMutability":"nonpayable","type":"function"},{"inputs":[],"name":"unpauseAssetContract","outputs":[],"stateMutability":"nonpayable","type":"function"},{"inputs":[{"internalType":"uint256","name":"newMaximum","type":"uint256"}],"name":"updateMaximumAssetValue","outputs":[],"stateMutability":"nonpayable","type":"function"},{"inputs":[{"internalType":"uint256","name":"newMinimum","type":"uint256"}],"name":"updateMinimumAssetValue","outputs":[],"stateMutability":"nonpayable","type":"function"},{"inputs":[{"internalType":"uint256","name":"newMinimum","type":"uint256"}],"name":"updateMinimumSharePrice","outputs":[],"stateMutability":"nonpayable","type":"function"},{"inputs":[{"internalType":"address","name":"","type":"address"},{"internalType":"uint256","name":"","type":"uint256"}],"name":"userPools","outputs":[{"internalType":"uint256","name":"","type":"uint256"}],"stateMutability":"view","type":"function"},{"inputs":[{"internalType":"address","name":"","type":"address"}],"name":"userTypes","outputs":[{"internalType":"string","name":"","type":"string"}],"stateMutability":"view","type":"function"},{"stateMutability":"payable","type":"receive"}],"evm":{"bytecode":{"linkReferences":{},"object":"60a034620002bd5762002c2738819003601f8101601f191683016001600160401b03811184821017620002c257839282916040528339602092839181010312620002bd57516001600160a01b03919082811690819003620002bd573315620002a45760008054336001600160a01b0319821681178355620002689590929116907f8be0079c531659141344cd1fd0a4f28419497f9722a3daafe3b4186f6b6457e09080a360018055662386f26fc10000600c55683635c9adc5dea00000600d5566038d7ea4c68000600e556080526001600755620000fd620000e0620002d8565b600b81526a191a59da5d185b0b585c9d60aa1b8382015262000333565b620001236200010b620002d8565b60068152651c185d195b9d60d21b8382015262000333565b6200014f62000131620002d8565b600c81526b6d757369632d72696768747360a01b8382015262000333565b620001786200015d620002d8565b600981526874726164656d61726b60b81b8382015262000333565b620001a162000186620002d8565b600981526818dbdc1e5c9a59da1d60ba1b8382015262000333565b620001cd620001af620002d8565b600c81526b1d1c9859194b5cd958dc995d60a21b8382015262000333565b620001f9620001db620002d8565b600c81526b06368617261637465722d69760a41b8382015262000333565b6200022162000207620002d8565b6008815267736f66747761726560c01b8382015262000333565b620002476200022f620002d8565b60068152653232b9b4b3b760d11b8382015262000333565b64189c985b9960da1b6200025a620002d8565b916005835282015262000333565b60405161270390816200052482396080518181816104330152818161078e01528181610a640152818161104b0152818161187801526118c30152f35b604051631e4fbdf760e01b815260006004820152602490fd5b600080fd5b634e487b7160e01b600052604160045260246000fd5b60408051919082016001600160401b03811183821017620002c257604052565b604051908181519160005b8381106200031d5750506020918101600f81520301902090565b6020828201810151868301528593500162000303565b60ff6200034082620002f8565b5416156200034b5750565b6200035681620002f8565b906001918260ff198254161790556010549068010000000000000000821015620002c257828201806010558210156200050d576010600090815281517f1b6847dc741a1b0cd08d278845f9d819d87b734759afb55fe2de5cb82a9ae67290930193602093929091906001600160401b038411620004f95785548381811c91168015620004ee575b86821014620004da57601f81116200048f575b508491601f85116001146200042c57939450849291908362000420575b50501b916000199060031b1c1916179055565b0151925038806200040d565b86815285812093958591601f198316915b888383106200047457505050106200045a575b505050811b019055565b015160001960f88460031b161c1916905538808062000450565b8587015188559096019594850194879350908101906200043d565b868352858320601f860160051c810191878710620004cf575b601f0160051c019084905b828110620004c3575050620003f0565b848155018490620004b3565b9091508190620004a8565b634e487b7160e01b83526022600452602483fd5b90607f1690620003dd565b634e487b7160e01b82526041600452602482fd5b634e487b7160e01b600052603260045260246000fdfe608080604052600436101561001d575b50361561001b57600080fd5b005b600090813560e01c9081630e50cee514611ff4575080631064aa5514611f9e578063136d888314611f0a578063163f752214611ecb5780632c26e42f14611ead5780632f8fa21d14611a7557806331cc615614611987578063396cd833146119695780633ced1b731461194657806340a93370146119235780634b98f225146118a75780634d16304f146118625780635c231aab146117735780636a61d0ea14611554578063704f1b94146113bc5780637077a4e41461135a578063715018a61461130057806387cd273c146112ba578063890d5b64146110165780638b3f863f14610fb95780638da5cb5b14610f925780639816af5814610f43578063a53caaa814610c77578063bceae59d14610b99578063c5f9143a14610b7b578063d80528ae14610b3b578063dcc5bfda14610acb578063ddddd47514610a48578063f2fde38b146109b8578063f44de78f14610639578063f6ac051a146103b4578063f858bbb514610391578063fa39a5ea146101bc5763feaec4c30361000f57346101b957806003193601126101b9576020600e54604051908152f35b80fd5b50346101b95760203660031901126101b9578060409161014083516101e0816120cb565b828152606060208201526060858201526060808201528260808201528260a08201528260c08201528260e0820152826101008201528261012082015201526004358152600860205220600960405191610238836120cb565b80548352604051610257816102508160018601612231565b0382612115565b6020840152604051610270816102508160028601612231565b6040840152610281600382016125a2565b606084015260048101546080840152600581015460a0840152600681015460c0840152600781015460e0840152600881015460ff8116151561010085015260018060a01b039060081c1661012084015201546101408201526040518091602082528051602083015261014061033b61030a602084015161016060408701526101808601906121d2565b610326604085015191601f1992838883030160608901526121d2565b906060850151908683030160808701526122c7565b91608081015160a085015260a081015160c085015260c081015160e085015260e0810151610100850152610100810151151561012085015260018060a01b03610120820151168285015201516101608301520390f35b50346101b95760203660031901126101b9576103ab612311565b600435600c5580f35b506103be366122fb565b90338352602091600983526103d960ff6040862054166124ee565b338452600a83526102506103f66040862060405192838092612231565b838151910120610404612360565b848151910120148015610601575b156105bc57604051636ce12c3560e01b8152600481018390523360248201527f00000000000000000000000000000000000000000000000000000000000000006001600160a01b0316908590608081604481865afa908115610524578291610533575b50511591803b1561052f578160449160405192838092630695e6e360e51b825289600483015288602483015234905af180156105245761050c575b50506104f9575b6104c334600454612543565b600455604051923484528301527ff31343540affa723d26848192c2f28ab76925951531440b6f2e082030394314f60403393a380f35b6105046003546124c9565b6003556104b7565b610515906120e7565b6105205784386104b0565b8480fd5b6040513d84823e3d90fd5b5080fd5b9150506080813d82116105b4575b8161054e60809383612115565b810103126105b057604051608081018181106001600160401b0382111761059a578792606091604052805183528781015188840152604081015160408401520151606082015238610475565b634e487b7160e01b600052604160045260246000fd5b8580fd5b3d9150610541565b60405162461bcd60e51b815260048101849052601960248201527f4f6e6c7920696e766573746f72732063616e20696e76657374000000000000006044820152606490fd5b50338452600a835261025061061f6040862060405192838092612231565b83815191012061062d612384565b84815191012014610412565b50346101b9576003199060a0368301126101b9576001600160401b036004358181116109b45761066d903690600401612151565b6024803594604490813560649586359081116109b057610691903690600401612151565b9533885260209860098a526106ac60ff60408b2054166124ee565b338952600a8a526102506106c960408b2060405192838092612231565b8a81519101206106d761233d565b8b8151910120148015610978575b156109375760ff6040518b81816107028d838151938492016121af565b8101600f8152030190205416156108fd5761071d8382612530565b600c5481106108c557600d541061088d57600e54831061085657926107819260c095928b979561076b6040519a8b998a99633bddf4f360e11b8b523360048c01528a015260c48901906121d2565b94870152850152838203016084840152866121d2565b60843560a48301520381867f00000000000000000000000000000000000000000000000000000000000000006001600160a01b03165af192831561084a578093610818575b50506107d36002546124c9565b600255817f49b4e4c6879cdc85b51d8c3b572252aaa7842edb863810854acb6d2ed420d9626040518581528061080d3395888301906121d2565b0390a3604051908152f35b909192508382813d8311610843575b6108318183612115565b810103126101b95750519038806107c6565b503d610827565b604051903d90823e3d90fd5b5060405162461bcd60e51b8152600481018a905260138187015272536861726520707269636520746f6f206c6f7760681b81860152fd5b5060405162461bcd60e51b8152600481018a905260148187015273082e6e6cae840ecc2d8eaca40e8dede40d0d2ced60631b81860152fd5b60405162461bcd60e51b8152600481018c90526013818901527241737365742076616c756520746f6f206c6f7760681b818801528390fd5b5060405162461bcd60e51b8152600481018a905260168187015275556e737570706f72746564206173736574207479706560501b81860152fd5b5060405162461bcd60e51b8152600481018a9052601f818701527f4f6e6c792063726561746f72732063616e20637265617465206173736574730081860152fd5b50338952600a8a5261025061099660408b2060405192838092612231565b8a81519101206109a4612384565b8b8151910120146106e5565b8780fd5b8280fd5b50346101b95760203660031901126101b9576109d2612030565b6109da612311565b6001600160a01b03908116908115610a2f57600054826bffffffffffffffffffffffff60a01b821617600055167f8be0079c531659141344cd1fd0a4f28419497f9722a3daafe3b4186f6b6457e0600080a380f35b604051631e4fbdf760e01b815260048101849052602490fd5b50346101b957806003193601126101b957610a61612311565b807f00000000000000000000000000000000000000000000000000000000000000006001600160a01b0316803b15610ac857818091600460405180948193631fa5d41d60e11b83525af1801561052457610ab85750f35b610ac1906120e7565b6101b95780f35b50fd5b50346101b95760203660031901126101b95760043560105481101561052f57610af39061204b565b610b2557610250610b0d610b219260405192838092612231565b6040519182916020835260208301906121d2565b0390f35b634e487b7160e01b600052600060045260246000fd5b50346101b957806003193601126101b95760a060025460035460045460055490600654926040519485526020850152604084015260608301526080820152f35b50346101b957806003193601126101b9576020600c54604051908152f35b50346101b95760203660031901126101b9576040906004358152600860205220805460405191610bd783610bd08160018501612231565b0384612115565b604051610beb816102508160028601612231565b60048201549160058101546006820154600783015491610c396009600886015495015495610c2b6040519a8b9a8b526101408060208d01528b01906121d2565b9089820360408b01526121d2565b6060880196909652608087015260a086015260c085015260ff8116151560e085015260081c6001600160a01b03166101008401526101208301520390f35b50610c81366122fb565b90338352602060098152610c9b60ff6040862054166124ee565b818452600881526040842060ff60088201541615610f09578315610eb95760058101805494858111610e7657610cd5600684015482612530565b95863410610e3a5760078401543410610df5576003939291610cf691612550565b905501548015610de1576000198101818504828211875b848110610d8f575050505050823411610d5e575b7fe65c87d24b55df0aa53a13d9f22bf2e232dbaf96a08cc11bea54425dd121cc7490610d4f84600454612543565b6004556040519384523393a380f35b83808080610d6c8734612550565b818115610d86575b3390f1610d21576040513d85823e3d90fd5b506108fc610d74565b81610dcd57838114610daa575b610da5906124c9565b610d0d565b919050610da5610dc5610dbf85600094612530565b89612550565b929050610d9c565b634e487b7160e01b89526011600452602489fd5b634e487b7160e01b85526012600452602485fd5b60405162461bcd60e51b815260048101869052601860248201527f496e766573746d656e742062656c6f77206d696e696d756d00000000000000006044820152606490fd5b60405162461bcd60e51b8152600481018690526014602482015273125b9cdd59999a58da595b9d081c185e5b595b9d60621b6044820152606490fd5b6064846040519062461bcd60e51b825280600483015260248201527f4e6f7420656e6f75676820706f6f6c2073686172657320617661696c61626c656044820152fd5b60405162461bcd60e51b815260048101839052602260248201527f536861726520636f756e74206d7573742062652067726561746572207468616e604482015261020360f41b6064820152608490fd5b60405162461bcd60e51b8152600481018390526012602482015271506f6f6c206973206e6f742061637469766560701b6044820152606490fd5b50346101b95760203660031901126101b957610b2190610f7e906040906001600160a01b03610f70612030565b168152600b602052206125a2565b6040519182916020835260208301906122c7565b50346101b957806003193601126101b957546040516001600160a01b039091168152602090f35b50346101b95760203660031901126101b957610b219061025090610b0d906040906001600160a01b03610fea612030565b16808252600960205261100260ff84842054166124ee565b8152600a6020522060405192838092612231565b5060208060031936011261052f57600435341561126757604051631d591eb760e31b8152600481018290526001600160a01b037f00000000000000000000000000000000000000000000000000000000000000008116918581602481865afa90811561125c578691611163575b5051163303611112578084913b1561052f57816024916040519283809263b07cb36560e01b825287600483015234905af18015610524576110fe575b50506110cd34600554612543565b6005557f2e80f0d7d411757d7a487139cd9acf9c64e948061a9e3d4d5bc76ab6a71848e9604051923484523393a380f35b611107906120e7565b6109b45782386110bf565b60405162461bcd60e51b8152600481018490526024808201527f4f6e6c792061737365742063726561746f722063616e2070617920726f79616c6044820152637469657360e01b6064820152608490fd5b90503d8087833e6111748183612115565b81019085818303126112585780516001600160401b0391828211611250570190610140928383820312611250576040519384018481108382111761059a57604052825185811681036112545784528783015182811161125457816111d991850161255d565b8885015260408301516040850152606083015160608501526080830151608085015260a083015160a085015260c083015180151581036112545760c085015260e08301519182116112505761122f91830161255d565b60e08301526101008082015190830152610120809101519082015238611083565b8880fd5b8980fd5b8680fd5b6040513d88823e3d90fd5b60405162461bcd60e51b815260048101839052602560248201527f526f79616c747920616d6f756e74206d75737420626520677265617465722074604482015264068616e20360dc1b6064820152608490fd5b50346101b95760203660031901126101b957610b219061025090610b0d906040906001600160a01b036112eb612030565b168152600a6020522060405192838092612231565b50346101b957806003193601126101b957611319612311565b600080546001600160a01b0319811682556001600160a01b03167f8be0079c531659141344cd1fd0a4f28419497f9722a3daafe3b4186f6b6457e08280a380f35b50346101b95760203660031901126101b957600435906001600160401b0382116101b957602060ff6113a6826113933660048801612151565b81604051938285809451938492016121af565b8101600f81520301902054166040519015158152f35b50346101b95760208060031936011261052f576004356001600160401b0381116109b4576113ee903690600401612151565b3383526009825260ff60408420541661150f57805182820190812061141161233d565b848151910120149081156114f4575b81156114d9575b50156114a05761149a7f48cac28ad4dc618e15f4c2dd5e97751182f166de97b25618318b2112aa951a2f913385526009845260408520600160ff19825416179055600a84526114798160408720612402565b6114846006546124c9565b60065560405191829185835233958301906121d2565b0390a280f35b60405162461bcd60e51b8152600481018390526011602482015270496e76616c69642075736572207479706560781b6044820152606490fd5b9050815190206114e7612384565b8381519101201438611427565b905081518120611502612360565b8481519101201490611420565b60405162461bcd60e51b815260048101839052601760248201527f5573657220616c726561647920726567697374657265640000000000000000006044820152606490fd5b50346101b95760208060031936011261052f576004356001600160401b0381116109b457611586903690600401612151565b9061158f612311565b6040519160ff8151938381818501966115a981838a6121af565b8101600f81520301902054161561172e57604051828183516115cc8183896121af565b8101600f81520301902060ff198154169055835b6010805480831015611725576102506116086115fb8561204b565b5060405192838092612231565b8581519101208451872014611627575050611622906124c9565b6115e0565b9394509260001992508281019081116117115761164661164d9161204b565b509161204b565b6116fd579061165b916125f1565b815480156116e957019161166e8361204b565b9190916116d55790849161168282546121f7565b9081611691575b505050505580f35b601f908183116001146116b05750505060009150555b82388080611689565b83916116ce916000949587528620940160051c8401600185016123a4565b55556116a7565b634e487b7160e01b85526004859052602485fd5b634e487b7160e01b85526031600452602485fd5b634e487b7160e01b86526004869052602486fd5b634e487b7160e01b86526011600452602486fd5b50505050505080f35b60405162461bcd60e51b815260048101839052601860248201527f41737365742074797065206e6f7420737570706f7274656400000000000000006044820152606490fd5b50346101b95760203660031901126101b9576004356001600160401b03811161052f576117a4903690600401612151565b6117ac612311565b60405160ff825191602081818601946117c68183886121af565b8101600f8152030190205416156117db578280f35b60206117f2916040518093819286519283916121af565b8101600f815203019020600160ff19825416179055601054600160401b81101561184e57806001611826920160105561204b565b61183a579061183491612402565b38808280f35b634e487b7160e01b83526004839052602483fd5b634e487b7160e01b83526041600452602483fd5b50346101b957806003193601126101b9576040517f00000000000000000000000000000000000000000000000000000000000000006001600160a01b03168152602090f35b50346101b957806003193601126101b9576118c0612311565b807f00000000000000000000000000000000000000000000000000000000000000006001600160a01b0316803b15610ac8578190600460405180948193638456cb5960e01b83525af1801561052457611917575080f35b611920906120e7565b80f35b50346101b95760203660031901126101b95761193d612311565b600435600d5580f35b50346101b95760203660031901126101b957611960612311565b600435600e5580f35b50346101b957806003193601126101b9576020600d54604051908152f35b50346101b957806003193601126101b9576010546119a481612198565b906119b26040519283612115565b8082526010835260209283830191817f1b6847dc741a1b0cd08d278845f9d819d87b734759afb55fe2de5cb82a9ae672845b838310611a495750505050604051928484019085855251809152604084019460408260051b8601019392955b828710611a1d5785850386f35b909192938280611a39600193603f198a820301865288516121d2565b9601920196019592919092611a10565b600188819260409a99979a51611a63816102508189612231565b815201920192019190969395966119e4565b50346101b95760c03660031901126101b9576001600160401b036004358181116109b457611aa7903690600401612151565b602435828111611ea957611abf903690600401612151565b91604435818111610520573660238201121561052057806004013590611ae482612198565b91611af26040519384612115565b8083526024602084019160051b830101913683116109b057602401905b828210611e995750505060643591608435913387526009602052611b3960ff6040892054166124ee565b845115611e5457805115611e03578315611db2578215611d5e57611be260075496611b63886124c9565b60075560405194611b73866120cb565b8886526020860196888852604087019283526060870194855280608088015260a087015260c086015260a43560e0860152600161010086015233610120860152426101408601528789526008602052611bd860408a2096865188555160018801612402565b5160028601612402565b518051918211611d4a57600160401b8211611d4a57602060038501918254848455808510611d30575b500190875260208720875b838110611d1c57505050506101408160806009930151600485015560a0810151600585015560c0810151600685015560e08101516007850155600884016101008201511515815460ff610100600160a81b0361012086015160081b169216906affffffffffffffffffffff60a81b16171790550151910155338352600b60205260408320805493600160401b851015611d08575083611cbc916001602096018155612098565b81549060031b9084821b91600019901b1916179055817f7eb8d63c0f8c2fb1b61dd0947e2f9eb707c7d44ec5d65a0761976cbc070197a56040518581528061080d3395888301906121d2565b634e487b7160e01b81526041600452602490fd5b600190602084519401938184015501611c16565b838a52828a20611d449181019086016123a4565b38611c0b565b634e487b7160e01b87526041600452602487fd5b60405162461bcd60e51b815260206004820152602660248201527f507269636520706572207368617265206d75737420626520677265617465722060448201526507468616e20360d41b6064820152608490fd5b60405162461bcd60e51b815260206004820152602360248201527f546f74616c20736861726573206d75737420626520677265617465722074686160448201526206e20360ec1b6064820152608490fd5b60405162461bcd60e51b8152602060048201526024808201527f506f6f6c206d75737420636f6e7461696e206174206c65617374206f6e6520616044820152631cdcd95d60e21b6064820152608490fd5b60405162461bcd60e51b815260206004820152601960248201527f506f6f6c206e616d652063616e6e6f7420626520656d707479000000000000006044820152606490fd5b8135815260209182019101611b0f565b8380fd5b50346101b957806003193601126101b9576020600754604051908152f35b50346101b95760203660031901126101b95760209060ff906040906001600160a01b03611ef6612030565b168152600984522054166040519015158152f35b50346101b957806003193601126101b9576080604051611f29816120b0565b828152826020820152826040820152826060820152015260a0604051611f4e816120b0565b600254908181526003546020820190815260045460408301908152600554916060840192835260806006549401938452604051948552516020850152516040840152516060830152516080820152f35b50346101b95760403660031901126101b957611fb8612030565b6001600160a01b03168152600b60205260408120805460243592908310156101b9576020611fe68484612098565b90546040519160031b1c8152f35b90503461052f57602036600319011261052f5760209160ff906040906001600160a01b03612020612030565b1681526009855220541615158152f35b600435906001600160a01b038216820361204657565b600080fd5b6010548110156120825760106000527f1b6847dc741a1b0cd08d278845f9d819d87b734759afb55fe2de5cb82a9ae6720190600090565b634e487b7160e01b600052603260045260246000fd5b80548210156120825760005260206000200190600090565b60a081019081106001600160401b0382111761059a57604052565b61016081019081106001600160401b0382111761059a57604052565b6001600160401b03811161059a57604052565b604081019081106001600160401b0382111761059a57604052565b90601f801991011681019081106001600160401b0382111761059a57604052565b6001600160401b03811161059a57601f01601f191660200190565b81601f820112156120465780359061216882612136565b926121766040519485612115565b8284526020838301011161204657816000926020809301838601378301015290565b6001600160401b03811161059a5760051b60200190565b60005b8381106121c25750506000910152565b81810151838201526020016121b2565b906020916121eb815180928185528580860191016121af565b601f01601f1916010190565b90600182811c92168015612227575b602083101461221157565b634e487b7160e01b600052602260045260246000fd5b91607f1691612206565b9060009291805491612242836121f7565b9182825260019384811690816000146122a45750600114612264575b50505050565b90919394506000526020928360002092846000945b83861061229057505050500101903880808061225e565b805485870183015294019385908201612279565b9294505050602093945060ff191683830152151560051b0101903880808061225e565b90815180825260208080930193019160005b8281106122e7575050505090565b8351855293810193928101926001016122d9565b6040906003190112612046576004359060243590565b6000546001600160a01b0316330361232557565b60405163118cdaa760e01b8152336004820152602490fd5b6040519061234a826120fa565b600782526631b932b0ba37b960c91b6020830152565b6040519061236d826120fa565b600882526734b73b32b9ba37b960c11b6020830152565b60405190612391826120fa565b60048252630c4dee8d60e31b6020830152565b8181106123af575050565b600081556001016123a4565b9190601f81116123ca57505050565b6123f6926000526020600020906020601f840160051c830193106123f8575b601f0160051c01906123a4565b565b90915081906123e9565b91909182516001600160401b03811161059a576124298161242384546121f7565b846123bb565b602080601f831160011461246557508192939460009261245a575b50508160011b916000199060031b1c1916179055565b015190503880612444565b90601f198316958460005282600020926000905b8882106124b157505083600195969710612498575b505050811b019055565b015160001960f88460031b161c1916905538808061248e565b80600185968294968601518155019501930190612479565b60001981146124d85760010190565b634e487b7160e01b600052601160045260246000fd5b156124f557565b60405162461bcd60e51b8152602060048201526013602482015272155cd95c881b9bdd081c9959da5cdd195c9959606a1b6044820152606490fd5b818102929181159184041417156124d857565b919082018092116124d857565b919082039182116124d857565b81601f8201121561204657805161257381612136565b926125816040519485612115565b818452602082840101116120465761259f91602080850191016121af565b90565b9060405191828154918282526020928383019160005283600020936000905b8282106125d7575050506123f692500383612115565b8554845260019586019588955093810193909101906125c1565b908082146126c95761260381546121f7565b906001600160401b03821161059a5781906126288261262286546121f7565b866123bb565b600090601f831160011461265e576000926126535750508160011b916000199060031b1c1916179055565b015490503880612444565b81526020808220858352818320935090601f1985169083905b8282106126b057505090846001959493921061269757505050811b019055565b015460001960f88460031b161c1916905538808061248e565b8495819295850154815560018091019601940190612677565b505056fea26469706673582212209708cf1b3eed27af90628a0ceb8e0f10de73c7d34410d332f0ba468b0cfe4e3664736f6c63430008140033","opcodes":"PUSH1 0xA0 CALLVALUE PUSH3 0x2BD JUMPI PUSH3 0x2C27 CODESIZE DUP2 SWAP1 SUB PUSH1 0x1F DUP2 ADD PUSH1 0x1F NOT AND DUP4 ADD PUSH1 0x1 PUSH1 0x1 PUSH1 0x40 SHL SUB DUP2 GT DUP5 DUP3 LT OR PUSH3 0x2C2 JUMPI DUP4 SWAP3 DUP3 SWAP2 PUSH1 0x40 MSTORE DUP4 CODECOPY PUSH1 0x20 SWAP3 DUP4 SWAP2 DUP2 ADD SUB SLT PUSH3 0x2BD JUMPI MLOAD PUSH1 0x1 PUSH1 0x1 PUSH1 0xA0 SHL SUB SWAP2 SWAP1 DUP3 DUP2 AND SWAP1 DUP2 SWAP1 SUB PUSH3 0x2BD JUMPI CALLER ISZERO PUSH3 0x2A4 JUMPI PUSH1 0x0 DUP1 SLOAD CALLER PUSH1 0x1 PUSH1 0x1 PUSH1 0xA0 SHL SUB NOT DUP3 AND DUP2 OR DUP4 SSTORE PUSH3 0x268 SWAP6 SWAP1 SWAP3 SWAP2 AND SWAP1 PUSH32 0x8BE0079C531659141344CD1FD0A4F28419497F9722A3DAAFE3B4186F6B6457E0 SWAP1 DUP1 LOG3 PUSH1 0x1 DUP1 SSTORE PUSH7 0x2386F26FC10000 PUSH1 0xC SSTORE PUSH9 0x3635C9ADC5DEA00000 PUSH1 0xD SSTORE PUSH7 0x38D7EA4C68000 PUSH1 0xE SSTORE PUSH1 0x80 MSTORE PUSH1 0x1 PUSH1 0x7 SSTORE PUSH3 0xFD PUSH3 0xE0 PUSH3 0x2D8 JUMP JUMPDEST PUSH1 0xB DUP2 MSTORE PUSH11 0x191A59DA5D185B0B585C9D PUSH1 0xAA SHL DUP4 DUP3 ADD MSTORE PUSH3 0x333 JUMP JUMPDEST PUSH3 0x123 PUSH3 0x10B PUSH3 0x2D8 JUMP JUMPDEST PUSH1 0x6 DUP2 MSTORE PUSH6 0x1C185D195B9D PUSH1 0xD2 SHL DUP4 DUP3 ADD MSTORE PUSH3 0x333 JUMP JUMPDEST PUSH3 0x14F PUSH3 0x131 PUSH3 0x2D8 JUMP JUMPDEST PUSH1 0xC DUP2 MSTORE PUSH12 0x6D757369632D726967687473 PUSH1 0xA0 SHL DUP4 DUP3 ADD MSTORE PUSH3 0x333 JUMP JUMPDEST PUSH3 0x178 PUSH3 0x15D PUSH3 0x2D8 JUMP JUMPDEST PUSH1 0x9 DUP2 MSTORE PUSH9 0x74726164656D61726B PUSH1 0xB8 SHL DUP4 DUP3 ADD MSTORE PUSH3 0x333 JUMP JUMPDEST PUSH3 0x1A1 PUSH3 0x186 PUSH3 0x2D8 JUMP JUMPDEST PUSH1 0x9 DUP2 MSTORE PUSH9 0x18DBDC1E5C9A59DA1D PUSH1 0xBA SHL DUP4 DUP3 ADD MSTORE PUSH3 0x333 JUMP JUMPDEST PUSH3 0x1CD PUSH3 0x1AF PUSH3 0x2D8 JUMP JUMPDEST PUSH1 0xC DUP2 MSTORE PUSH12 0x1D1C9859194B5CD958DC995D PUSH1 0xA2 SHL DUP4 DUP3 ADD MSTORE PUSH3 0x333 JUMP JUMPDEST PUSH3 0x1F9 PUSH3 0x1DB PUSH3 0x2D8 JUMP JUMPDEST PUSH1 0xC DUP2 MSTORE PUSH12 0x6368617261637465722D697 PUSH1 0xA4 SHL DUP4 DUP3 ADD MSTORE PUSH3 0x333 JUMP JUMPDEST PUSH3 0x221 PUSH3 0x207 PUSH3 0x2D8 JUMP JUMPDEST PUSH1 0x8 DUP2 MSTORE PUSH8 0x736F667477617265 PUSH1 0xC0 SHL DUP4 DUP3 ADD MSTORE PUSH3 0x333 JUMP JUMPDEST PUSH3 0x247 PUSH3 0x22F PUSH3 0x2D8 JUMP JUMPDEST PUSH1 0x6 DUP2 MSTORE PUSH6 0x3232B9B4B3B7 PUSH1 0xD1 SHL DUP4 DUP3 ADD MSTORE PUSH3 0x333 JUMP JUMPDEST PUSH5 0x189C985B99 PUSH1 0xDA SHL PUSH3 0x25A PUSH3 0x2D8 JUMP JUMPDEST SWAP2 PUSH1 0x5 DUP4 MSTORE DUP3 ADD MSTORE PUSH3 0x333 JUMP JUMPDEST PUSH1 0x40 MLOAD PUSH2 0x2703 SWAP1 DUP2 PUSH3 0x524 DUP3 CODECOPY PUSH1 0x80 MLOAD DUP2 DUP2 DUP2 PUSH2 0x433 ADD MSTORE DUP2 DUP2 PUSH2 0x78E ADD MSTORE DUP2 DUP2 PUSH2 0xA64 ADD MSTORE DUP2 DUP2 PUSH2 0x104B ADD MSTORE DUP2 DUP2 PUSH2 0x1878 ADD MSTORE PUSH2 0x18C3 ADD MSTORE RETURN JUMPDEST PUSH1 0x40 MLOAD PUSH4 0x1E4FBDF7 PUSH1 0xE0 SHL DUP2 MSTORE PUSH1 0x0 PUSH1 0x4 DUP3 ADD MSTORE PUSH1 0x24 SWAP1 REVERT JUMPDEST PUSH1 0x0 DUP1 REVERT JUMPDEST PUSH4 0x4E487B71 PUSH1 0xE0 SHL PUSH1 0x0 MSTORE PUSH1 0x41 PUSH1 0x4 MSTORE PUSH1 0x24 PUSH1 0x0 REVERT JUMPDEST PUSH1 0x40 DUP1 MLOAD SWAP2 SWAP1 DUP3 ADD PUSH1 0x1 PUSH1 0x1 PUSH1 0x40 SHL SUB DUP2 GT DUP4 DUP3 LT OR PUSH3 0x2C2 JUMPI PUSH1 0x40 MSTORE JUMP JUMPDEST PUSH1 0x40 MLOAD SWAP1 DUP2 DUP2 MLOAD SWAP2 PUSH1 0x0 JUMPDEST DUP4 DUP2 LT PUSH3 0x31D JUMPI POP POP PUSH1 0x20 SWAP2 DUP2 ADD PUSH1 0xF DUP2 MSTORE SUB ADD SWAP1 KECCAK256 SWAP1 JUMP JUMPDEST PUSH1 0x20 DUP3 DUP3 ADD DUP2 ADD MLOAD DUP7 DUP4 ADD MSTORE DUP6 SWAP4 POP ADD PUSH3 0x303 JUMP JUMPDEST PUSH1 0xFF PUSH3 0x340 DUP3 PUSH3 0x2F8 JUMP JUMPDEST SLOAD AND ISZERO PUSH3 0x34B JUMPI POP JUMP JUMPDEST PUSH3 0x356 DUP2 PUSH3 0x2F8 JUMP JUMPDEST SWAP1 PUSH1 0x1 SWAP2 DUP3 PUSH1 0xFF NOT DUP3 SLOAD AND OR SWAP1 SSTORE PUSH1 0x10 SLOAD SWAP1 PUSH9 0x10000000000000000 DUP3 LT ISZERO PUSH3 0x2C2 JUMPI DUP3 DUP3 ADD DUP1 PUSH1 0x10 SSTORE DUP3 LT ISZERO PUSH3 0x50D JUMPI PUSH1 0x10 PUSH1 0x0 SWAP1 DUP2 MSTORE DUP2 MLOAD PUSH32 0x1B6847DC741A1B0CD08D278845F9D819D87B734759AFB55FE2DE5CB82A9AE672 SWAP1 SWAP4 ADD SWAP4 PUSH1 0x20 SWAP4 SWAP3 SWAP1 SWAP2 SWAP1 PUSH1 0x1 PUSH1 0x1 PUSH1 0x40 SHL SUB DUP5 GT PUSH3 0x4F9 JUMPI DUP6 SLOAD DUP4 DUP2 DUP2 SHR SWAP2 AND DUP1 ISZERO PUSH3 0x4EE JUMPI JUMPDEST DUP7 DUP3 LT EQ PUSH3 0x4DA JUMPI PUSH1 0x1F DUP2 GT PUSH3 0x48F JUMPI JUMPDEST POP DUP5 SWAP2 PUSH1 0x1F DUP6 GT PUSH1 0x1 EQ PUSH3 0x42C JUMPI SWAP4 SWAP5 POP DUP5 SWAP3 SWAP2 SWAP1 DUP4 PUSH3 0x420 JUMPI JUMPDEST POP POP SHL SWAP2 PUSH1 0x0 NOT SWAP1 PUSH1 0x3 SHL SHR NOT AND OR SWAP1 SSTORE JUMP JUMPDEST ADD MLOAD SWAP3 POP CODESIZE DUP1 PUSH3 0x40D JUMP JUMPDEST DUP7 DUP2 MSTORE DUP6 DUP2 KECCAK256 SWAP4 SWAP6 DUP6 SWAP2 PUSH1 0x1F NOT DUP4 AND SWAP2 JUMPDEST DUP9 DUP4 DUP4 LT PUSH3 0x474 JUMPI POP POP POP LT PUSH3 0x45A JUMPI JUMPDEST POP POP POP DUP2 SHL ADD SWAP1 SSTORE JUMP JUMPDEST ADD MLOAD PUSH1 0x0 NOT PUSH1 0xF8 DUP5 PUSH1 0x3 SHL AND SHR NOT AND SWAP1 SSTORE CODESIZE DUP1 DUP1 PUSH3 0x450 JUMP JUMPDEST DUP6 DUP8 ADD MLOAD DUP9 SSTORE SWAP1 SWAP7 ADD SWAP6 SWAP5 DUP6 ADD SWAP5 DUP8 SWAP4 POP SWAP1 DUP2 ADD SWAP1 PUSH3 0x43D JUMP JUMPDEST DUP7 DUP4 MSTORE DUP6 DUP4 KECCAK256 PUSH1 0x1F DUP7 ADD PUSH1 0x5 SHR DUP2 ADD SWAP2 DUP8 DUP8 LT PUSH3 0x4CF JUMPI JUMPDEST PUSH1 0x1F ADD PUSH1 0x5 SHR ADD SWAP1 DUP5 SWAP1 JUMPDEST DUP3 DUP2 LT PUSH3 0x4C3 JUMPI POP POP PUSH3 0x3F0 JUMP JUMPDEST DUP5 DUP2 SSTORE ADD DUP5 SWAP1 PUSH3 0x4B3 JUMP JUMPDEST SWAP1 SWAP2 POP DUP2 SWAP1 PUSH3 0x4A8 JUMP JUMPDEST PUSH4 0x4E487B71 PUSH1 0xE0 SHL DUP4 MSTORE PUSH1 0x22 PUSH1 0x4 MSTORE PUSH1 0x24 DUP4 REVERT JUMPDEST SWAP1 PUSH1 0x7F AND SWAP1 PUSH3 0x3DD JUMP JUMPDEST PUSH4 0x4E487B71 PUSH1 0xE0 SHL DUP3 MSTORE PUSH1 0x41 PUSH1 0x4 MSTORE PUSH1 0x24 DUP3 REVERT JUMPDEST PUSH4 0x4E487B71 PUSH1 0xE0 SHL PUSH1 0x0 MSTORE PUSH1 0x32 PUSH1 0x4 MSTORE PUSH1 0x24 PUSH1 0x0 REVERT INVALID PUSH1 0x80 DUP1 PUSH1 0x40 MSTORE PUSH1 0x4 CALLDATASIZE LT ISZERO PUSH2 0x1D JUMPI JUMPDEST POP CALLDATASIZE ISZERO PUSH2 0x1B JUMPI PUSH1 0x0 DUP1 REVERT JUMPDEST STOP JUMPDEST PUSH1 0x0 SWAP1 DUP2 CALLDATALOAD PUSH1 0xE0 SHR SWAP1 DUP2 PUSH4 0xE50CEE5 EQ PUSH2 0x1FF4 JUMPI POP DUP1 PUSH4 0x1064AA55 EQ PUSH2 0x1F9E JUMPI DUP1 PUSH4 0x136D8883 EQ PUSH2 0x1F0A JUMPI DUP1 PUSH4 0x163F7522 EQ PUSH2 0x1ECB JUMPI DUP1 PUSH4 0x2C26E42F EQ PUSH2 0x1EAD JUMPI DUP1 PUSH4 0x2F8FA21D EQ PUSH2 0x1A75 JUMPI DUP1 PUSH4 0x31CC6156 EQ PUSH2 0x1987 JUMPI DUP1 PUSH4 0x396CD833 EQ PUSH2 0x1969 JUMPI DUP1 PUSH4 0x3CED1B73 EQ PUSH2 0x1946 JUMPI DUP1 PUSH4 0x40A93370 EQ PUSH2 0x1923 JUMPI DUP1 PUSH4 0x4B98F225 EQ PUSH2 0x18A7 JUMPI DUP1 PUSH4 0x4D16304F EQ PUSH2 0x1862 JUMPI DUP1 PUSH4 0x5C231AAB EQ PUSH2 0x1773 JUMPI DUP1 PUSH4 0x6A61D0EA EQ PUSH2 0x1554 JUMPI DUP1 PUSH4 0x704F1B94 EQ PUSH2 0x13BC JUMPI DUP1 PUSH4 0x7077A4E4 EQ PUSH2 0x135A JUMPI DUP1 PUSH4 0x715018A6 EQ PUSH2 0x1300 JUMPI DUP1 PUSH4 0x87CD273C EQ PUSH2 0x12BA JUMPI DUP1 PUSH4 0x890D5B64 EQ PUSH2 0x1016 JUMPI DUP1 PUSH4 0x8B3F863F EQ PUSH2 0xFB9 JUMPI DUP1 PUSH4 0x8DA5CB5B EQ PUSH2 0xF92 JUMPI DUP1 PUSH4 0x9816AF58 EQ PUSH2 0xF43 JUMPI DUP1 PUSH4 0xA53CAAA8 EQ PUSH2 0xC77 JUMPI DUP1 PUSH4 0xBCEAE59D EQ PUSH2 0xB99 JUMPI DUP1 PUSH4 0xC5F9143A EQ PUSH2 0xB7B JUMPI DUP1 PUSH4 0xD80528AE EQ PUSH2 0xB3B JUMPI DUP1 PUSH4 0xDCC5BFDA EQ PUSH2 0xACB JUMPI DUP1 PUSH4 0xDDDDD475 EQ PUSH2 0xA48 JUMPI DUP1 PUSH4 0xF2FDE38B EQ PUSH2 0x9B8 JUMPI DUP1 PUSH4 0xF44DE78F EQ PUSH2 0x639 JUMPI DUP1 PUSH4 0xF6AC051A EQ PUSH2 0x3B4 JUMPI DUP1 PUSH4 0xF858BBB5 EQ PUSH2 0x391 JUMPI DUP1 PUSH4 0xFA39A5EA EQ PUSH2 0x1BC JUMPI PUSH4 0xFEAEC4C3 SUB PUSH2 0xF JUMPI CALLVALUE PUSH2 0x1B9 JUMPI DUP1 PUSH1 0x3 NOT CALLDATASIZE ADD SLT PUSH2 0x1B9 JUMPI PUSH1 0x20 PUSH1 0xE SLOAD PUSH1 0x40 MLOAD SWAP1 DUP2 MSTORE RETURN JUMPDEST DUP1 REVERT JUMPDEST POP CALLVALUE PUSH2 0x1B9 JUMPI PUSH1 0x20 CALLDATASIZE PUSH1 0x3 NOT ADD SLT PUSH2 0x1B9 JUMPI DUP1 PUSH1 0x40 SWAP2 PUSH2 0x140 DUP4 MLOAD PUSH2 0x1E0 DUP2 PUSH2 0x20CB JUMP JUMPDEST DUP3 DUP2 MSTORE PUSH1 0x60 PUSH1 0x20 DUP3 ADD MSTORE PUSH1 0x60 DUP6 DUP3 ADD MSTORE PUSH1 0x60 DUP1 DUP3 ADD MSTORE DUP3 PUSH1 0x80 DUP3 ADD MSTORE DUP3 PUSH1 0xA0 DUP3 ADD MSTORE DUP3 PUSH1 0xC0 DUP3 ADD MSTORE DUP3 PUSH1 0xE0 DUP3 ADD MSTORE DUP3 PUSH2 0x100 DUP3 ADD MSTORE DUP3 PUSH2 0x120 DUP3 ADD MSTORE ADD MSTORE PUSH1 0x4 CALLDATALOAD DUP2 MSTORE PUSH1 0x8 PUSH1 0x20 MSTORE KECCAK256 PUSH1 0x9 PUSH1 0x40 MLOAD SWAP2 PUSH2 0x238 DUP4 PUSH2 0x20CB JUMP JUMPDEST DUP1 SLOAD DUP4 MSTORE PUSH1 0x40 MLOAD PUSH2 0x257 DUP2 PUSH2 0x250 DUP2 PUSH1 0x1 DUP7 ADD PUSH2 0x2231 JUMP JUMPDEST SUB DUP3 PUSH2 0x2115 JUMP JUMPDEST PUSH1 0x20 DUP5 ADD MSTORE PUSH1 0x40 MLOAD PUSH2 0x270 DUP2 PUSH2 0x250 DUP2 PUSH1 0x2 DUP7 ADD PUSH2 0x2231 JUMP JUMPDEST PUSH1 0x40 DUP5 ADD MSTORE PUSH2 0x281 PUSH1 0x3 DUP3 ADD PUSH2 0x25A2 JUMP JUMPDEST PUSH1 0x60 DUP5 ADD MSTORE PUSH1 0x4 DUP2 ADD SLOAD PUSH1 0x80 DUP5 ADD MSTORE PUSH1 0x5 DUP2 ADD SLOAD PUSH1 0xA0 DUP5 ADD MSTORE PUSH1 0x6 DUP2 ADD SLOAD PUSH1 0xC0 DUP5 ADD MSTORE PUSH1 0x7 DUP2 ADD SLOAD PUSH1 0xE0 DUP5 ADD MSTORE PUSH1 0x8 DUP2 ADD SLOAD PUSH1 0xFF DUP2 AND ISZERO ISZERO PUSH2 0x100 DUP6 ADD MSTORE PUSH1 0x1 DUP1 PUSH1 0xA0 SHL SUB SWAP1 PUSH1 0x8 SHR AND PUSH2 0x120 DUP5 ADD MSTORE ADD SLOAD PUSH2 0x140 DUP3 ADD MSTORE PUSH1 0x40 MLOAD DUP1 SWAP2 PUSH1 0x20 DUP3 MSTORE DUP1 MLOAD PUSH1 0x20 DUP4 ADD MSTORE PUSH2 0x140 PUSH2 0x33B PUSH2 0x30A PUSH1 0x20 DUP5 ADD MLOAD PUSH2 0x160 PUSH1 0x40 DUP8 ADD MSTORE PUSH2 0x180 DUP7 ADD SWAP1 PUSH2 0x21D2 JUMP JUMPDEST PUSH2 0x326 PUSH1 0x40 DUP6 ADD MLOAD SWAP2 PUSH1 0x1F NOT SWAP3 DUP4 DUP9 DUP4 SUB ADD PUSH1 0x60 DUP10 ADD MSTORE PUSH2 0x21D2 JUMP JUMPDEST SWAP1 PUSH1 0x60 DUP6 ADD MLOAD SWAP1 DUP7 DUP4 SUB ADD PUSH1 0x80 DUP8 ADD MSTORE PUSH2 0x22C7 JUMP JUMPDEST SWAP2 PUSH1 0x80 DUP2 ADD MLOAD PUSH1 0xA0 DUP6 ADD MSTORE PUSH1 0xA0 DUP2 ADD MLOAD PUSH1 0xC0 DUP6 ADD MSTORE PUSH1 0xC0 DUP2 ADD MLOAD PUSH1 0xE0 DUP6 ADD MSTORE PUSH1 0xE0 DUP2 ADD MLOAD PUSH2 0x100 DUP6 ADD MSTORE PUSH2 0x100 DUP2 ADD MLOAD ISZERO ISZERO PUSH2 0x120 DUP6 ADD MSTORE PUSH1 0x1 DUP1 PUSH1 0xA0 SHL SUB PUSH2 0x120 DUP3 ADD MLOAD AND DUP3 DUP6 ADD MSTORE ADD MLOAD PUSH2 0x160 DUP4 ADD MSTORE SUB SWAP1 RETURN JUMPDEST POP CALLVALUE PUSH2 0x1B9 JUMPI PUSH1 0x20 CALLDATASIZE PUSH1 0x3 NOT ADD SLT PUSH2 0x1B9 JUMPI PUSH2 0x3AB PUSH2 0x2311 JUMP JUMPDEST PUSH1 0x4 CALLDATALOAD PUSH1 0xC SSTORE DUP1 RETURN JUMPDEST POP PUSH2 0x3BE CALLDATASIZE PUSH2 0x22FB JUMP JUMPDEST SWAP1 CALLER DUP4 MSTORE PUSH1 0x20 SWAP2 PUSH1 0x9 DUP4 MSTORE PUSH2 0x3D9 PUSH1 0xFF PUSH1 0x40 DUP7 KECCAK256 SLOAD AND PUSH2 0x24EE JUMP JUMPDEST CALLER DUP5 MSTORE PUSH1 0xA DUP4 MSTORE PUSH2 0x250 PUSH2 0x3F6 PUSH1 0x40 DUP7 KECCAK256 PUSH1 0x40 MLOAD SWAP3 DUP4 DUP1 SWAP3 PUSH2 0x2231 JUMP JUMPDEST DUP4 DUP2 MLOAD SWAP2 ADD KECCAK256 PUSH2 0x404 PUSH2 0x2360 JUMP JUMPDEST DUP5 DUP2 MLOAD SWAP2 ADD KECCAK256 EQ DUP1 ISZERO PUSH2 0x601 JUMPI JUMPDEST ISZERO PUSH2 0x5BC JUMPI PUSH1 0x40 MLOAD PUSH4 0x6CE12C35 PUSH1 0xE0 SHL DUP2 MSTORE PUSH1 0x4 DUP2 ADD DUP4 SWAP1 MSTORE CALLER PUSH1 0x24 DUP3 ADD MSTORE PUSH32 0x0 PUSH1 0x1 PUSH1 0x1 PUSH1 0xA0 SHL SUB AND SWAP1 DUP6 SWAP1 PUSH1 0x80 DUP2 PUSH1 0x44 DUP2 DUP7 GAS STATICCALL SWAP1 DUP2 ISZERO PUSH2 0x524 JUMPI DUP3 SWAP2 PUSH2 0x533 JUMPI JUMPDEST POP MLOAD ISZERO SWAP2 DUP1 EXTCODESIZE ISZERO PUSH2 0x52F JUMPI DUP2 PUSH1 0x44 SWAP2 PUSH1 0x40 MLOAD SWAP3 DUP4 DUP1 SWAP3 PUSH4 0x695E6E3 PUSH1 0xE5 SHL DUP3 MSTORE DUP10 PUSH1 0x4 DUP4 ADD MSTORE DUP9 PUSH1 0x24 DUP4 ADD MSTORE CALLVALUE SWAP1 GAS CALL DUP1 ISZERO PUSH2 0x524 JUMPI PUSH2 0x50C JUMPI JUMPDEST POP POP PUSH2 0x4F9 JUMPI JUMPDEST PUSH2 0x4C3 CALLVALUE PUSH1 0x4 SLOAD PUSH2 0x2543 JUMP JUMPDEST PUSH1 0x4 SSTORE PUSH1 0x40 MLOAD SWAP3 CALLVALUE DUP5 MSTORE DUP4 ADD MSTORE PUSH32 0xF31343540AFFA723D26848192C2F28AB76925951531440B6F2E082030394314F PUSH1 0x40 CALLER SWAP4 LOG3 DUP1 RETURN JUMPDEST PUSH2 0x504 PUSH1 0x3 SLOAD PUSH2 0x24C9 JUMP JUMPDEST PUSH1 0x3 SSTORE PUSH2 0x4B7 JUMP JUMPDEST PUSH2 0x515 SWAP1 PUSH2 0x20E7 JUMP JUMPDEST PUSH2 0x520 JUMPI DUP5 CODESIZE PUSH2 0x4B0 JUMP JUMPDEST DUP5 DUP1 REVERT JUMPDEST PUSH1 0x40 MLOAD RETURNDATASIZE DUP5 DUP3 RETURNDATACOPY RETURNDATASIZE SWAP1 REVERT JUMPDEST POP DUP1 REVERT JUMPDEST SWAP2 POP POP PUSH1 0x80 DUP2 RETURNDATASIZE DUP3 GT PUSH2 0x5B4 JUMPI JUMPDEST DUP2 PUSH2 0x54E PUSH1 0x80 SWAP4 DUP4 PUSH2 0x2115 JUMP JUMPDEST DUP2 ADD SUB SLT PUSH2 0x5B0 JUMPI PUSH1 0x40 MLOAD PUSH1 0x80 DUP2 ADD DUP2 DUP2 LT PUSH1 0x1 PUSH1 0x1 PUSH1 0x40 SHL SUB DUP3 GT OR PUSH2 0x59A JUMPI DUP8 SWAP3 PUSH1 0x60 SWAP2 PUSH1 0x40 MSTORE DUP1 MLOAD DUP4 MSTORE DUP8 DUP2 ADD MLOAD DUP9 DUP5 ADD MSTORE PUSH1 0x40 DUP2 ADD MLOAD PUSH1 0x40 DUP5 ADD MSTORE ADD MLOAD PUSH1 0x60 DUP3 ADD MSTORE CODESIZE PUSH2 0x475 JUMP JUMPDEST PUSH4 0x4E487B71 PUSH1 0xE0 SHL PUSH1 0x0 MSTORE PUSH1 0x41 PUSH1 0x4 MSTORE PUSH1 0x24 PUSH1 0x0 REVERT JUMPDEST DUP6 DUP1 REVERT JUMPDEST RETURNDATASIZE SWAP2 POP PUSH2 0x541 JUMP JUMPDEST PUSH1 0x40 MLOAD PUSH3 0x461BCD PUSH1 0xE5 SHL DUP2 MSTORE PUSH1 0x4 DUP2 ADD DUP5 SWAP1 MSTORE PUSH1 0x19 PUSH1 0x24 DUP3 ADD MSTORE PUSH32 0x4F6E6C7920696E766573746F72732063616E20696E7665737400000000000000 PUSH1 0x44 DUP3 ADD MSTORE PUSH1 0x64 SWAP1 REVERT JUMPDEST POP CALLER DUP5 MSTORE PUSH1 0xA DUP4 MSTORE PUSH2 0x250 PUSH2 0x61F PUSH1 0x40 DUP7 KECCAK256 PUSH1 0x40 MLOAD SWAP3 DUP4 DUP1 SWAP3 PUSH2 0x2231 JUMP JUMPDEST DUP4 DUP2 MLOAD SWAP2 ADD KECCAK256 PUSH2 0x62D PUSH2 0x2384 JUMP JUMPDEST DUP5 DUP2 MLOAD SWAP2 ADD KECCAK256 EQ PUSH2 0x412 JUMP JUMPDEST POP CALLVALUE PUSH2 0x1B9 JUMPI PUSH1 0x3 NOT SWAP1 PUSH1 0xA0 CALLDATASIZE DUP4 ADD SLT PUSH2 0x1B9 JUMPI PUSH1 0x1 PUSH1 0x1 PUSH1 0x40 SHL SUB PUSH1 0x4 CALLDATALOAD DUP2 DUP2 GT PUSH2 0x9B4 JUMPI PUSH2 0x66D SWAP1 CALLDATASIZE SWAP1 PUSH1 0x4 ADD PUSH2 0x2151 JUMP JUMPDEST PUSH1 0x24 DUP1 CALLDATALOAD SWAP5 PUSH1 0x44 SWAP1 DUP2 CALLDATALOAD PUSH1 0x64 SWAP6 DUP7 CALLDATALOAD SWAP1 DUP2 GT PUSH2 0x9B0 JUMPI PUSH2 0x691 SWAP1 CALLDATASIZE SWAP1 PUSH1 0x4 ADD PUSH2 0x2151 JUMP JUMPDEST SWAP6 CALLER DUP9 MSTORE PUSH1 0x20 SWAP9 PUSH1 0x9 DUP11 MSTORE PUSH2 0x6AC PUSH1 0xFF PUSH1 0x40 DUP12 KECCAK256 SLOAD AND PUSH2 0x24EE JUMP JUMPDEST CALLER DUP10 MSTORE PUSH1 0xA DUP11 MSTORE PUSH2 0x250 PUSH2 0x6C9 PUSH1 0x40 DUP12 KECCAK256 PUSH1 0x40 MLOAD SWAP3 DUP4 DUP1 SWAP3 PUSH2 0x2231 JUMP JUMPDEST DUP11 DUP2 MLOAD SWAP2 ADD KECCAK256 PUSH2 0x6D7 PUSH2 0x233D JUMP JUMPDEST DUP12 DUP2 MLOAD SWAP2 ADD KECCAK256 EQ DUP1 ISZERO PUSH2 0x978 JUMPI JUMPDEST ISZERO PUSH2 0x937 JUMPI PUSH1 0xFF PUSH1 0x40 MLOAD DUP12 DUP2 DUP2 PUSH2 0x702 DUP14 DUP4 DUP2 MLOAD SWAP4 DUP5 SWAP3 ADD PUSH2 0x21AF JUMP JUMPDEST DUP2 ADD PUSH1 0xF DUP2 MSTORE SUB ADD SWAP1 KECCAK256 SLOAD AND ISZERO PUSH2 0x8FD JUMPI PUSH2 0x71D DUP4 DUP3 PUSH2 0x2530 JUMP JUMPDEST PUSH1 0xC SLOAD DUP2 LT PUSH2 0x8C5 JUMPI PUSH1 0xD SLOAD LT PUSH2 0x88D JUMPI PUSH1 0xE SLOAD DUP4 LT PUSH2 0x856 JUMPI SWAP3 PUSH2 0x781 SWAP3 PUSH1 0xC0 SWAP6 SWAP3 DUP12 SWAP8 SWAP6 PUSH2 0x76B PUSH1 0x40 MLOAD SWAP11 DUP12 SWAP10 DUP11 SWAP10 PUSH4 0x3BDDF4F3 PUSH1 0xE1 SHL DUP12 MSTORE CALLER PUSH1 0x4 DUP13 ADD MSTORE DUP11 ADD MSTORE PUSH1 0xC4 DUP10 ADD SWAP1 PUSH2 0x21D2 JUMP JUMPDEST SWAP5 DUP8 ADD MSTORE DUP6 ADD MSTORE DUP4 DUP3 SUB ADD PUSH1 0x84 DUP5 ADD MSTORE DUP7 PUSH2 0x21D2 JUMP JUMPDEST PUSH1 0x84 CALLDATALOAD PUSH1 0xA4 DUP4 ADD MSTORE SUB DUP2 DUP7 PUSH32 0x0 PUSH1 0x1 PUSH1 0x1 PUSH1 0xA0 SHL SUB AND GAS CALL SWAP3 DUP4 ISZERO PUSH2 0x84A JUMPI DUP1 SWAP4 PUSH2 0x818 JUMPI JUMPDEST POP POP PUSH2 0x7D3 PUSH1 0x2 SLOAD PUSH2 0x24C9 JUMP JUMPDEST PUSH1 0x2 SSTORE DUP2 PUSH32 0x49B4E4C6879CDC85B51D8C3B572252AAA7842EDB863810854ACB6D2ED420D962 PUSH1 0x40 MLOAD DUP6 DUP2 MSTORE DUP1 PUSH2 0x80D CALLER SWAP6 DUP9 DUP4 ADD SWAP1 PUSH2 0x21D2 JUMP JUMPDEST SUB SWAP1 LOG3 PUSH1 0x40 MLOAD SWAP1 DUP2 MSTORE RETURN JUMPDEST SWAP1 SWAP2 SWAP3 POP DUP4 DUP3 DUP2 RETURNDATASIZE DUP4 GT PUSH2 0x843 JUMPI JUMPDEST PUSH2 0x831 DUP2 DUP4 PUSH2 0x2115 JUMP JUMPDEST DUP2 ADD SUB SLT PUSH2 0x1B9 JUMPI POP MLOAD SWAP1 CODESIZE DUP1 PUSH2 0x7C6 JUMP JUMPDEST POP RETURNDATASIZE PUSH2 0x827 JUMP JUMPDEST PUSH1 0x40 MLOAD SWAP1 RETURNDATASIZE SWAP1 DUP3 RETURNDATACOPY RETURNDATASIZE SWAP1 REVERT JUMPDEST POP PUSH1 0x40 MLOAD PUSH3 0x461BCD PUSH1 0xE5 SHL DUP2 MSTORE PUSH1 0x4 DUP2 ADD DUP11 SWAP1 MSTORE PUSH1 0x13 DUP2 DUP8 ADD MSTORE PUSH19 0x536861726520707269636520746F6F206C6F77 PUSH1 0x68 SHL DUP2 DUP7 ADD MSTORE REVERT JUMPDEST POP PUSH1 0x40 MLOAD PUSH3 0x461BCD PUSH1 0xE5 SHL DUP2 MSTORE PUSH1 0x4 DUP2 ADD DUP11 SWAP1 MSTORE PUSH1 0x14 DUP2 DUP8 ADD MSTORE PUSH20 0x82E6E6CAE840ECC2D8EACA40E8DEDE40D0D2CED PUSH1 0x63 SHL DUP2 DUP7 ADD MSTORE REVERT JUMPDEST PUSH1 0x40 MLOAD PUSH3 0x461BCD PUSH1 0xE5 SHL DUP2 MSTORE PUSH1 0x4 DUP2 ADD DUP13 SWAP1 MSTORE PUSH1 0x13 DUP2 DUP10 ADD MSTORE PUSH19 0x41737365742076616C756520746F6F206C6F77 PUSH1 0x68 SHL DUP2 DUP9 ADD MSTORE DUP4 SWAP1 REVERT JUMPDEST POP PUSH1 0x40 MLOAD PUSH3 0x461BCD PUSH1 0xE5 SHL DUP2 MSTORE PUSH1 0x4 DUP2 ADD DUP11 SWAP1 MSTORE PUSH1 0x16 DUP2 DUP8 ADD MSTORE PUSH22 0x556E737570706F727465642061737365742074797065 PUSH1 0x50 SHL DUP2 DUP7 ADD MSTORE REVERT JUMPDEST POP PUSH1 0x40 MLOAD PUSH3 0x461BCD PUSH1 0xE5 SHL DUP2 MSTORE PUSH1 0x4 DUP2 ADD DUP11 SWAP1 MSTORE PUSH1 0x1F DUP2 DUP8 ADD MSTORE PUSH32 0x4F6E6C792063726561746F72732063616E206372656174652061737365747300 DUP2 DUP7 ADD MSTORE REVERT JUMPDEST POP CALLER DUP10 MSTORE PUSH1 0xA DUP11 MSTORE PUSH2 0x250 PUSH2 0x996 PUSH1 0x40 DUP12 KECCAK256 PUSH1 0x40 MLOAD SWAP3 DUP4 DUP1 SWAP3 PUSH2 0x2231 JUMP JUMPDEST DUP11 DUP2 MLOAD SWAP2 ADD KECCAK256 PUSH2 0x9A4 PUSH2 0x2384 JUMP JUMPDEST DUP12 DUP2 MLOAD SWAP2 ADD KECCAK256 EQ PUSH2 0x6E5 JUMP JUMPDEST DUP8 DUP1 REVERT JUMPDEST DUP3 DUP1 REVERT JUMPDEST POP CALLVALUE PUSH2 0x1B9 JUMPI PUSH1 0x20 CALLDATASIZE PUSH1 0x3 NOT ADD SLT PUSH2 0x1B9 JUMPI PUSH2 0x9D2 PUSH2 0x2030 JUMP JUMPDEST PUSH2 0x9DA PUSH2 0x2311 JUMP JUMPDEST PUSH1 0x1 PUSH1 0x1 PUSH1 0xA0 SHL SUB SWAP1 DUP2 AND SWAP1 DUP2 ISZERO PUSH2 0xA2F JUMPI PUSH1 0x0 SLOAD DUP3 PUSH12 0xFFFFFFFFFFFFFFFFFFFFFFFF PUSH1 0xA0 SHL DUP3 AND OR PUSH1 0x0 SSTORE AND PUSH32 0x8BE0079C531659141344CD1FD0A4F28419497F9722A3DAAFE3B4186F6B6457E0 PUSH1 0x0 DUP1 LOG3 DUP1 RETURN JUMPDEST PUSH1 0x40 MLOAD PUSH4 0x1E4FBDF7 PUSH1 0xE0 SHL DUP2 MSTORE PUSH1 0x4 DUP2 ADD DUP5 SWAP1 MSTORE PUSH1 0x24 SWAP1 REVERT JUMPDEST POP CALLVALUE PUSH2 0x1B9 JUMPI DUP1 PUSH1 0x3 NOT CALLDATASIZE ADD SLT PUSH2 0x1B9 JUMPI PUSH2 0xA61 PUSH2 0x2311 JUMP JUMPDEST DUP1 PUSH32 0x0 PUSH1 0x1 PUSH1 0x1 PUSH1 0xA0 SHL SUB AND DUP1 EXTCODESIZE ISZERO PUSH2 0xAC8 JUMPI DUP2 DUP1 SWAP2 PUSH1 0x4 PUSH1 0x40 MLOAD DUP1 SWAP5 DUP2 SWAP4 PUSH4 0x1FA5D41D PUSH1 0xE1 SHL DUP4 MSTORE GAS CALL DUP1 ISZERO PUSH2 0x524 JUMPI PUSH2 0xAB8 JUMPI POP RETURN JUMPDEST PUSH2 0xAC1 SWAP1 PUSH2 0x20E7 JUMP JUMPDEST PUSH2 0x1B9 JUMPI DUP1 RETURN JUMPDEST POP REVERT JUMPDEST POP CALLVALUE PUSH2 0x1B9 JUMPI PUSH1 0x20 CALLDATASIZE PUSH1 0x3 NOT ADD SLT PUSH2 0x1B9 JUMPI PUSH1 0x4 CALLDATALOAD PUSH1 0x10 SLOAD DUP2 LT ISZERO PUSH2 0x52F JUMPI PUSH2 0xAF3 SWAP1 PUSH2 0x204B JUMP JUMPDEST PUSH2 0xB25 JUMPI PUSH2 0x250 PUSH2 0xB0D PUSH2 0xB21 SWAP3 PUSH1 0x40 MLOAD SWAP3 DUP4 DUP1 SWAP3 PUSH2 0x2231 JUMP JUMPDEST PUSH1 0x40 MLOAD SWAP2 DUP3 SWAP2 PUSH1 0x20 DUP4 MSTORE PUSH1 0x20 DUP4 ADD SWAP1 PUSH2 0x21D2 JUMP JUMPDEST SUB SWAP1 RETURN JUMPDEST PUSH4 0x4E487B71 PUSH1 0xE0 SHL PUSH1 0x0 MSTORE PUSH1 0x0 PUSH1 0x4 MSTORE PUSH1 0x24 PUSH1 0x0 REVERT JUMPDEST POP CALLVALUE PUSH2 0x1B9 JUMPI DUP1 PUSH1 0x3 NOT CALLDATASIZE ADD SLT PUSH2 0x1B9 JUMPI PUSH1 0xA0 PUSH1 0x2 SLOAD PUSH1 0x3 SLOAD PUSH1 0x4 SLOAD PUSH1 0x5 SLOAD SWAP1 PUSH1 0x6 SLOAD SWAP3 PUSH1 0x40 MLOAD SWAP5 DUP6 MSTORE PUSH1 0x20 DUP6 ADD MSTORE PUSH1 0x40 DUP5 ADD MSTORE PUSH1 0x60 DUP4 ADD MSTORE PUSH1 0x80 DUP3 ADD MSTORE RETURN JUMPDEST POP CALLVALUE PUSH2 0x1B9 JUMPI DUP1 PUSH1 0x3 NOT CALLDATASIZE ADD SLT PUSH2 0x1B9 JUMPI PUSH1 0x20 PUSH1 0xC SLOAD PUSH1 0x40 MLOAD SWAP1 DUP2 MSTORE RETURN JUMPDEST POP CALLVALUE PUSH2 0x1B9 JUMPI PUSH1 0x20 CALLDATASIZE PUSH1 0x3 NOT ADD SLT PUSH2 0x1B9 JUMPI PUSH1 0x40 SWAP1 PUSH1 0x4 CALLDATALOAD DUP2 MSTORE PUSH1 0x8 PUSH1 0x20 MSTORE KECCAK256 DUP1 SLOAD PUSH1 0x40 MLOAD SWAP2 PUSH2 0xBD7 DUP4 PUSH2 0xBD0 DUP2 PUSH1 0x1 DUP6 ADD PUSH2 0x2231 JUMP JUMPDEST SUB DUP5 PUSH2 0x2115 JUMP JUMPDEST PUSH1 0x40 MLOAD PUSH2 0xBEB DUP2 PUSH2 0x250 DUP2 PUSH1 0x2 DUP7 ADD PUSH2 0x2231 JUMP JUMPDEST PUSH1 0x4 DUP3 ADD SLOAD SWAP2 PUSH1 0x5 DUP2 ADD SLOAD PUSH1 0x6 DUP3 ADD SLOAD PUSH1 0x7 DUP4 ADD SLOAD SWAP2 PUSH2 0xC39 PUSH1 0x9 PUSH1 0x8 DUP7 ADD SLOAD SWAP6 ADD SLOAD SWAP6 PUSH2 0xC2B PUSH1 0x40 MLOAD SWAP11 DUP12 SWAP11 DUP12 MSTORE PUSH2 0x140 DUP1 PUSH1 0x20 DUP14 ADD MSTORE DUP12 ADD SWAP1 PUSH2 0x21D2 JUMP JUMPDEST SWAP1 DUP10 DUP3 SUB PUSH1 0x40 DUP12 ADD MSTORE PUSH2 0x21D2 JUMP JUMPDEST PUSH1 0x60 DUP9 ADD SWAP7 SWAP1 SWAP7 MSTORE PUSH1 0x80 DUP8 ADD MSTORE PUSH1 0xA0 DUP7 ADD MSTORE PUSH1 0xC0 DUP6 ADD MSTORE PUSH1 0xFF DUP2 AND ISZERO ISZERO PUSH1 0xE0 DUP6 ADD MSTORE PUSH1 0x8 SHR PUSH1 0x1 PUSH1 0x1 PUSH1 0xA0 SHL SUB AND PUSH2 0x100 DUP5 ADD MSTORE PUSH2 0x120 DUP4 ADD MSTORE SUB SWAP1 RETURN JUMPDEST POP PUSH2 0xC81 CALLDATASIZE PUSH2 0x22FB JUMP JUMPDEST SWAP1 CALLER DUP4 MSTORE PUSH1 0x20 PUSH1 0x9 DUP2 MSTORE PUSH2 0xC9B PUSH1 0xFF PUSH1 0x40 DUP7 KECCAK256 SLOAD AND PUSH2 0x24EE JUMP JUMPDEST DUP2 DUP5 MSTORE PUSH1 0x8 DUP2 MSTORE PUSH1 0x40 DUP5 KECCAK256 PUSH1 0xFF PUSH1 0x8 DUP3 ADD SLOAD AND ISZERO PUSH2 0xF09 JUMPI DUP4 ISZERO PUSH2 0xEB9 JUMPI PUSH1 0x5 DUP2 ADD DUP1 SLOAD SWAP5 DUP6 DUP2 GT PUSH2 0xE76 JUMPI PUSH2 0xCD5 PUSH1 0x6 DUP5 ADD SLOAD DUP3 PUSH2 0x2530 JUMP JUMPDEST SWAP6 DUP7 CALLVALUE LT PUSH2 0xE3A JUMPI PUSH1 0x7 DUP5 ADD SLOAD CALLVALUE LT PUSH2 0xDF5 JUMPI PUSH1 0x3 SWAP4 SWAP3 SWAP2 PUSH2 0xCF6 SWAP2 PUSH2 0x2550 JUMP JUMPDEST SWAP1 SSTORE ADD SLOAD DUP1 ISZERO PUSH2 0xDE1 JUMPI PUSH1 0x0 NOT DUP2 ADD DUP2 DUP6 DIV DUP3 DUP3 GT DUP8 JUMPDEST DUP5 DUP2 LT PUSH2 0xD8F JUMPI POP POP POP POP POP DUP3 CALLVALUE GT PUSH2 0xD5E JUMPI JUMPDEST PUSH32 0xE65C87D24B55DF0AA53A13D9F22BF2E232DBAF96A08CC11BEA54425DD121CC74 SWAP1 PUSH2 0xD4F DUP5 PUSH1 0x4 SLOAD PUSH2 0x2543 JUMP JUMPDEST PUSH1 0x4 SSTORE PUSH1 0x40 MLOAD SWAP4 DUP5 MSTORE CALLER SWAP4 LOG3 DUP1 RETURN JUMPDEST DUP4 DUP1 DUP1 DUP1 PUSH2 0xD6C DUP8 CALLVALUE PUSH2 0x2550 JUMP JUMPDEST DUP2 DUP2 ISZERO PUSH2 0xD86 JUMPI JUMPDEST CALLER SWAP1 CALL PUSH2 0xD21 JUMPI PUSH1 0x40 MLOAD RETURNDATASIZE DUP6 DUP3 RETURNDATACOPY RETURNDATASIZE SWAP1 REVERT JUMPDEST POP PUSH2 0x8FC PUSH2 0xD74 JUMP JUMPDEST DUP2 PUSH2 0xDCD JUMPI DUP4 DUP2 EQ PUSH2 0xDAA JUMPI JUMPDEST PUSH2 0xDA5 SWAP1 PUSH2 0x24C9 JUMP JUMPDEST PUSH2 0xD0D JUMP JUMPDEST SWAP2 SWAP1 POP PUSH2 0xDA5 PUSH2 0xDC5 PUSH2 0xDBF DUP6 PUSH1 0x0 SWAP5 PUSH2 0x2530 JUMP JUMPDEST DUP10 PUSH2 0x2550 JUMP JUMPDEST SWAP3 SWAP1 POP PUSH2 0xD9C JUMP JUMPDEST PUSH4 0x4E487B71 PUSH1 0xE0 SHL DUP10 MSTORE PUSH1 0x11 PUSH1 0x4 MSTORE PUSH1 0x24 DUP10 REVERT JUMPDEST PUSH4 0x4E487B71 PUSH1 0xE0 SHL DUP6 MSTORE PUSH1 0x12 PUSH1 0x4 MSTORE PUSH1 0x24 DUP6 REVERT JUMPDEST PUSH1 0x40 MLOAD PUSH3 0x461BCD PUSH1 0xE5 SHL DUP2 MSTORE PUSH1 0x4 DUP2 ADD DUP7 SWAP1 MSTORE PUSH1 0x18 PUSH1 0x24 DUP3 ADD MSTORE PUSH32 0x496E766573746D656E742062656C6F77206D696E696D756D0000000000000000 PUSH1 0x44 DUP3 ADD MSTORE PUSH1 0x64 SWAP1 REVERT JUMPDEST PUSH1 0x40 MLOAD PUSH3 0x461BCD PUSH1 0xE5 SHL DUP2 MSTORE PUSH1 0x4 DUP2 ADD DUP7 SWAP1 MSTORE PUSH1 0x14 PUSH1 0x24 DUP3 ADD MSTORE PUSH20 0x125B9CDD59999A58DA595B9D081C185E5B595B9D PUSH1 0x62 SHL PUSH1 0x44 DUP3 ADD MSTORE PUSH1 0x64 SWAP1 REVERT JUMPDEST PUSH1 0x64 DUP5 PUSH1 0x40 MLOAD SWAP1 PUSH3 0x461BCD PUSH1 0xE5 SHL DUP3 MSTORE DUP1 PUSH1 0x4 DUP4 ADD MSTORE PUSH1 0x24 DUP3 ADD MSTORE PUSH32 0x4E6F7420656E6F75676820706F6F6C2073686172657320617661696C61626C65 PUSH1 0x44 DUP3 ADD MSTORE REVERT JUMPDEST PUSH1 0x40 MLOAD PUSH3 0x461BCD PUSH1 0xE5 SHL DUP2 MSTORE PUSH1 0x4 DUP2 ADD DUP4 SWAP1 MSTORE PUSH1 0x22 PUSH1 0x24 DUP3 ADD MSTORE PUSH32 0x536861726520636F756E74206D7573742062652067726561746572207468616E PUSH1 0x44 DUP3 ADD MSTORE PUSH2 0x203 PUSH1 0xF4 SHL PUSH1 0x64 DUP3 ADD MSTORE PUSH1 0x84 SWAP1 REVERT JUMPDEST PUSH1 0x40 MLOAD PUSH3 0x461BCD PUSH1 0xE5 SHL DUP2 MSTORE PUSH1 0x4 DUP2 ADD DUP4 SWAP1 MSTORE PUSH1 0x12 PUSH1 0x24 DUP3 ADD MSTORE PUSH18 0x506F6F6C206973206E6F7420616374697665 PUSH1 0x70 SHL PUSH1 0x44 DUP3 ADD MSTORE PUSH1 0x64 SWAP1 REVERT JUMPDEST POP CALLVALUE PUSH2 0x1B9 JUMPI PUSH1 0x20 CALLDATASIZE PUSH1 0x3 NOT ADD SLT PUSH2 0x1B9 JUMPI PUSH2 0xB21 SWAP1 PUSH2 0xF7E SWAP1 PUSH1 0x40 SWAP1 PUSH1 0x1 PUSH1 0x1 PUSH1 0xA0 SHL SUB PUSH2 0xF70 PUSH2 0x2030 JUMP JUMPDEST AND DUP2 MSTORE PUSH1 0xB PUSH1 0x20 MSTORE KECCAK256 PUSH2 0x25A2 JUMP JUMPDEST PUSH1 0x40 MLOAD SWAP2 DUP3 SWAP2 PUSH1 0x20 DUP4 MSTORE PUSH1 0x20 DUP4 ADD SWAP1 PUSH2 0x22C7 JUMP JUMPDEST POP CALLVALUE PUSH2 0x1B9 JUMPI DUP1 PUSH1 0x3 NOT CALLDATASIZE ADD SLT PUSH2 0x1B9 JUMPI SLOAD PUSH1 0x40 MLOAD PUSH1 0x1 PUSH1 0x1 PUSH1 0xA0 SHL SUB SWAP1 SWAP2 AND DUP2 MSTORE PUSH1 0x20 SWAP1 RETURN JUMPDEST POP CALLVALUE PUSH2 0x1B9 JUMPI PUSH1 0x20 CALLDATASIZE PUSH1 0x3 NOT ADD SLT PUSH2 0x1B9 JUMPI PUSH2 0xB21 SWAP1 PUSH2 0x250 SWAP1 PUSH2 0xB0D SWAP1 PUSH1 0x40 SWAP1 PUSH1 0x1 PUSH1 0x1 PUSH1 0xA0 SHL SUB PUSH2 0xFEA PUSH2 0x2030 JUMP JUMPDEST AND DUP1 DUP3 MSTORE PUSH1 0x9 PUSH1 0x20 MSTORE PUSH2 0x1002 PUSH1 0xFF DUP5 DUP5 KECCAK256 SLOAD AND PUSH2 0x24EE JUMP JUMPDEST DUP2 MSTORE PUSH1 0xA PUSH1 0x20 MSTORE KECCAK256 PUSH1 0x40 MLOAD SWAP3 DUP4 DUP1 SWAP3 PUSH2 0x2231 JUMP JUMPDEST POP PUSH1 0x20 DUP1 PUSH1 0x3 NOT CALLDATASIZE ADD SLT PUSH2 0x52F JUMPI PUSH1 0x4 CALLDATALOAD CALLVALUE ISZERO PUSH2 0x1267 JUMPI PUSH1 0x40 MLOAD PUSH4 0x1D591EB7 PUSH1 0xE3 SHL DUP2 MSTORE PUSH1 0x4 DUP2 ADD DUP3 SWAP1 MSTORE PUSH1 0x1 PUSH1 0x1 PUSH1 0xA0 SHL SUB PUSH32 0x0 DUP2 AND SWAP2 DUP6 DUP2 PUSH1 0x24 DUP2 DUP7 GAS STATICCALL SWAP1 DUP2 ISZERO PUSH2 0x125C JUMPI DUP7 SWAP2 PUSH2 0x1163 JUMPI JUMPDEST POP MLOAD AND CALLER SUB PUSH2 0x1112 JUMPI DUP1 DUP5 SWAP2 EXTCODESIZE ISZERO PUSH2 0x52F JUMPI DUP2 PUSH1 0x24 SWAP2 PUSH1 0x40 MLOAD SWAP3 DUP4 DUP1 SWAP3 PUSH4 0xB07CB365 PUSH1 0xE0 SHL DUP3 MSTORE DUP8 PUSH1 0x4 DUP4 ADD MSTORE CALLVALUE SWAP1 GAS CALL DUP1 ISZERO PUSH2 0x524 JUMPI PUSH2 0x10FE JUMPI JUMPDEST POP POP PUSH2 0x10CD CALLVALUE PUSH1 0x5 SLOAD PUSH2 0x2543 JUMP JUMPDEST PUSH1 0x5 SSTORE PUSH32 0x2E80F0D7D411757D7A487139CD9ACF9C64E948061A9E3D4D5BC76AB6A71848E9 PUSH1 0x40 MLOAD SWAP3 CALLVALUE DUP5 MSTORE CALLER SWAP4 LOG3 DUP1 RETURN JUMPDEST PUSH2 0x1107 SWAP1 PUSH2 0x20E7 JUMP JUMPDEST PUSH2 0x9B4 JUMPI DUP3 CODESIZE PUSH2 0x10BF JUMP JUMPDEST PUSH1 0x40 MLOAD PUSH3 0x461BCD PUSH1 0xE5 SHL DUP2 MSTORE PUSH1 0x4 DUP2 ADD DUP5 SWAP1 MSTORE PUSH1 0x24 DUP1 DUP3 ADD MSTORE PUSH32 0x4F6E6C792061737365742063726561746F722063616E2070617920726F79616C PUSH1 0x44 DUP3 ADD MSTORE PUSH4 0x74696573 PUSH1 0xE0 SHL PUSH1 0x64 DUP3 ADD MSTORE PUSH1 0x84 SWAP1 REVERT JUMPDEST SWAP1 POP RETURNDATASIZE DUP1 DUP8 DUP4 RETURNDATACOPY PUSH2 0x1174 DUP2 DUP4 PUSH2 0x2115 JUMP JUMPDEST DUP2 ADD SWAP1 DUP6 DUP2 DUP4 SUB SLT PUSH2 0x1258 JUMPI DUP1 MLOAD PUSH1 0x1 PUSH1 0x1 PUSH1 0x40 SHL SUB SWAP2 DUP3 DUP3 GT PUSH2 0x1250 JUMPI ADD SWAP1 PUSH2 0x140 SWAP3 DUP4 DUP4 DUP3 SUB SLT PUSH2 0x1250 JUMPI PUSH1 0x40 MLOAD SWAP4 DUP5 ADD DUP5 DUP2 LT DUP4 DUP3 GT OR PUSH2 0x59A JUMPI PUSH1 0x40 MSTORE DUP3 MLOAD DUP6 DUP2 AND DUP2 SUB PUSH2 0x1254 JUMPI DUP5 MSTORE DUP8 DUP4 ADD MLOAD DUP3 DUP2 GT PUSH2 0x1254 JUMPI DUP2 PUSH2 0x11D9 SWAP2 DUP6 ADD PUSH2 0x255D JUMP JUMPDEST DUP9 DUP6 ADD MSTORE PUSH1 0x40 DUP4 ADD MLOAD PUSH1 0x40 DUP6 ADD MSTORE PUSH1 0x60 DUP4 ADD MLOAD PUSH1 0x60 DUP6 ADD MSTORE PUSH1 0x80 DUP4 ADD MLOAD PUSH1 0x80 DUP6 ADD MSTORE PUSH1 0xA0 DUP4 ADD MLOAD PUSH1 0xA0 DUP6 ADD MSTORE PUSH1 0xC0 DUP4 ADD MLOAD DUP1 ISZERO ISZERO DUP2 SUB PUSH2 0x1254 JUMPI PUSH1 0xC0 DUP6 ADD MSTORE PUSH1 0xE0 DUP4 ADD MLOAD SWAP2 DUP3 GT PUSH2 0x1250 JUMPI PUSH2 0x122F SWAP2 DUP4 ADD PUSH2 0x255D JUMP JUMPDEST PUSH1 0xE0 DUP4 ADD MSTORE PUSH2 0x100 DUP1 DUP3 ADD MLOAD SWAP1 DUP4 ADD MSTORE PUSH2 0x120 DUP1 SWAP2 ADD MLOAD SWAP1 DUP3 ADD MSTORE CODESIZE PUSH2 0x1083 JUMP JUMPDEST DUP9 DUP1 REVERT JUMPDEST DUP10 DUP1 REVERT JUMPDEST DUP7 DUP1 REVERT JUMPDEST PUSH1 0x40 MLOAD RETURNDATASIZE DUP9 DUP3 RETURNDATACOPY RETURNDATASIZE SWAP1 REVERT JUMPDEST PUSH1 0x40 MLOAD PUSH3 0x461BCD PUSH1 0xE5 SHL DUP2 MSTORE PUSH1 0x4 DUP2 ADD DUP4 SWAP1 MSTORE PUSH1 0x25 PUSH1 0x24 DUP3 ADD MSTORE PUSH32 0x526F79616C747920616D6F756E74206D75737420626520677265617465722074 PUSH1 0x44 DUP3 ADD MSTORE PUSH5 0x68616E203 PUSH1 0xDC SHL PUSH1 0x64 DUP3 ADD MSTORE PUSH1 0x84 SWAP1 REVERT JUMPDEST POP CALLVALUE PUSH2 0x1B9 JUMPI PUSH1 0x20 CALLDATASIZE PUSH1 0x3 NOT ADD SLT PUSH2 0x1B9 JUMPI PUSH2 0xB21 SWAP1 PUSH2 0x250 SWAP1 PUSH2 0xB0D SWAP1 PUSH1 0x40 SWAP1 PUSH1 0x1 PUSH1 0x1 PUSH1 0xA0 SHL SUB PUSH2 0x12EB PUSH2 0x2030 JUMP JUMPDEST AND DUP2 MSTORE PUSH1 0xA PUSH1 0x20 MSTORE KECCAK256 PUSH1 0x40 MLOAD SWAP3 DUP4 DUP1 SWAP3 PUSH2 0x2231 JUMP JUMPDEST POP CALLVALUE PUSH2 0x1B9 JUMPI DUP1 PUSH1 0x3 NOT CALLDATASIZE ADD SLT PUSH2 0x1B9 JUMPI PUSH2 0x1319 PUSH2 0x2311 JUMP JUMPDEST PUSH1 0x0 DUP1 SLOAD PUSH1 0x1 PUSH1 0x1 PUSH1 0xA0 SHL SUB NOT DUP2 AND DUP3 SSTORE PUSH1 0x1 PUSH1 0x1 PUSH1 0xA0 SHL SUB AND PUSH32 0x8BE0079C531659141344CD1FD0A4F28419497F9722A3DAAFE3B4186F6B6457E0 DUP3 DUP1 LOG3 DUP1 RETURN JUMPDEST POP CALLVALUE PUSH2 0x1B9 JUMPI PUSH1 0x20 CALLDATASIZE PUSH1 0x3 NOT ADD SLT PUSH2 0x1B9 JUMPI PUSH1 0x4 CALLDATALOAD SWAP1 PUSH1 0x1 PUSH1 0x1 PUSH1 0x40 SHL SUB DUP3 GT PUSH2 0x1B9 JUMPI PUSH1 0x20 PUSH1 0xFF PUSH2 0x13A6 DUP3 PUSH2 0x1393 CALLDATASIZE PUSH1 0x4 DUP9 ADD PUSH2 0x2151 JUMP JUMPDEST DUP2 PUSH1 0x40 MLOAD SWAP4 DUP3 DUP6 DUP1 SWAP5 MLOAD SWAP4 DUP5 SWAP3 ADD PUSH2 0x21AF JUMP JUMPDEST DUP2 ADD PUSH1 0xF DUP2 MSTORE SUB ADD SWAP1 KECCAK256 SLOAD AND PUSH1 0x40 MLOAD SWAP1 ISZERO ISZERO DUP2 MSTORE RETURN JUMPDEST POP CALLVALUE PUSH2 0x1B9 JUMPI PUSH1 0x20 DUP1 PUSH1 0x3 NOT CALLDATASIZE ADD SLT PUSH2 0x52F JUMPI PUSH1 0x4 CALLDATALOAD PUSH1 0x1 PUSH1 0x1 PUSH1 0x40 SHL SUB DUP2 GT PUSH2 0x9B4 JUMPI PUSH2 0x13EE SWAP1 CALLDATASIZE SWAP1 PUSH1 0x4 ADD PUSH2 0x2151 JUMP JUMPDEST CALLER DUP4 MSTORE PUSH1 0x9 DUP3 MSTORE PUSH1 0xFF PUSH1 0x40 DUP5 KECCAK256 SLOAD AND PUSH2 0x150F JUMPI DUP1 MLOAD DUP3 DUP3 ADD SWAP1 DUP2 KECCAK256 PUSH2 0x1411 PUSH2 0x233D JUMP JUMPDEST DUP5 DUP2 MLOAD SWAP2 ADD KECCAK256 EQ SWAP1 DUP2 ISZERO PUSH2 0x14F4 JUMPI JUMPDEST DUP2 ISZERO PUSH2 0x14D9 JUMPI JUMPDEST POP ISZERO PUSH2 0x14A0 JUMPI PUSH2 0x149A PUSH32 0x48CAC28AD4DC618E15F4C2DD5E97751182F166DE97B25618318B2112AA951A2F SWAP2 CALLER DUP6 MSTORE PUSH1 0x9 DUP5 MSTORE PUSH1 0x40 DUP6 KECCAK256 PUSH1 0x1 PUSH1 0xFF NOT DUP3 SLOAD AND OR SWAP1 SSTORE PUSH1 0xA DUP5 MSTORE PUSH2 0x1479 DUP2 PUSH1 0x40 DUP8 KECCAK256 PUSH2 0x2402 JUMP JUMPDEST PUSH2 0x1484 PUSH1 0x6 SLOAD PUSH2 0x24C9 JUMP JUMPDEST PUSH1 0x6 SSTORE PUSH1 0x40 MLOAD SWAP2 DUP3 SWAP2 DUP6 DUP4 MSTORE CALLER SWAP6 DUP4 ADD SWAP1 PUSH2 0x21D2 JUMP JUMPDEST SUB SWAP1 LOG2 DUP1 RETURN JUMPDEST PUSH1 0x40 MLOAD PUSH3 0x461BCD PUSH1 0xE5 SHL DUP2 MSTORE PUSH1 0x4 DUP2 ADD DUP4 SWAP1 MSTORE PUSH1 0x11 PUSH1 0x24 DUP3 ADD MSTORE PUSH17 0x496E76616C696420757365722074797065 PUSH1 0x78 SHL PUSH1 0x44 DUP3 ADD MSTORE PUSH1 0x64 SWAP1 REVERT JUMPDEST SWAP1 POP DUP2 MLOAD SWAP1 KECCAK256 PUSH2 0x14E7 PUSH2 0x2384 JUMP JUMPDEST DUP4 DUP2 MLOAD SWAP2 ADD KECCAK256 EQ CODESIZE PUSH2 0x1427 JUMP JUMPDEST SWAP1 POP DUP2 MLOAD DUP2 KECCAK256 PUSH2 0x1502 PUSH2 0x2360 JUMP JUMPDEST DUP5 DUP2 MLOAD SWAP2 ADD KECCAK256 EQ SWAP1 PUSH2 0x1420 JUMP JUMPDEST PUSH1 0x40 MLOAD PUSH3 0x461BCD PUSH1 0xE5 SHL DUP2 MSTORE PUSH1 0x4 DUP2 ADD DUP4 SWAP1 MSTORE PUSH1 0x17 PUSH1 0x24 DUP3 ADD MSTORE PUSH32 0x5573657220616C72656164792072656769737465726564000000000000000000 PUSH1 0x44 DUP3 ADD MSTORE PUSH1 0x64 SWAP1 REVERT JUMPDEST POP CALLVALUE PUSH2 0x1B9 JUMPI PUSH1 0x20 DUP1 PUSH1 0x3 NOT CALLDATASIZE ADD SLT PUSH2 0x52F JUMPI PUSH1 0x4 CALLDATALOAD PUSH1 0x1 PUSH1 0x1 PUSH1 0x40 SHL SUB DUP2 GT PUSH2 0x9B4 JUMPI PUSH2 0x1586 SWAP1 CALLDATASIZE SWAP1 PUSH1 0x4 ADD PUSH2 0x2151 JUMP JUMPDEST SWAP1 PUSH2 0x158F PUSH2 0x2311 JUMP JUMPDEST PUSH1 0x40 MLOAD SWAP2 PUSH1 0xFF DUP2 MLOAD SWAP4 DUP4 DUP2 DUP2 DUP6 ADD SWAP7 PUSH2 0x15A9 DUP2 DUP4 DUP11 PUSH2 0x21AF JUMP JUMPDEST DUP2 ADD PUSH1 0xF DUP2 MSTORE SUB ADD SWAP1 KECCAK256 SLOAD AND ISZERO PUSH2 0x172E JUMPI PUSH1 0x40 MLOAD DUP3 DUP2 DUP4 MLOAD PUSH2 0x15CC DUP2 DUP4 DUP10 PUSH2 0x21AF JUMP JUMPDEST DUP2 ADD PUSH1 0xF DUP2 MSTORE SUB ADD SWAP1 KECCAK256 PUSH1 0xFF NOT DUP2 SLOAD AND SWAP1 SSTORE DUP4 JUMPDEST PUSH1 0x10 DUP1 SLOAD DUP1 DUP4 LT ISZERO PUSH2 0x1725 JUMPI PUSH2 0x250 PUSH2 0x1608 PUSH2 0x15FB DUP6 PUSH2 0x204B JUMP JUMPDEST POP PUSH1 0x40 MLOAD SWAP3 DUP4 DUP1 SWAP3 PUSH2 0x2231 JUMP JUMPDEST DUP6 DUP2 MLOAD SWAP2 ADD KECCAK256 DUP5 MLOAD DUP8 KECCAK256 EQ PUSH2 0x1627 JUMPI POP POP PUSH2 0x1622 SWAP1 PUSH2 0x24C9 JUMP JUMPDEST PUSH2 0x15E0 JUMP JUMPDEST SWAP4 SWAP5 POP SWAP3 PUSH1 0x0 NOT SWAP3 POP DUP3 DUP2 ADD SWAP1 DUP2 GT PUSH2 0x1711 JUMPI PUSH2 0x1646 PUSH2 0x164D SWAP2 PUSH2 0x204B JUMP JUMPDEST POP SWAP2 PUSH2 0x204B JUMP JUMPDEST PUSH2 0x16FD JUMPI SWAP1 PUSH2 0x165B SWAP2 PUSH2 0x25F1 JUMP JUMPDEST DUP2 SLOAD DUP1 ISZERO PUSH2 0x16E9 JUMPI ADD SWAP2 PUSH2 0x166E DUP4 PUSH2 0x204B JUMP JUMPDEST SWAP2 SWAP1 SWAP2 PUSH2 0x16D5 JUMPI SWAP1 DUP5 SWAP2 PUSH2 0x1682 DUP3 SLOAD PUSH2 0x21F7 JUMP JUMPDEST SWAP1 DUP2 PUSH2 0x1691 JUMPI JUMPDEST POP POP POP POP SSTORE DUP1 RETURN JUMPDEST PUSH1 0x1F SWAP1 DUP2 DUP4 GT PUSH1 0x1 EQ PUSH2 0x16B0 JUMPI POP POP POP PUSH1 0x0 SWAP2 POP SSTORE JUMPDEST DUP3 CODESIZE DUP1 DUP1 PUSH2 0x1689 JUMP JUMPDEST DUP4 SWAP2 PUSH2 0x16CE SWAP2 PUSH1 0x0 SWAP5 SWAP6 DUP8 MSTORE DUP7 KECCAK256 SWAP5 ADD PUSH1 0x5 SHR DUP5 ADD PUSH1 0x1 DUP6 ADD PUSH2 0x23A4 JUMP JUMPDEST SSTORE SSTORE PUSH2 0x16A7 JUMP JUMPDEST PUSH4 0x4E487B71 PUSH1 0xE0 SHL DUP6 MSTORE PUSH1 0x4 DUP6 SWAP1 MSTORE PUSH1 0x24 DUP6 REVERT JUMPDEST PUSH4 0x4E487B71 PUSH1 0xE0 SHL DUP6 MSTORE PUSH1 0x31 PUSH1 0x4 MSTORE PUSH1 0x24 DUP6 REVERT JUMPDEST PUSH4 0x4E487B71 PUSH1 0xE0 SHL DUP7 MSTORE PUSH1 0x4 DUP7 SWAP1 MSTORE PUSH1 0x24 DUP7 REVERT JUMPDEST PUSH4 0x4E487B71 PUSH1 0xE0 SHL DUP7 MSTORE PUSH1 0x11 PUSH1 0x4 MSTORE PUSH1 0x24 DUP7 REVERT JUMPDEST POP POP POP POP POP POP DUP1 RETURN JUMPDEST PUSH1 0x40 MLOAD PUSH3 0x461BCD PUSH1 0xE5 SHL DUP2 MSTORE PUSH1 0x4 DUP2 ADD DUP4 SWAP1 MSTORE PUSH1 0x18 PUSH1 0x24 DUP3 ADD MSTORE PUSH32 0x41737365742074797065206E6F7420737570706F727465640000000000000000 PUSH1 0x44 DUP3 ADD MSTORE PUSH1 0x64 SWAP1 REVERT JUMPDEST POP CALLVALUE PUSH2 0x1B9 JUMPI PUSH1 0x20 CALLDATASIZE PUSH1 0x3 NOT ADD SLT PUSH2 0x1B9 JUMPI PUSH1 0x4 CALLDATALOAD PUSH1 0x1 PUSH1 0x1 PUSH1 0x40 SHL SUB DUP2 GT PUSH2 0x52F JUMPI PUSH2 0x17A4 SWAP1 CALLDATASIZE SWAP1 PUSH1 0x4 ADD PUSH2 0x2151 JUMP JUMPDEST PUSH2 0x17AC PUSH2 0x2311 JUMP JUMPDEST PUSH1 0x40 MLOAD PUSH1 0xFF DUP3 MLOAD SWAP2 PUSH1 0x20 DUP2 DUP2 DUP7 ADD SWAP5 PUSH2 0x17C6 DUP2 DUP4 DUP9 PUSH2 0x21AF JUMP JUMPDEST DUP2 ADD PUSH1 0xF DUP2 MSTORE SUB ADD SWAP1 KECCAK256 SLOAD AND ISZERO PUSH2 0x17DB JUMPI DUP3 DUP1 RETURN JUMPDEST PUSH1 0x20 PUSH2 0x17F2 SWAP2 PUSH1 0x40 MLOAD DUP1 SWAP4 DUP2 SWAP3 DUP7 MLOAD SWAP3 DUP4 SWAP2 PUSH2 0x21AF JUMP JUMPDEST DUP2 ADD PUSH1 0xF DUP2 MSTORE SUB ADD SWAP1 KECCAK256 PUSH1 0x1 PUSH1 0xFF NOT DUP3 SLOAD AND OR SWAP1 SSTORE PUSH1 0x10 SLOAD PUSH1 0x1 PUSH1 0x40 SHL DUP2 LT ISZERO PUSH2 0x184E JUMPI DUP1 PUSH1 0x1 PUSH2 0x1826 SWAP3 ADD PUSH1 0x10 SSTORE PUSH2 0x204B JUMP JUMPDEST PUSH2 0x183A JUMPI SWAP1 PUSH2 0x1834 SWAP2 PUSH2 0x2402 JUMP JUMPDEST CODESIZE DUP1 DUP3 DUP1 RETURN JUMPDEST PUSH4 0x4E487B71 PUSH1 0xE0 SHL DUP4 MSTORE PUSH1 0x4 DUP4 SWAP1 MSTORE PUSH1 0x24 DUP4 REVERT JUMPDEST PUSH4 0x4E487B71 PUSH1 0xE0 SHL DUP4 MSTORE PUSH1 0x41 PUSH1 0x4 MSTORE PUSH1 0x24 DUP4 REVERT JUMPDEST POP CALLVALUE PUSH2 0x1B9 JUMPI DUP1 PUSH1 0x3 NOT CALLDATASIZE ADD SLT PUSH2 0x1B9 JUMPI PUSH1 0x40 MLOAD PUSH32 0x0 PUSH1 0x1 PUSH1 0x1 PUSH1 0xA0 SHL SUB AND DUP2 MSTORE PUSH1 0x20 SWAP1 RETURN JUMPDEST POP CALLVALUE PUSH2 0x1B9 JUMPI DUP1 PUSH1 0x3 NOT CALLDATASIZE ADD SLT PUSH2 0x1B9 JUMPI PUSH2 0x18C0 PUSH2 0x2311 JUMP JUMPDEST DUP1 PUSH32 0x0 PUSH1 0x1 PUSH1 0x1 PUSH1 0xA0 SHL SUB AND DUP1 EXTCODESIZE ISZERO PUSH2 0xAC8 JUMPI DUP2 SWAP1 PUSH1 0x4 PUSH1 0x40 MLOAD DUP1 SWAP5 DUP2 SWAP4 PUSH4 0x8456CB59 PUSH1 0xE0 SHL DUP4 MSTORE GAS CALL DUP1 ISZERO PUSH2 0x524 JUMPI PUSH2 0x1917 JUMPI POP DUP1 RETURN JUMPDEST PUSH2 0x1920 SWAP1 PUSH2 0x20E7 JUMP JUMPDEST DUP1 RETURN JUMPDEST POP CALLVALUE PUSH2 0x1B9 JUMPI PUSH1 0x20 CALLDATASIZE PUSH1 0x3 NOT ADD SLT PUSH2 0x1B9 JUMPI PUSH2 0x193D PUSH2 0x2311 JUMP JUMPDEST PUSH1 0x4 CALLDATALOAD PUSH1 0xD SSTORE DUP1 RETURN JUMPDEST POP CALLVALUE PUSH2 0x1B9 JUMPI PUSH1 0x20 CALLDATASIZE PUSH1 0x3 NOT ADD SLT PUSH2 0x1B9 JUMPI PUSH2 0x1960 PUSH2 0x2311 JUMP JUMPDEST PUSH1 0x4 CALLDATALOAD PUSH1 0xE SSTORE DUP1 RETURN JUMPDEST POP CALLVALUE PUSH2 0x1B9 JUMPI DUP1 PUSH1 0x3 NOT CALLDATASIZE ADD SLT PUSH2 0x1B9 JUMPI PUSH1 0x20 PUSH1 0xD SLOAD PUSH1 0x40 MLOAD SWAP1 DUP2 MSTORE RETURN JUMPDEST POP CALLVALUE PUSH2 0x1B9 JUMPI DUP1 PUSH1 0x3 NOT CALLDATASIZE ADD SLT PUSH2 0x1B9 JUMPI PUSH1 0x10 SLOAD PUSH2 0x19A4 DUP2 PUSH2 0x2198 JUMP JUMPDEST SWAP1 PUSH2 0x19B2 PUSH1 0x40 MLOAD SWAP3 DUP4 PUSH2 0x2115 JUMP JUMPDEST DUP1 DUP3 MSTORE PUSH1 0x10 DUP4 MSTORE PUSH1 0x20 SWAP3 DUP4 DUP4 ADD SWAP2 DUP2 PUSH32 0x1B6847DC741A1B0CD08D278845F9D819D87B734759AFB55FE2DE5CB82A9AE672 DUP5 JUMPDEST DUP4 DUP4 LT PUSH2 0x1A49 JUMPI POP POP POP POP PUSH1 0x40 MLOAD SWAP3 DUP5 DUP5 ADD SWAP1 DUP6 DUP6 MSTORE MLOAD DUP1 SWAP2 MSTORE PUSH1 0x40 DUP5 ADD SWAP5 PUSH1 0x40 DUP3 PUSH1 0x5 SHL DUP7 ADD ADD SWAP4 SWAP3 SWAP6 JUMPDEST DUP3 DUP8 LT PUSH2 0x1A1D JUMPI DUP6 DUP6 SUB DUP7 RETURN JUMPDEST SWAP1 SWAP2 SWAP3 SWAP4 DUP3 DUP1 PUSH2 0x1A39 PUSH1 0x1 SWAP4 PUSH1 0x3F NOT DUP11 DUP3 SUB ADD DUP7 MSTORE DUP9 MLOAD PUSH2 0x21D2 JUMP JUMPDEST SWAP7 ADD SWAP3 ADD SWAP7 ADD SWAP6 SWAP3 SWAP2 SWAP1 SWAP3 PUSH2 0x1A10 JUMP JUMPDEST PUSH1 0x1 DUP9 DUP2 SWAP3 PUSH1 0x40 SWAP11 SWAP10 SWAP8 SWAP11 MLOAD PUSH2 0x1A63 DUP2 PUSH2 0x250 DUP2 DUP10 PUSH2 0x2231 JUMP JUMPDEST DUP2 MSTORE ADD SWAP3 ADD SWAP3 ADD SWAP2 SWAP1 SWAP7 SWAP4 SWAP6 SWAP7 PUSH2 0x19E4 JUMP JUMPDEST POP CALLVALUE PUSH2 0x1B9 JUMPI PUSH1 0xC0 CALLDATASIZE PUSH1 0x3 NOT ADD SLT PUSH2 0x1B9 JUMPI PUSH1 0x1 PUSH1 0x1 PUSH1 0x40 SHL SUB PUSH1 0x4 CALLDATALOAD DUP2 DUP2 GT PUSH2 0x9B4 JUMPI PUSH2 0x1AA7 SWAP1 CALLDATASIZE SWAP1 PUSH1 0x4 ADD PUSH2 0x2151 JUMP JUMPDEST PUSH1 0x24 CALLDATALOAD DUP3 DUP2 GT PUSH2 0x1EA9 JUMPI PUSH2 0x1ABF SWAP1 CALLDATASIZE SWAP1 PUSH1 0x4 ADD PUSH2 0x2151 JUMP JUMPDEST SWAP2 PUSH1 0x44 CALLDATALOAD DUP2 DUP2 GT PUSH2 0x520 JUMPI CALLDATASIZE PUSH1 0x23 DUP3 ADD SLT ISZERO PUSH2 0x520 JUMPI DUP1 PUSH1 0x4 ADD CALLDATALOAD SWAP1 PUSH2 0x1AE4 DUP3 PUSH2 0x2198 JUMP JUMPDEST SWAP2 PUSH2 0x1AF2 PUSH1 0x40 MLOAD SWAP4 DUP5 PUSH2 0x2115 JUMP JUMPDEST DUP1 DUP4 MSTORE PUSH1 0x24 PUSH1 0x20 DUP5 ADD SWAP2 PUSH1 0x5 SHL DUP4 ADD ADD SWAP2 CALLDATASIZE DUP4 GT PUSH2 0x9B0 JUMPI PUSH1 0x24 ADD SWAP1 JUMPDEST DUP3 DUP3 LT PUSH2 0x1E99 JUMPI POP POP POP PUSH1 0x64 CALLDATALOAD SWAP2 PUSH1 0x84 CALLDATALOAD SWAP2 CALLER DUP8 MSTORE PUSH1 0x9 PUSH1 0x20 MSTORE PUSH2 0x1B39 PUSH1 0xFF PUSH1 0x40 DUP10 KECCAK256 SLOAD AND PUSH2 0x24EE JUMP JUMPDEST DUP5 MLOAD ISZERO PUSH2 0x1E54 JUMPI DUP1 MLOAD ISZERO PUSH2 0x1E03 JUMPI DUP4 ISZERO PUSH2 0x1DB2 JUMPI DUP3 ISZERO PUSH2 0x1D5E JUMPI PUSH2 0x1BE2 PUSH1 0x7 SLOAD SWAP7 PUSH2 0x1B63 DUP9 PUSH2 0x24C9 JUMP JUMPDEST PUSH1 0x7 SSTORE PUSH1 0x40 MLOAD SWAP5 PUSH2 0x1B73 DUP7 PUSH2 0x20CB JUMP JUMPDEST DUP9 DUP7 MSTORE PUSH1 0x20 DUP7 ADD SWAP7 DUP9 DUP9 MSTORE PUSH1 0x40 DUP8 ADD SWAP3 DUP4 MSTORE PUSH1 0x60 DUP8 ADD SWAP5 DUP6 MSTORE DUP1 PUSH1 0x80 DUP9 ADD MSTORE PUSH1 0xA0 DUP8 ADD MSTORE PUSH1 0xC0 DUP7 ADD MSTORE PUSH1 0xA4 CALLDATALOAD PUSH1 0xE0 DUP7 ADD MSTORE PUSH1 0x1 PUSH2 0x100 DUP7 ADD MSTORE CALLER PUSH2 0x120 DUP7 ADD MSTORE TIMESTAMP PUSH2 0x140 DUP7 ADD MSTORE DUP8 DUP10 MSTORE PUSH1 0x8 PUSH1 0x20 MSTORE PUSH2 0x1BD8 PUSH1 0x40 DUP11 KECCAK256 SWAP7 DUP7 MLOAD DUP9 SSTORE MLOAD PUSH1 0x1 DUP9 ADD PUSH2 0x2402 JUMP JUMPDEST MLOAD PUSH1 0x2 DUP7 ADD PUSH2 0x2402 JUMP JUMPDEST MLOAD DUP1 MLOAD SWAP2 DUP3 GT PUSH2 0x1D4A JUMPI PUSH1 0x1 PUSH1 0x40 SHL DUP3 GT PUSH2 0x1D4A JUMPI PUSH1 0x20 PUSH1 0x3 DUP6 ADD SWAP2 DUP3 SLOAD DUP5 DUP5 SSTORE DUP1 DUP6 LT PUSH2 0x1D30 JUMPI JUMPDEST POP ADD SWAP1 DUP8 MSTORE PUSH1 0x20 DUP8 KECCAK256 DUP8 JUMPDEST DUP4 DUP2 LT PUSH2 0x1D1C JUMPI POP POP POP POP PUSH2 0x140 DUP2 PUSH1 0x80 PUSH1 0x9 SWAP4 ADD MLOAD PUSH1 0x4 DUP6 ADD SSTORE PUSH1 0xA0 DUP2 ADD MLOAD PUSH1 0x5 DUP6 ADD SSTORE PUSH1 0xC0 DUP2 ADD MLOAD PUSH1 0x6 DUP6 ADD SSTORE PUSH1 0xE0 DUP2 ADD MLOAD PUSH1 0x7 DUP6 ADD SSTORE PUSH1 0x8 DUP5 ADD PUSH2 0x100 DUP3 ADD MLOAD ISZERO ISZERO DUP2 SLOAD PUSH1 0xFF PUSH2 0x100 PUSH1 0x1 PUSH1 0xA8 SHL SUB PUSH2 0x120 DUP7 ADD MLOAD PUSH1 0x8 SHL AND SWAP3 AND SWAP1 PUSH11 0xFFFFFFFFFFFFFFFFFFFFFF PUSH1 0xA8 SHL AND OR OR SWAP1 SSTORE ADD MLOAD SWAP2 ADD SSTORE CALLER DUP4 MSTORE PUSH1 0xB PUSH1 0x20 MSTORE PUSH1 0x40 DUP4 KECCAK256 DUP1 SLOAD SWAP4 PUSH1 0x1 PUSH1 0x40 SHL DUP6 LT ISZERO PUSH2 0x1D08 JUMPI POP DUP4 PUSH2 0x1CBC SWAP2 PUSH1 0x1 PUSH1 0x20 SWAP7 ADD DUP2 SSTORE PUSH2 0x2098 JUMP JUMPDEST DUP2 SLOAD SWAP1 PUSH1 0x3 SHL SWAP1 DUP5 DUP3 SHL SWAP2 PUSH1 0x0 NOT SWAP1 SHL NOT AND OR SWAP1 SSTORE DUP2 PUSH32 0x7EB8D63C0F8C2FB1B61DD0947E2F9EB707C7D44EC5D65A0761976CBC070197A5 PUSH1 0x40 MLOAD DUP6 DUP2 MSTORE DUP1 PUSH2 0x80D CALLER SWAP6 DUP9 DUP4 ADD SWAP1 PUSH2 0x21D2 JUMP JUMPDEST PUSH4 0x4E487B71 PUSH1 0xE0 SHL DUP2 MSTORE PUSH1 0x41 PUSH1 0x4 MSTORE PUSH1 0x24 SWAP1 REVERT JUMPDEST PUSH1 0x1 SWAP1 PUSH1 0x20 DUP5 MLOAD SWAP5 ADD SWAP4 DUP2 DUP5 ADD SSTORE ADD PUSH2 0x1C16 JUMP JUMPDEST DUP4 DUP11 MSTORE DUP3 DUP11 KECCAK256 PUSH2 0x1D44 SWAP2 DUP2 ADD SWAP1 DUP7 ADD PUSH2 0x23A4 JUMP JUMPDEST CODESIZE PUSH2 0x1C0B JUMP JUMPDEST PUSH4 0x4E487B71 PUSH1 0xE0 SHL DUP8 MSTORE PUSH1 0x41 PUSH1 0x4 MSTORE PUSH1 0x24 DUP8 REVERT JUMPDEST PUSH1 0x40 MLOAD PUSH3 0x461BCD PUSH1 0xE5 SHL DUP2 MSTORE PUSH1 0x20 PUSH1 0x4 DUP3 ADD MSTORE PUSH1 0x26 PUSH1 0x24 DUP3 ADD MSTORE PUSH32 0x507269636520706572207368617265206D757374206265206772656174657220 PUSH1 0x44 DUP3 ADD MSTORE PUSH6 0x7468616E203 PUSH1 0xD4 SHL PUSH1 0x64 DUP3 ADD MSTORE PUSH1 0x84 SWAP1 REVERT JUMPDEST PUSH1 0x40 MLOAD PUSH3 0x461BCD PUSH1 0xE5 SHL DUP2 MSTORE PUSH1 0x20 PUSH1 0x4 DUP3 ADD MSTORE PUSH1 0x23 PUSH1 0x24 DUP3 ADD MSTORE PUSH32 0x546F74616C20736861726573206D757374206265206772656174657220746861 PUSH1 0x44 DUP3 ADD MSTORE PUSH3 0x6E203 PUSH1 0xEC SHL PUSH1 0x64 DUP3 ADD MSTORE PUSH1 0x84 SWAP1 REVERT JUMPDEST PUSH1 0x40 MLOAD PUSH3 0x461BCD PUSH1 0xE5 SHL DUP2 MSTORE PUSH1 0x20 PUSH1 0x4 DUP3 ADD MSTORE PUSH1 0x24 DUP1 DUP3 ADD MSTORE PUSH32 0x506F6F6C206D75737420636F6E7461696E206174206C65617374206F6E652061 PUSH1 0x44 DUP3 ADD MSTORE PUSH4 0x1CDCD95D PUSH1 0xE2 SHL PUSH1 0x64 DUP3 ADD MSTORE PUSH1 0x84 SWAP1 REVERT JUMPDEST PUSH1 0x40 MLOAD PUSH3 0x461BCD PUSH1 0xE5 SHL DUP2 MSTORE PUSH1 0x20 PUSH1 0x4 DUP3 ADD MSTORE PUSH1 0x19 PUSH1 0x24 DUP3 ADD MSTORE PUSH32 0x506F6F6C206E616D652063616E6E6F7420626520656D70747900000000000000 PUSH1 0x44 DUP3 ADD MSTORE PUSH1 0x64 SWAP1 REVERT JUMPDEST DUP2 CALLDATALOAD DUP2 MSTORE PUSH1 0x20 SWAP2 DUP3 ADD SWAP2 ADD PUSH2 0x1B0F JUMP JUMPDEST DUP4 DUP1 REVERT JUMPDEST POP CALLVALUE PUSH2 0x1B9 JUMPI DUP1 PUSH1 0x3 NOT CALLDATASIZE ADD SLT PUSH2 0x1B9 JUMPI PUSH1 0x20 PUSH1 0x7 SLOAD PUSH1 0x40 MLOAD SWAP1 DUP2 MSTORE RETURN JUMPDEST POP CALLVALUE PUSH2 0x1B9 JUMPI PUSH1 0x20 CALLDATASIZE PUSH1 0x3 NOT ADD SLT PUSH2 0x1B9 JUMPI PUSH1 0x20 SWAP1 PUSH1 0xFF SWAP1 PUSH1 0x40 SWAP1 PUSH1 0x1 PUSH1 0x1 PUSH1 0xA0 SHL SUB PUSH2 0x1EF6 PUSH2 0x2030 JUMP JUMPDEST AND DUP2 MSTORE PUSH1 0x9 DUP5 MSTORE KECCAK256 SLOAD AND PUSH1 0x40 MLOAD SWAP1 ISZERO ISZERO DUP2 MSTORE RETURN JUMPDEST POP CALLVALUE PUSH2 0x1B9 JUMPI DUP1 PUSH1 0x3 NOT CALLDATASIZE ADD SLT PUSH2 0x1B9 JUMPI PUSH1 0x80 PUSH1 0x40 MLOAD PUSH2 0x1F29 DUP2 PUSH2 0x20B0 JUMP JUMPDEST DUP3 DUP2 MSTORE DUP3 PUSH1 0x20 DUP3 ADD MSTORE DUP3 PUSH1 0x40 DUP3 ADD MSTORE DUP3 PUSH1 0x60 DUP3 ADD MSTORE ADD MSTORE PUSH1 0xA0 PUSH1 0x40 MLOAD PUSH2 0x1F4E DUP2 PUSH2 0x20B0 JUMP JUMPDEST PUSH1 0x2 SLOAD SWAP1 DUP2 DUP2 MSTORE PUSH1 0x3 SLOAD PUSH1 0x20 DUP3 ADD SWAP1 DUP2 MSTORE PUSH1 0x4 SLOAD PUSH1 0x40 DUP4 ADD SWAP1 DUP2 MSTORE PUSH1 0x5 SLOAD SWAP2 PUSH1 0x60 DUP5 ADD SWAP3 DUP4 MSTORE PUSH1 0x80 PUSH1 0x6 SLOAD SWAP5 ADD SWAP4 DUP5 MSTORE PUSH1 0x40 MLOAD SWAP5 DUP6 MSTORE MLOAD PUSH1 0x20 DUP6 ADD MSTORE MLOAD PUSH1 0x40 DUP5 ADD MSTORE MLOAD PUSH1 0x60 DUP4 ADD MSTORE MLOAD PUSH1 0x80 DUP3 ADD MSTORE RETURN JUMPDEST POP CALLVALUE PUSH2 0x1B9 JUMPI PUSH1 0x40 CALLDATASIZE PUSH1 0x3 NOT ADD SLT PUSH2 0x1B9 JUMPI PUSH2 0x1FB8 PUSH2 0x2030 JUMP JUMPDEST PUSH1 0x1 PUSH1 0x1 PUSH1 0xA0 SHL SUB AND DUP2 MSTORE PUSH1 0xB PUSH1 0x20 MSTORE PUSH1 0x40 DUP2 KECCAK256 DUP1 SLOAD PUSH1 0x24 CALLDATALOAD SWAP3 SWAP1 DUP4 LT ISZERO PUSH2 0x1B9 JUMPI PUSH1 0x20 PUSH2 0x1FE6 DUP5 DUP5 PUSH2 0x2098 JUMP JUMPDEST SWAP1 SLOAD PUSH1 0x40 MLOAD SWAP2 PUSH1 0x3 SHL SHR DUP2 MSTORE RETURN JUMPDEST SWAP1 POP CALLVALUE PUSH2 0x52F JUMPI PUSH1 0x20 CALLDATASIZE PUSH1 0x3 NOT ADD SLT PUSH2 0x52F JUMPI PUSH1 0x20 SWAP2 PUSH1 0xFF SWAP1 PUSH1 0x40 SWAP1 PUSH1 0x1 PUSH1 0x1 PUSH1 0xA0 SHL SUB PUSH2 0x2020 PUSH2 0x2030 JUMP JUMPDEST AND DUP2 MSTORE PUSH1 0x9 DUP6 MSTORE KECCAK256 SLOAD AND ISZERO ISZERO DUP2 MSTORE RETURN JUMPDEST PUSH1 0x4 CALLDATALOAD SWAP1 PUSH1 0x1 PUSH1 0x1 PUSH1 0xA0 SHL SUB DUP3 AND DUP3 SUB PUSH2 0x2046 JUMPI JUMP JUMPDEST PUSH1 0x0 DUP1 REVERT JUMPDEST PUSH1 0x10 SLOAD DUP2 LT ISZERO PUSH2 0x2082 JUMPI PUSH1 0x10 PUSH1 0x0 MSTORE PUSH32 0x1B6847DC741A1B0CD08D278845F9D819D87B734759AFB55FE2DE5CB82A9AE672 ADD SWAP1 PUSH1 0x0 SWAP1 JUMP JUMPDEST PUSH4 0x4E487B71 PUSH1 0xE0 SHL PUSH1 0x0 MSTORE PUSH1 0x32 PUSH1 0x4 MSTORE PUSH1 0x24 PUSH1 0x0 REVERT JUMPDEST DUP1 SLOAD DUP3 LT ISZERO PUSH2 0x2082 JUMPI PUSH1 0x0 MSTORE PUSH1 0x20 PUSH1 0x0 KECCAK256 ADD SWAP1 PUSH1 0x0 SWAP1 JUMP JUMPDEST PUSH1 0xA0 DUP2 ADD SWAP1 DUP2 LT PUSH1 0x1 PUSH1 0x1 PUSH1 0x40 SHL SUB DUP3 GT OR PUSH2 0x59A JUMPI PUSH1 0x40 MSTORE JUMP JUMPDEST PUSH2 0x160 DUP2 ADD SWAP1 DUP2 LT PUSH1 0x1 PUSH1 0x1 PUSH1 0x40 SHL SUB DUP3 GT OR PUSH2 0x59A JUMPI PUSH1 0x40 MSTORE JUMP JUMPDEST PUSH1 0x1 PUSH1 0x1 PUSH1 0x40 SHL SUB DUP2 GT PUSH2 0x59A JUMPI PUSH1 0x40 MSTORE JUMP JUMPDEST PUSH1 0x40 DUP2 ADD SWAP1 DUP2 LT PUSH1 0x1 PUSH1 0x1 PUSH1 0x40 SHL SUB DUP3 GT OR PUSH2 0x59A JUMPI PUSH1 0x40 MSTORE JUMP JUMPDEST SWAP1 PUSH1 0x1F DUP1 NOT SWAP2 ADD AND DUP2 ADD SWAP1 DUP2 LT PUSH1 0x1 PUSH1 0x1 PUSH1 0x40 SHL SUB DUP3 GT OR PUSH2 0x59A JUMPI PUSH1 0x40 MSTORE JUMP JUMPDEST PUSH1 0x1 PUSH1 0x1 PUSH1 0x40 SHL SUB DUP2 GT PUSH2 0x59A JUMPI PUSH1 0x1F ADD PUSH1 0x1F NOT AND PUSH1 0x20 ADD SWAP1 JUMP JUMPDEST DUP2 PUSH1 0x1F DUP3 ADD SLT ISZERO PUSH2 0x2046 JUMPI DUP1 CALLDATALOAD SWAP1 PUSH2 0x2168 DUP3 PUSH2 0x2136 JUMP JUMPDEST SWAP3 PUSH2 0x2176 PUSH1 0x40 MLOAD SWAP5 DUP6 PUSH2 0x2115 JUMP JUMPDEST DUP3 DUP5 MSTORE PUSH1 0x20 DUP4 DUP4 ADD ADD GT PUSH2 0x2046 JUMPI DUP2 PUSH1 0x0 SWAP3 PUSH1 0x20 DUP1 SWAP4 ADD DUP4 DUP7 ADD CALLDATACOPY DUP4 ADD ADD MSTORE SWAP1 JUMP JUMPDEST PUSH1 0x1 PUSH1 0x1 PUSH1 0x40 SHL SUB DUP2 GT PUSH2 0x59A JUMPI PUSH1 0x5 SHL PUSH1 0x20 ADD SWAP1 JUMP JUMPDEST PUSH1 0x0 JUMPDEST DUP4 DUP2 LT PUSH2 0x21C2 JUMPI POP POP PUSH1 0x0 SWAP2 ADD MSTORE JUMP JUMPDEST DUP2 DUP2 ADD MLOAD DUP4 DUP3 ADD MSTORE PUSH1 0x20 ADD PUSH2 0x21B2 JUMP JUMPDEST SWAP1 PUSH1 0x20 SWAP2 PUSH2 0x21EB DUP2 MLOAD DUP1 SWAP3 DUP2 DUP6 MSTORE DUP6 DUP1 DUP7 ADD SWAP2 ADD PUSH2 0x21AF JUMP JUMPDEST PUSH1 0x1F ADD PUSH1 0x1F NOT AND ADD ADD SWAP1 JUMP JUMPDEST SWAP1 PUSH1 0x1 DUP3 DUP2 SHR SWAP3 AND DUP1 ISZERO PUSH2 0x2227 JUMPI JUMPDEST PUSH1 0x20 DUP4 LT EQ PUSH2 0x2211 JUMPI JUMP JUMPDEST PUSH4 0x4E487B71 PUSH1 0xE0 SHL PUSH1 0x0 MSTORE PUSH1 0x22 PUSH1 0x4 MSTORE PUSH1 0x24 PUSH1 0x0 REVERT JUMPDEST SWAP2 PUSH1 0x7F AND SWAP2 PUSH2 0x2206 JUMP JUMPDEST SWAP1 PUSH1 0x0 SWAP3 SWAP2 DUP1 SLOAD SWAP2 PUSH2 0x2242 DUP4 PUSH2 0x21F7 JUMP JUMPDEST SWAP2 DUP3 DUP3 MSTORE PUSH1 0x1 SWAP4 DUP5 DUP2 AND SWAP1 DUP2 PUSH1 0x0 EQ PUSH2 0x22A4 JUMPI POP PUSH1 0x1 EQ PUSH2 0x2264 JUMPI JUMPDEST POP POP POP POP JUMP JUMPDEST SWAP1 SWAP2 SWAP4 SWAP5 POP PUSH1 0x0 MSTORE PUSH1 0x20 SWAP3 DUP4 PUSH1 0x0 KECCAK256 SWAP3 DUP5 PUSH1 0x0 SWAP5 JUMPDEST DUP4 DUP7 LT PUSH2 0x2290 JUMPI POP POP POP POP ADD ADD SWAP1 CODESIZE DUP1 DUP1 DUP1 PUSH2 0x225E JUMP JUMPDEST DUP1 SLOAD DUP6 DUP8 ADD DUP4 ADD MSTORE SWAP5 ADD SWAP4 DUP6 SWAP1 DUP3 ADD PUSH2 0x2279 JUMP JUMPDEST SWAP3 SWAP5 POP POP POP PUSH1 0x20 SWAP4 SWAP5 POP PUSH1 0xFF NOT AND DUP4 DUP4 ADD MSTORE ISZERO ISZERO PUSH1 0x5 SHL ADD ADD SWAP1 CODESIZE DUP1 DUP1 DUP1 PUSH2 0x225E JUMP JUMPDEST SWAP1 DUP2 MLOAD DUP1 DUP3 MSTORE PUSH1 0x20 DUP1 DUP1 SWAP4 ADD SWAP4 ADD SWAP2 PUSH1 0x0 JUMPDEST DUP3 DUP2 LT PUSH2 0x22E7 JUMPI POP POP POP POP SWAP1 JUMP JUMPDEST DUP4 MLOAD DUP6 MSTORE SWAP4 DUP2 ADD SWAP4 SWAP3 DUP2 ADD SWAP3 PUSH1 0x1 ADD PUSH2 0x22D9 JUMP JUMPDEST PUSH1 0x40 SWAP1 PUSH1 0x3 NOT ADD SLT PUSH2 0x2046 JUMPI PUSH1 0x4 CALLDATALOAD SWAP1 PUSH1 0x24 CALLDATALOAD SWAP1 JUMP JUMPDEST PUSH1 0x0 SLOAD PUSH1 0x1 PUSH1 0x1 PUSH1 0xA0 SHL SUB AND CALLER SUB PUSH2 0x2325 JUMPI JUMP JUMPDEST PUSH1 0x40 MLOAD PUSH4 0x118CDAA7 PUSH1 0xE0 SHL DUP2 MSTORE CALLER PUSH1 0x4 DUP3 ADD MSTORE PUSH1 0x24 SWAP1 REVERT JUMPDEST PUSH1 0x40 MLOAD SWAP1 PUSH2 0x234A DUP3 PUSH2 0x20FA JUMP JUMPDEST PUSH1 0x7 DUP3 MSTORE PUSH7 0x31B932B0BA37B9 PUSH1 0xC9 SHL PUSH1 0x20 DUP4 ADD MSTORE JUMP JUMPDEST PUSH1 0x40 MLOAD SWAP1 PUSH2 0x236D DUP3 PUSH2 0x20FA JUMP JUMPDEST PUSH1 0x8 DUP3 MSTORE PUSH8 0x34B73B32B9BA37B9 PUSH1 0xC1 SHL PUSH1 0x20 DUP4 ADD MSTORE JUMP JUMPDEST PUSH1 0x40 MLOAD SWAP1 PUSH2 0x2391 DUP3 PUSH2 0x20FA JUMP JUMPDEST PUSH1 0x4 DUP3 MSTORE PUSH4 0xC4DEE8D PUSH1 0xE3 SHL PUSH1 0x20 DUP4 ADD MSTORE JUMP JUMPDEST DUP2 DUP2 LT PUSH2 0x23AF JUMPI POP POP JUMP JUMPDEST PUSH1 0x0 DUP2 SSTORE PUSH1 0x1 ADD PUSH2 0x23A4 JUMP JUMPDEST SWAP2 SWAP1 PUSH1 0x1F DUP2 GT PUSH2 0x23CA JUMPI POP POP POP JUMP JUMPDEST PUSH2 0x23F6 SWAP3 PUSH1 0x0 MSTORE PUSH1 0x20 PUSH1 0x0 KECCAK256 SWAP1 PUSH1 0x20 PUSH1 0x1F DUP5 ADD PUSH1 0x5 SHR DUP4 ADD SWAP4 LT PUSH2 0x23F8 JUMPI JUMPDEST PUSH1 0x1F ADD PUSH1 0x5 SHR ADD SWAP1 PUSH2 0x23A4 JUMP JUMPDEST JUMP JUMPDEST SWAP1 SWAP2 POP DUP2 SWAP1 PUSH2 0x23E9 JUMP JUMPDEST SWAP2 SWAP1 SWAP2 DUP3 MLOAD PUSH1 0x1 PUSH1 0x1 PUSH1 0x40 SHL SUB DUP2 GT PUSH2 0x59A JUMPI PUSH2 0x2429 DUP2 PUSH2 0x2423 DUP5 SLOAD PUSH2 0x21F7 JUMP JUMPDEST DUP5 PUSH2 0x23BB JUMP JUMPDEST PUSH1 0x20 DUP1 PUSH1 0x1F DUP4 GT PUSH1 0x1 EQ PUSH2 0x2465 JUMPI POP DUP2 SWAP3 SWAP4 SWAP5 PUSH1 0x0 SWAP3 PUSH2 0x245A JUMPI JUMPDEST POP POP DUP2 PUSH1 0x1 SHL SWAP2 PUSH1 0x0 NOT SWAP1 PUSH1 0x3 SHL SHR NOT AND OR SWAP1 SSTORE JUMP JUMPDEST ADD MLOAD SWAP1 POP CODESIZE DUP1 PUSH2 0x2444 JUMP JUMPDEST SWAP1 PUSH1 0x1F NOT DUP4 AND SWAP6 DUP5 PUSH1 0x0 MSTORE DUP3 PUSH1 0x0 KECCAK256 SWAP3 PUSH1 0x0 SWAP1 JUMPDEST DUP9 DUP3 LT PUSH2 0x24B1 JUMPI POP POP DUP4 PUSH1 0x1 SWAP6 SWAP7 SWAP8 LT PUSH2 0x2498 JUMPI JUMPDEST POP POP POP DUP2 SHL ADD SWAP1 SSTORE JUMP JUMPDEST ADD MLOAD PUSH1 0x0 NOT PUSH1 0xF8 DUP5 PUSH1 0x3 SHL AND SHR NOT AND SWAP1 SSTORE CODESIZE DUP1 DUP1 PUSH2 0x248E JUMP JUMPDEST DUP1 PUSH1 0x1 DUP6 SWAP7 DUP3 SWAP5 SWAP7 DUP7 ADD MLOAD DUP2 SSTORE ADD SWAP6 ADD SWAP4 ADD SWAP1 PUSH2 0x2479 JUMP JUMPDEST PUSH1 0x0 NOT DUP2 EQ PUSH2 0x24D8 JUMPI PUSH1 0x1 ADD SWAP1 JUMP JUMPDEST PUSH4 0x4E487B71 PUSH1 0xE0 SHL PUSH1 0x0 MSTORE PUSH1 0x11 PUSH1 0x4 MSTORE PUSH1 0x24 PUSH1 0x0 REVERT JUMPDEST ISZERO PUSH2 0x24F5 JUMPI JUMP JUMPDEST PUSH1 0x40 MLOAD PUSH3 0x461BCD PUSH1 0xE5 SHL DUP2 MSTORE PUSH1 0x20 PUSH1 0x4 DUP3 ADD MSTORE PUSH1 0x13 PUSH1 0x24 DUP3 ADD MSTORE PUSH19 0x155CD95C881B9BDD081C9959DA5CDD195C9959 PUSH1 0x6A SHL PUSH1 0x44 DUP3 ADD MSTORE PUSH1 0x64 SWAP1 REVERT JUMPDEST DUP2 DUP2 MUL SWAP3 SWAP2 DUP2 ISZERO SWAP2 DUP5 DIV EQ OR ISZERO PUSH2 0x24D8 JUMPI JUMP JUMPDEST SWAP2 SWAP1 DUP3 ADD DUP1 SWAP3 GT PUSH2 0x24D8 JUMPI JUMP JUMPDEST SWAP2 SWAP1 DUP3 SUB SWAP2 DUP3 GT PUSH2 0x24D8 JUMPI JUMP JUMPDEST DUP2 PUSH1 0x1F DUP3 ADD SLT ISZERO PUSH2 0x2046 JUMPI DUP1 MLOAD PUSH2 0x2573 DUP2 PUSH2 0x2136 JUMP JUMPDEST SWAP3 PUSH2 0x2581 PUSH1 0x40 MLOAD SWAP5 DUP6 PUSH2 0x2115 JUMP JUMPDEST DUP2 DUP5 MSTORE PUSH1 0x20 DUP3 DUP5 ADD ADD GT PUSH2 0x2046 JUMPI PUSH2 0x259F SWAP2 PUSH1 0x20 DUP1 DUP6 ADD SWAP2 ADD PUSH2 0x21AF JUMP JUMPDEST SWAP1 JUMP JUMPDEST SWAP1 PUSH1 0x40 MLOAD SWAP2 DUP3 DUP2 SLOAD SWAP2 DUP3 DUP3 MSTORE PUSH1 0x20 SWAP3 DUP4 DUP4 ADD SWAP2 PUSH1 0x0 MSTORE DUP4 PUSH1 0x0 KECCAK256 SWAP4 PUSH1 0x0 SWAP1 JUMPDEST DUP3 DUP3 LT PUSH2 0x25D7 JUMPI POP POP POP PUSH2 0x23F6 SWAP3 POP SUB DUP4 PUSH2 0x2115 JUMP JUMPDEST DUP6 SLOAD DUP5 MSTORE PUSH1 0x1 SWAP6 DUP7 ADD SWAP6 DUP9 SWAP6 POP SWAP4 DUP2 ADD SWAP4 SWAP1 SWAP2 ADD SWAP1 PUSH2 0x25C1 JUMP JUMPDEST SWAP1 DUP1 DUP3 EQ PUSH2 0x26C9 JUMPI PUSH2 0x2603 DUP2 SLOAD PUSH2 0x21F7 JUMP JUMPDEST SWAP1 PUSH1 0x1 PUSH1 0x1 PUSH1 0x40 SHL SUB DUP3 GT PUSH2 0x59A JUMPI DUP2 SWAP1 PUSH2 0x2628 DUP3 PUSH2 0x2622 DUP7 SLOAD PUSH2 0x21F7 JUMP JUMPDEST DUP7 PUSH2 0x23BB JUMP JUMPDEST PUSH1 0x0 SWAP1 PUSH1 0x1F DUP4 GT PUSH1 0x1 EQ PUSH2 0x265E JUMPI PUSH1 0x0 SWAP3 PUSH2 0x2653 JUMPI POP POP DUP2 PUSH1 0x1 SHL SWAP2 PUSH1 0x0 NOT SWAP1 PUSH1 0x3 SHL SHR NOT AND OR SWAP1 SSTORE JUMP JUMPDEST ADD SLOAD SWAP1 POP CODESIZE DUP1 PUSH2 0x2444 JUMP JUMPDEST DUP2 MSTORE PUSH1 0x20 DUP1 DUP3 KECCAK256 DUP6 DUP4 MSTORE DUP2 DUP4 KECCAK256 SWAP4 POP SWAP1 PUSH1 0x1F NOT DUP6 AND SWAP1 DUP4 SWAP1 JUMPDEST DUP3 DUP3 LT PUSH2 0x26B0 JUMPI POP POP SWAP1 DUP5 PUSH1 0x1 SWAP6 SWAP5 SWAP4 SWAP3 LT PUSH2 0x2697 JUMPI POP POP POP DUP2 SHL ADD SWAP1 SSTORE JUMP JUMPDEST ADD SLOAD PUSH1 0x0 NOT PUSH1 0xF8 DUP5 PUSH1 0x3 SHL AND SHR NOT AND SWAP1 SSTORE CODESIZE DUP1 DUP1 PUSH2 0x248E JUMP JUMPDEST DUP5 SWAP6 DUP2 SWAP3 SWAP6 DUP6 ADD SLOAD DUP2 SSTORE PUSH1 0x1 DUP1 SWAP2 ADD SWAP7 ADD SWAP5 ADD SWAP1 PUSH2 0x2677 JUMP JUMPDEST POP POP JUMP INVALID LOG2 PUSH5 0x6970667358 0x22 SLT KECCAK256 SWAP8 ADDMOD 0xCF SHL RETURNDATACOPY 0xED 0x27 0xAF SWAP1 PUSH3 0x8A0CEB DUP15 0xF LT 0xDE PUSH20 0xC7D34410D332F0BA468B0CFE4E3664736F6C6343 STOP ADDMOD EQ STOP CALLER "},"methodIdentifiers":{"addAssetType(string)":"5c231aab","assetContract()":"4d16304f","assetTypesList(uint256)":"dcc5bfda","createAsset(string,uint256,uint256,string,uint256)":"f44de78f","createInvestmentPool(string,string,uint256[],uint256,uint256,uint256)":"2f8fa21d","getCurrentPoolId()":"2c26e42f","getInvestmentPool(uint256)":"fa39a5ea","getPlatformStats()":"136d8883","getSupportedAssetTypes()":"31cc6156","getUserPools(address)":"9816af58","getUserType(address)":"8b3f863f","investInAsset(uint256,uint256)":"f6ac051a","investInPool(uint256,uint256)":"a53caaa8","investmentPools(uint256)":"bceae59d","isUserRegistered(address)":"163f7522","maximumAssetValue()":"396cd833","minimumAssetValue()":"c5f9143a","minimumSharePrice()":"feaec4c3","owner()":"8da5cb5b","pauseAssetContract()":"4b98f225","payRoyalties(uint256)":"890d5b64","registerUser(string)":"704f1b94","registeredUsers(address)":"0e50cee5","removeAssetType(string)":"6a61d0ea","renounceOwnership()":"715018a6","stats()":"d80528ae","supportedAssetTypes(string)":"7077a4e4","transferOwnership(address)":"f2fde38b","unpauseAssetContract()":"ddddd475","updateMaximumAssetValue(uint256)":"40a93370","updateMinimumAssetValue(uint256)":"f858bbb5","updateMinimumSharePrice(uint256)":"3ced1b73","userPools(address,uint256)":"1064aa55","userTypes(address)":"87cd273c"}}}}}